{
  "contractName": "ActionsStorageV1_0",
  "abi": [
    {
      "anonymous": false,
      "inputs": [
        {
          "indexed": false,
          "internalType": "address",
          "name": "previousOwner",
          "type": "address"
        },
        {
          "indexed": false,
          "internalType": "address",
          "name": "newOwner",
          "type": "address"
        }
      ],
      "name": "OwnershipTransferred",
      "type": "event"
    },
    {
      "inputs": [
        {
          "internalType": "uint256",
          "name": "",
          "type": "uint256"
        }
      ],
      "name": "dataByEntry",
      "outputs": [
        {
          "internalType": "enum ActionsStorageV1_0.Actions",
          "name": "entryType",
          "type": "uint8"
        },
        {
          "internalType": "address",
          "name": "company",
          "type": "address"
        },
        {
          "internalType": "address",
          "name": "signatorie",
          "type": "address"
        },
        {
          "internalType": "uint256",
          "name": "timestamp",
          "type": "uint256"
        },
        {
          "internalType": "uint256",
          "name": "required",
          "type": "uint256"
        },
        {
          "internalType": "bool",
          "name": "requiresMultisig",
          "type": "bool"
        },
        {
          "internalType": "bool",
          "name": "approved",
          "type": "bool"
        },
        {
          "internalType": "uint256",
          "name": "inputOf",
          "type": "uint256"
        },
        {
          "internalType": "uint256",
          "name": "outputOf",
          "type": "uint256"
        }
      ],
      "stateMutability": "view",
      "type": "function"
    },
    {
      "inputs": [
        {
          "internalType": "address",
          "name": "",
          "type": "address"
        },
        {
          "internalType": "uint256",
          "name": "",
          "type": "uint256"
        }
      ],
      "name": "entriesByCompany",
      "outputs": [
        {
          "internalType": "uint256",
          "name": "",
          "type": "uint256"
        }
      ],
      "stateMutability": "view",
      "type": "function"
    },
    {
      "inputs": [
        {
          "internalType": "address",
          "name": "",
          "type": "address"
        },
        {
          "internalType": "uint256",
          "name": "",
          "type": "uint256"
        }
      ],
      "name": "entriesByUser",
      "outputs": [
        {
          "internalType": "uint256",
          "name": "",
          "type": "uint256"
        }
      ],
      "stateMutability": "view",
      "type": "function"
    },
    {
      "inputs": [],
      "name": "owner",
      "outputs": [
        {
          "internalType": "address",
          "name": "",
          "type": "address"
        }
      ],
      "stateMutability": "view",
      "type": "function"
    },
    {
      "inputs": [],
      "name": "pos",
      "outputs": [
        {
          "internalType": "uint256",
          "name": "",
          "type": "uint256"
        }
      ],
      "stateMutability": "view",
      "type": "function"
    },
    {
      "inputs": [
        {
          "internalType": "address",
          "name": "newOwner",
          "type": "address"
        }
      ],
      "name": "transferOwnership",
      "outputs": [],
      "stateMutability": "nonpayable",
      "type": "function"
    },
    {
      "inputs": [
        {
          "internalType": "uint256",
          "name": "",
          "type": "uint256"
        },
        {
          "internalType": "uint256",
          "name": "",
          "type": "uint256"
        }
      ],
      "name": "validations",
      "outputs": [
        {
          "internalType": "address",
          "name": "company",
          "type": "address"
        },
        {
          "internalType": "address",
          "name": "signatorie",
          "type": "address"
        },
        {
          "internalType": "uint256",
          "name": "timestamp",
          "type": "uint256"
        }
      ],
      "stateMutability": "view",
      "type": "function"
    },
    {
      "inputs": [
        {
          "internalType": "address",
          "name": "",
          "type": "address"
        },
        {
          "internalType": "uint256",
          "name": "",
          "type": "uint256"
        }
      ],
      "name": "verifiedEntry",
      "outputs": [
        {
          "internalType": "bool",
          "name": "",
          "type": "bool"
        }
      ],
      "stateMutability": "view",
      "type": "function"
    },
    {
      "inputs": [
        {
          "internalType": "address",
          "name": "_multiSigWallet",
          "type": "address"
        },
        {
          "internalType": "address",
          "name": "_erc721",
          "type": "address"
        }
      ],
      "name": "initialize",
      "outputs": [],
      "stateMutability": "nonpayable",
      "type": "function"
    },
    {
      "inputs": [
        {
          "internalType": "address",
          "name": "_resourceActions",
          "type": "address"
        }
      ],
      "name": "setResourceActionsContract",
      "outputs": [],
      "stateMutability": "nonpayable",
      "type": "function"
    },
    {
      "inputs": [
        {
          "internalType": "address",
          "name": "_erc721",
          "type": "address"
        }
      ],
      "name": "setERC721",
      "outputs": [],
      "stateMutability": "nonpayable",
      "type": "function"
    },
    {
      "inputs": [
        {
          "internalType": "uint256",
          "name": "_entry",
          "type": "uint256"
        }
      ],
      "name": "approveProduce",
      "outputs": [],
      "stateMutability": "nonpayable",
      "type": "function"
    },
    {
      "inputs": [
        {
          "internalType": "uint256[]",
          "name": "_uids",
          "type": "uint256[]"
        }
      ],
      "name": "produce",
      "outputs": [],
      "stateMutability": "nonpayable",
      "type": "function"
    },
    {
      "inputs": [
        {
          "internalType": "uint256[]",
          "name": "_uids",
          "type": "uint256[]"
        },
        {
          "internalType": "uint256",
          "name": "_required",
          "type": "uint256"
        },
        {
          "internalType": "address[]",
          "name": "_companies",
          "type": "address[]"
        }
      ],
      "name": "measure",
      "outputs": [],
      "stateMutability": "nonpayable",
      "type": "function"
    },
    {
      "inputs": [
        {
          "internalType": "uint256[]",
          "name": "_uids",
          "type": "uint256[]"
        },
        {
          "internalType": "uint256",
          "name": "_required",
          "type": "uint256"
        },
        {
          "internalType": "address[]",
          "name": "_allowedCompanies",
          "type": "address[]"
        }
      ],
      "name": "pickUp",
      "outputs": [],
      "stateMutability": "nonpayable",
      "type": "function"
    },
    {
      "inputs": [
        {
          "internalType": "uint256[]",
          "name": "_uids",
          "type": "uint256[]"
        },
        {
          "internalType": "uint256",
          "name": "_required",
          "type": "uint256"
        },
        {
          "internalType": "address[]",
          "name": "_allowedCompanies",
          "type": "address[]"
        },
        {
          "internalType": "uint256",
          "name": "_outputOf",
          "type": "uint256"
        }
      ],
      "name": "dropOff",
      "outputs": [],
      "stateMutability": "nonpayable",
      "type": "function"
    },
    {
      "inputs": [
        {
          "internalType": "uint256",
          "name": "_entry",
          "type": "uint256"
        }
      ],
      "name": "validateEntry",
      "outputs": [],
      "stateMutability": "nonpayable",
      "type": "function"
    },
    {
      "inputs": [
        {
          "internalType": "address",
          "name": "_company",
          "type": "address"
        }
      ],
      "name": "getEntriesByCompany",
      "outputs": [
        {
          "internalType": "uint256[]",
          "name": "",
          "type": "uint256[]"
        }
      ],
      "stateMutability": "view",
      "type": "function"
    },
    {
      "inputs": [
        {
          "internalType": "address",
          "name": "_user",
          "type": "address"
        }
      ],
      "name": "getEntriesByUser",
      "outputs": [
        {
          "internalType": "uint256[]",
          "name": "",
          "type": "uint256[]"
        }
      ],
      "stateMutability": "view",
      "type": "function"
    },
    {
      "inputs": [
        {
          "internalType": "uint256",
          "name": "_entry",
          "type": "uint256"
        }
      ],
      "name": "getEntryData",
      "outputs": [
        {
          "internalType": "enum ActionsStorageV1_0.Actions",
          "name": "",
          "type": "uint8"
        },
        {
          "internalType": "address",
          "name": "",
          "type": "address"
        },
        {
          "internalType": "address",
          "name": "",
          "type": "address"
        },
        {
          "internalType": "uint256[]",
          "name": "",
          "type": "uint256[]"
        },
        {
          "internalType": "uint256",
          "name": "",
          "type": "uint256"
        },
        {
          "internalType": "uint256",
          "name": "",
          "type": "uint256"
        },
        {
          "internalType": "address[]",
          "name": "",
          "type": "address[]"
        },
        {
          "internalType": "bool",
          "name": "",
          "type": "bool"
        },
        {
          "internalType": "bool",
          "name": "",
          "type": "bool"
        },
        {
          "internalType": "uint256",
          "name": "",
          "type": "uint256"
        },
        {
          "internalType": "uint256",
          "name": "",
          "type": "uint256"
        }
      ],
      "stateMutability": "view",
      "type": "function"
    },
    {
      "inputs": [
        {
          "internalType": "uint256",
          "name": "_entry",
          "type": "uint256"
        }
      ],
      "name": "getNumOfValidations",
      "outputs": [
        {
          "internalType": "uint256",
          "name": "",
          "type": "uint256"
        }
      ],
      "stateMutability": "view",
      "type": "function"
    },
    {
      "inputs": [
        {
          "internalType": "uint256",
          "name": "_entry",
          "type": "uint256"
        },
        {
          "internalType": "uint256",
          "name": "_pos",
          "type": "uint256"
        }
      ],
      "name": "getValidation",
      "outputs": [
        {
          "internalType": "address",
          "name": "",
          "type": "address"
        },
        {
          "internalType": "address",
          "name": "",
          "type": "address"
        },
        {
          "internalType": "uint256",
          "name": "",
          "type": "uint256"
        }
      ],
      "stateMutability": "view",
      "type": "function"
    },
    {
      "inputs": [
        {
          "internalType": "address",
          "name": "_user",
          "type": "address"
        },
        {
          "internalType": "uint256",
          "name": "_entry",
          "type": "uint256"
        }
      ],
      "name": "userHasValidated",
      "outputs": [
        {
          "internalType": "bool",
          "name": "",
          "type": "bool"
        }
      ],
      "stateMutability": "view",
      "type": "function"
    },
    {
      "inputs": [
        {
          "internalType": "uint256",
          "name": "_entry",
          "type": "uint256"
        }
      ],
      "name": "userCanValidate",
      "outputs": [
        {
          "internalType": "bool",
          "name": "",
          "type": "bool"
        }
      ],
      "stateMutability": "view",
      "type": "function"
    },
    {
      "inputs": [
        {
          "internalType": "address[]",
          "name": "self",
          "type": "address[]"
        },
        {
          "internalType": "address",
          "name": "value",
          "type": "address"
        }
      ],
      "name": "indexOf",
      "outputs": [
        {
          "internalType": "uint8",
          "name": "",
          "type": "uint8"
        }
      ],
      "stateMutability": "pure",
      "type": "function"
    },
    {
      "inputs": [],
      "name": "getResourceActionsContract",
      "outputs": [
        {
          "internalType": "address",
          "name": "",
          "type": "address"
        }
      ],
      "stateMutability": "view",
      "type": "function"
    },
    {
      "inputs": [],
      "name": "getERC721Contract",
      "outputs": [
        {
          "internalType": "address",
          "name": "",
          "type": "address"
        }
      ],
      "stateMutability": "view",
      "type": "function"
    },
    {
      "inputs": [],
      "name": "getCompaniesContract",
      "outputs": [
        {
          "internalType": "address",
          "name": "",
          "type": "address"
        }
      ],
      "stateMutability": "view",
      "type": "function"
    }
  ],
  "bytecode": "0x6080604052600060095534801561001557600080fd5b5061001f33610024565b610046565b600080546001600160a01b0319166001600160a01b0392909216919091179055565b61305680620000566000396000f3fe608060405234801561001057600080fd5b50600436106101c45760003560e01c80639fce5c8e116100f9578063c98f81ab11610097578063f2fde38b11610071578063f2fde38b14610a76578063f7c8941f14610a9c578063fdc34d2a14610b3d578063fe07ba4f14610b69576101c4565b8063c98f81ab14610a25578063d85e030c14610a2d578063e2146de814610a59576101c4565b8063b326b825116100d3578063b326b8251461096a578063b6f8aa9a146109ef578063c47d01a514610a15578063c56551b614610a1d576101c4565b80639fce5c8e14610705578063a2b2e7ee146107c7578063ad723673146108f4576101c4565b8063612d16b21161016657806385b5450d1161014057806385b5450d146106625780638da5cb5b146106a05780639a8d78f6146106a85780639aa4de26146106e8576101c4565b8063612d16b2146103e85780637f4d31561461040c5780637f59e08f14610537576101c4565b806331ee488b116101a257806331ee488b1461025b57806346e594c914610281578063485cc955146103975780634b5a82d1146103c5576101c4565b8063094144a5146101c957806328d011fe146101f15780632deda9fb1461023e575b600080fd5b6101ef600480360360208110156101df57600080fd5b50356001600160a01b0316610b86565b005b6102146004803603604081101561020757600080fd5b5080359060200135610c66565b604080516001600160a01b0394851681529290931660208301528183015290519081900360600190f35b6101ef6004803603602081101561025457600080fd5b5035610ce3565b6101ef6004803603602081101561027157600080fd5b50356001600160a01b0316610fd2565b61029e6004803603602081101561029757600080fd5b503561113a565b604051808c60098111156102ae57fe5b81526020018b6001600160a01b031681526020018a6001600160a01b0316815260200180602001898152602001888152602001806020018715158152602001861515815260200185815260200184815260200183810383528b818151815260200191508051906020019060200280838360005b83811015610339578181015183820152602001610321565b50505050905001838103825288818151815260200191508051906020019060200280838360005b83811015610378578181015183820152602001610360565b505050509050019d505050505050505050505050505060405180910390f35b6101ef600480360360408110156103ad57600080fd5b506001600160a01b0381358116916020013516611333565b610214600480360360408110156103db57600080fd5b5080359060200135611476565b6103f06114c0565b604080516001600160a01b039092168252519081900360200190f35b6101ef6004803603606081101561042257600080fd5b810190602081018135600160201b81111561043c57600080fd5b82018360208201111561044e57600080fd5b803590602001918460208302840111600160201b8311171561046f57600080fd5b91908080602002602001604051908101604052809392919081815260200183836020028082843760009201919091525092958435959094909350604081019250602001359050600160201b8111156104c657600080fd5b8201836020820111156104d857600080fd5b803590602001918460208302840111600160201b831117156104f957600080fd5b9190808060200260200160405190810160405280939291908181526020018383602002808284376000920191909152509295506114cf945050505050565b6101ef6004803603606081101561054d57600080fd5b810190602081018135600160201b81111561056757600080fd5b82018360208201111561057957600080fd5b803590602001918460208302840111600160201b8311171561059a57600080fd5b91908080602002602001604051908101604052809392919081815260200183836020028082843760009201919091525092958435959094909350604081019250602001359050600160201b8111156105f157600080fd5b82018360208201111561060357600080fd5b803590602001918460208302840111600160201b8311171561062457600080fd5b91908080602002602001604051908101604052809392919081815260200183836020028082843760009201919091525092955061182d945050505050565b61068e6004803603604081101561067857600080fd5b506001600160a01b0381351690602001356119fc565b60408051918252519081900360200190f35b6103f0611a2a565b6106d4600480360360408110156106be57600080fd5b506001600160a01b038135169060200135611a39565b604080519115158252519081900360200190f35b61068e600480360360208110156106fe57600080fd5b5035611a67565b6107b16004803603604081101561071b57600080fd5b810190602081018135600160201b81111561073557600080fd5b82018360208201111561074757600080fd5b803590602001918460208302840111600160201b8311171561076857600080fd5b919080806020026020016040519081016040528093929190818152602001838360200280828437600092019190915250929550505090356001600160a01b03169150611a799050565b6040805160ff9092168252519081900360200190f35b6101ef600480360360808110156107dd57600080fd5b810190602081018135600160201b8111156107f757600080fd5b82018360208201111561080957600080fd5b803590602001918460208302840111600160201b8311171561082a57600080fd5b91908080602002602001604051908101604052809392919081815260200183836020028082843760009201919091525092958435959094909350604081019250602001359050600160201b81111561088157600080fd5b82018360208201111561089357600080fd5b803590602001918460208302840111600160201b831117156108b457600080fd5b9190808060200260200160405190810160405280939291908181526020018383602002808284376000920191909152509295505091359250611ad2915050565b61091a6004803603602081101561090a57600080fd5b50356001600160a01b0316611c0f565b60408051602080825283518183015283519192839290830191858101910280838360005b8381101561095657818101518382015260200161093e565b505050509050019250505060405180910390f35b6109876004803603602081101561098057600080fd5b5035611c7b565b604051808a600981111561099757fe5b81526001600160a01b03998a166020820152979098166040808901919091526060880196909652608087019490945291151560a0860152151560c085015260e084015261010083015251908190036101200192509050f35b61091a60048036036020811015610a0557600080fd5b50356001600160a01b0316611cd8565b6103f0611d42565b61068e611d51565b6103f0611d57565b61068e60048036036040811015610a4357600080fd5b506001600160a01b038135169060200135611d66565b6101ef60048036036020811015610a6f57600080fd5b5035611d7f565b6101ef60048036036020811015610a8c57600080fd5b50356001600160a01b0316611ebb565b6101ef60048036036020811015610ab257600080fd5b810190602081018135600160201b811115610acc57600080fd5b820183602082011115610ade57600080fd5b803590602001918460208302840111600160201b83111715610aff57600080fd5b919080806020026020016040519081016040528093929190818152602001838360200280828437600092019190915250929550611fc8945050505050565b6106d460048036036040811015610b5357600080fd5b506001600160a01b0381351690602001356122e2565b6106d460048036036020811015610b7f57600080fd5b5035612302565b610b8e611a2a565b6001600160a01b0316336001600160a01b031614610be9576040805162461bcd60e51b815260206004820152601360248201527239b2b73232b91034b9903737ba1037bbb732b960691b604482015290519081900360640190fd5b6001600160a01b038116610c44576040805162461bcd60e51b815260206004820152601b60248201527f45524337323120636f6e74726163742063616e6e6f7420626520300000000000604482015290519081900360640190fd5b600280546001600160a01b0319166001600160a01b0392909216919091179055565b6000806000610c73612d9c565b6000868152600460205260409020805486908110610c8d57fe5b60009182526020918290206040805160608101825260039390930290910180546001600160a01b039081168085526001830154909116948401859052600290910154929091018290529891975095509350505050565b33610ced816124c8565b610d285760405162461bcd60e51b8152600401808060200182810382526027815260200180612f836027913960400191505060405180910390fd5b33600090815260056020908152604080832085845290915290205460ff1615610d98576040805162461bcd60e51b815260206004820152601760248201527f557365722068617320616c7265616479207369676e6564000000000000000000604482015290519081900360640190fd5b6000610da33361254b565b9050610dad612dbc565b60008481526008602052604090819020815161016081019092528054829060ff166009811115610dd957fe5b6009811115610de457fe5b815281546001600160a01b03610100909104811660208084019190915260018401549091166040808401919091526002840180548251818502810185019093528083526060909401939192909190830182828015610e6157602002820191906000526020600020905b815481526020019060010190808311610e4d575b50505050508152602001600382015481526020016004820154815260200160058201805480602002602001604051908101604052809291908181526020018280548015610ed757602002820191906000526020600020905b81546001600160a01b03168152600190910190602001808311610eb9575b5050509183525050600682015460ff8082161515602084015261010090910416151560408201526007820154606082015260089091015460809091015260c08101519091506000610f288285611a79565b60ff1610610fcb57600085815260046020908152604080832081516060810183526001600160a01b0380891682523382860181815242848701908152855460018181018855968a52888a209551600390910290950180549585166001600160a01b031996871617815591518287018054919095169516949094179092559151600290910155845260058352818420898552909252909120805460ff191690911790555b5050505050565b610fda611a2a565b6001600160a01b0316336001600160a01b031614611035576040805162461bcd60e51b815260206004820152601360248201527239b2b73232b91034b9903737ba1037bbb732b960691b604482015290519081900360640190fd5b6001600160a01b038116611090576040805162461bcd60e51b815260206004820152601e60248201527f436f6d70616e69657320636f6e74726163742063616e6e6f7420626520300000604482015290519081900360640190fd5b600180546001600160a01b0319166001600160a01b0383811691909117918290556040805163c47d01a560e01b81529051929091169163c47d01a591600480820192602092909190829003018186803b1580156110ec57600080fd5b505afa158015611100573d6000803e3d6000fd5b505050506040513d602081101561111657600080fd5b5051600380546001600160a01b0319166001600160a01b0390921691909117905550565b600080600060606000806060600080600080611154612dbc565b60008d81526008602052604090819020815161016081019092528054829060ff16600981111561118057fe5b600981111561118b57fe5b815281546001600160a01b0361010090910481166020808401919091526001840154909116604080840191909152600284018054825181850281018501909352808352606090940193919290919083018282801561120857602002820191906000526020600020905b8154815260200190600101908083116111f4575b5050505050815260200160038201548152602001600482015481526020016005820180548060200260200160405190810160405280929190818152602001828054801561127e57602002820191906000526020600020905b81546001600160a01b03168152600190910190602001808311611260575b505050505081526020016006820160009054906101000a900460ff161515151581526020016006820160019054906101000a900460ff16151515158152602001600782015481526020016008820154815250509050806000015181602001518260400151836060015184608001518560a001518660c001518760e001518861010001518961012001518a61014001519b509b509b509b509b509b509b509b509b509b509b505091939597999b90929496989a50565b600a5460ff161561138b576040805162461bcd60e51b815260206004820152601b60248201527f636f6e7261637420616c726561647920696e697469616c697a65640000000000604482015290519081900360640190fd5b6001600160a01b0382166113e6576040805162461bcd60e51b815260206004820152601d60248201527f4d756c746973696720636f6e74726163742063616e6e6f742062652030000000604482015290519081900360640190fd5b6001600160a01b038116611441576040805162461bcd60e51b815260206004820152601b60248201527f45524337323120636f6e74726163742063616e6e6f7420626520300000000000604482015290519081900360640190fd5b600280546001600160a01b0319166001600160a01b0383161790556114658261259c565b5050600a805460ff19166001179055565b6004602052816000526040600020818154811061148f57fe5b60009182526020909120600390910201805460018201546002909201546001600160a01b0391821694509116915083565b6002546001600160a01b031690565b336114d9816124c8565b6115145760405162461bcd60e51b8152600401808060200182810382526027815260200180612f836027913960400191505060405180910390fd5b61151c6125be565b61155e576040805162461bcd60e51b815260206004820152600e60248201526d139bdd08185d5d1a1bdc9a5e995960921b604482015290519081900360640190fd5b60008451116115a7576040805162461bcd60e51b815260206004820152601060248201526f139bc81d5a591cc81c1c9bdd9a59195960821b604482015290519081900360640190fd5b600083116115e65760405162461bcd60e51b815260040180806020018281038252602a815260200180612f59602a913960400191505060405180910390fd5b60008251116116265760405162461bcd60e51b8152600401808060200182810382526029815260200180612ff86029913960400191505060405180910390fd5b60006116313361254b565b90506001600160a01b03811661167c576040805162461bcd60e51b815260206004820152601b6024820152600080516020612faa833981519152604482015290519081900360640190fd5b6009805460019081018083556001600160a01b03841660008181526006602090815260408083208054808801825590845282842001949094553380835260078252848320875481548089018355918552838520909101558451610160810186528781528083019490945283850152606083018b905242608084015260a083018a905260c0830189905260e0830182905261010083018290526101208301829052610140830182905285548252600890529190912081518154929491939092849260ff19919091169190849081111561175057fe5b02179055506020828101518254610100600160a81b0319166101006001600160a01b039283160217835560408401516001840180546001600160a01b03191691909216179055606083015180516117ad9260028501920190612e2d565b506080820151600382015560a0820151600482015560c082015180516117dd916005840191602090910190612e78565b5060e08201516006820180546101008086015115150261ff001993151560ff1990921691909117929092169190911790556101208201516007820155610140909101516008909101555050505050565b33611837816124c8565b6118725760405162461bcd60e51b8152600401808060200182810382526027815260200180612f836027913960400191505060405180910390fd5b61187a6126be565b6118bc576040805162461bcd60e51b815260206004820152600e60248201526d139bdd08185d5d1a1bdc9a5e995960921b604482015290519081900360640190fd5b60006118c73361254b565b90506001600160a01b038116611912576040805162461bcd60e51b815260206004820152601b6024820152600080516020612faa833981519152604482015290519081900360640190fd5b6000855111611968576040805162461bcd60e51b815260206004820152601960248201527f6e6f207265736f757263657320746f207472616e73706f727400000000000000604482015290519081900360640190fd5b60005b85518110156119ea576119918287838151811061198457fe5b602002602001015161270b565b6119e2576040805162461bcd60e51b815260206004820152601a60248201527f546f6b656e204f776e6572206973206e6f7420636f6d70616e79000000000000604482015290519081900360640190fd5b60010161196b565b50610fcb81600187878760008061279a565b60076020528160005260406000208181548110611a1557fe5b90600052602060002001600091509150505481565b6000546001600160a01b031690565b6001600160a01b038216600090815260056020908152604080832084845290915290205460ff165b92915050565b60009081526004602052604090205490565b6000805b83518160ff1611611ac757826001600160a01b0316848260ff1681518110611aa157fe5b60200260200101516001600160a01b03161415611abf579050611a61565b600101611a7d565b506000199392505050565b33611adc816124c8565b611b175760405162461bcd60e51b8152600401808060200182810382526027815260200180612f836027913960400191505060405180910390fd5b60008211611b565760405162461bcd60e51b8152600401808060200182810382526021815260200180612f0e6021913960400191505060405180910390fd5b611b5e612d04565b611ba0576040805162461bcd60e51b815260206004820152600e60248201526d139bdd08185d5d1a1bdc9a5e995960921b604482015290519081900360640190fd5b6000611bab3361254b565b90506001600160a01b038116611bf6576040805162461bcd60e51b815260206004820152601b6024820152600080516020612faa833981519152604482015290519081900360640190fd5b611c0781600288888860008961279a565b505050505050565b6001600160a01b038116600090815260076020908152604091829020805483518184028101840190945280845260609392830182828015611c6f57602002820191906000526020600020905b815481526020019060010190808311611c5b575b50505050509050919050565b6008602081905260009182526040909120805460018201546003830154600484015460068501546007860154959096015460ff808616976001600160a01b0361010097889004811698961696949593948183169491049091169189565b6001600160a01b038116600090815260066020908152604091829020805483518184028101840190945280845260609392830182828015611c6f5760200282019190600052602060002090815481526020019060010190808311611c5b5750505050509050919050565b6003546001600160a01b031690565b60095481565b6001546001600160a01b031690565b60066020528160005260406000208181548110611a1557fe5b611d87611a2a565b6001600160a01b0316336001600160a01b031614611de2576040805162461bcd60e51b815260206004820152601360248201527239b2b73232b91034b9903737ba1037bbb732b960691b604482015290519081900360640190fd5b60008181526008602052604090206006810154610100900460ff1615611e4f576040805162461bcd60e51b815260206004820152601f60248201527f456e7472792068617320616c7265616479206265656e20617070726f76656400604482015290519081900360640190fd5b600681015460ff16611ea8576040805162461bcd60e51b815260206004820181905260248201527f4d756c746973696720617070726f7665206973206e6f74207265717569726564604482015290519081900360640190fd5b600601805461ff00191661010017905550565b611ec3611a2a565b6001600160a01b0316336001600160a01b031614611f1e576040805162461bcd60e51b815260206004820152601360248201527239b2b73232b91034b9903737ba1037bbb732b960691b604482015290519081900360640190fd5b6001600160a01b038116611f71576040805162461bcd60e51b815260206004820152601560248201527406e6577206f776e65722063616e6e6f74206265203605c1b604482015290519081900360640190fd5b7f8be0079c531659141344cd1fd0a4f28419497f9722a3daafe3b4186f6b6457e0611f9a611a2a565b604080516001600160a01b03928316815291841660208301528051918290030190a1611fc58161259c565b50565b33611fd2816124c8565b61200d5760405162461bcd60e51b8152600401808060200182810382526027815260200180612f836027913960400191505060405180910390fd5b612015612d4f565b612057576040805162461bcd60e51b815260206004820152600e60248201526d139bdd08185d5d1a1bdc9a5e995960921b604482015290519081900360640190fd5b60008251116120a0576040805162461bcd60e51b815260206004820152601060248201526f139bc81d5a591cc81c1c9bdd9a59195960821b604482015290519081900360640190fd5b60006120ab3361254b565b90506001600160a01b0381166120f6576040805162461bcd60e51b815260206004820152601b6024820152600080516020612faa833981519152604482015290519081900360640190fd5b60408051600180825281830190925260609160208083019080368337019050509050818160008151811061212657fe5b6001600160a01b0392831660209182029290920181019190915260098054600190810180835593861660008181526006855260408082208054808601825590835286832001969096553380825260078652868220855481548087018355918452878420909101558651610160810188528281528087019390935282870152606082018a905242608083015260a0820183905260c0820187905260e08201839052610100820181905261012082018190526101408201819052835481526008909452939092208351815491939092849260ff19169190849081111561220657fe5b02179055506020828101518254610100600160a81b0319166101006001600160a01b039283160217835560408401516001840180546001600160a01b03191691909216179055606083015180516122639260028501920190612e2d565b506080820151600382015560a0820151600482015560c08201518051612293916005840191602090910190612e78565b5060e08201516006820180546101008086015115150261ff001993151560ff19909216919091179290921691909117905561012082015160078201556101409091015160089091015550505050565b600560209081526000928352604080842090915290825290205460ff1681565b60008061230e3361254b565b9050612318612dbc565b60008481526008602052604090819020815161016081019092528054829060ff16600981111561234457fe5b600981111561234f57fe5b815281546001600160a01b036101009091048116602080840191909152600184015490911660408084019190915260028401805482518185028101850190935280835260609094019391929091908301828280156123cc57602002820191906000526020600020905b8154815260200190600101908083116123b8575b5050505050815260200160038201548152602001600482015481526020016005820180548060200260200160405190810160405280929190818152602001828054801561244257602002820191906000526020600020905b81546001600160a01b03168152600190910190602001808311612424575b5050509183525050600682015460ff8082161515602084015261010090910416151560408201526007820154606082015260089091015460809091015260c081015190915060006124938285611a79565b60ff16101580156124bf575033600090815260056020908152604080832088845290915290205460ff16155b95945050505050565b60035460408051636c88a12f60e01b81526001600160a01b03848116600483015291516000939290921691636c88a12f91602480820192602092909190829003018186803b15801561251957600080fd5b505afa15801561252d573d6000803e3d6000fd5b505050506040513d602081101561254357600080fd5b505192915050565b60035460408051631401835d60e11b81526001600160a01b0384811660048301529151600093929092169163280306ba91602480820192602092909190829003018186803b15801561251957600080fd5b600080546001600160a01b0319166001600160a01b0392909216919091179055565b60015460408051631f5a18ad60e31b815290516000926001600160a01b031691636034c19991839163fad0c568916004808301926020929190829003018186803b15801561260b57600080fd5b505afa15801561261f573d6000803e3d6000fd5b505050506040513d602081101561263557600080fd5b50516040516001600160e01b031960e084901b16815233906004018083600981111561265d57fe5b8152602001826001600160a01b031681526020019250505060206040518083038186803b15801561268d57600080fd5b505afa1580156126a1573d6000803e3d6000fd5b505050506040513d60208110156126b757600080fd5b5051905090565b600154604080516366f00f7960e11b815290516000926001600160a01b031691636034c19991839163cde01ef2916004808301926020929190829003018186803b15801561260b57600080fd5b6002546040805163620d1b0560e11b81526004810184905290516000926001600160a01b038087169391169163c41a360a91602480820192602092909190829003018186803b15801561275d57600080fd5b505afa158015612771573d6000803e3d6000fd5b505050506040513d602081101561278757600080fd5b50516001600160a01b0316149392505050565b60008551116127e3576040805162461bcd60e51b815260206004820152601060248201526f139bc81d5a591cc81c1c9bdd9a59195960821b604482015290519081900360640190fd5b600184116128225760405162461bcd60e51b815260040180806020018281038252602a815260200180612f2f602a913960400191505060405180910390fd5b60008351116128625760405162461bcd60e51b8152600401808060200182810382526029815260200180612ff86029913960400191505060405180910390fd5b6009805460019081018083556001600160a01b038a166000908152600660209081526040808320805480870182559084528284200193909355338252600781528282208554815495860182559083529120909201919091558051610160810190915290819088908111156128d257fe5b8152602001886001600160a01b03168152602001336001600160a01b031681526020018681526020014281526020018581526020018481526020016000151581526020016000151581526020018381526020018281525060086000600954815260200190815260200160002060008201518160000160006101000a81548160ff0219169083600981111561296257fe5b02179055506020828101518254610100600160a81b0319166101006001600160a01b039283160217835560408401516001840180546001600160a01b03191691909216179055606083015180516129bf9260028501920190612e2d565b506080820151600382015560a0820151600482015560c082015180516129ef916005840191602090910190612e78565b5060e08201516006820180546101008086015115150261ff001993151560ff1990921691909117929092169190911790556101208201516007820155610140909101516008909101558015612cfb578460405160200180828051906020019060200280838360005b83811015612a6f578181015183820152602001612a57565b505050509050019150506040516020818303038152906040528051906020012060086000838152602001908152602001600020600201604051602001808280548015612ada57602002820191906000526020600020905b815481526020019060010190808311612ac6575b50509150506040516020818303038152906040528051906020012014612b3b576040805162461bcd60e51b815260206004820152601160248201527055696473206e6f74206d61746368696e6760781b604482015290519081900360640190fd5b600160008281526008602052604090205460ff166009811115612b5a57fe5b14612ba5576040805162461bcd60e51b81526020600482015260166024820152750456e7472792073686f756c64206265205069636b55760541b604482015290519081900360640190fd5b60008181526008602052604090206007015415612c09576040805162461bcd60e51b815260206004820152601760248201527f696e7075744f6620616c726561647920646566696e6564000000000000000000604482015290519081900360640190fd5b6000805b600083815260086020526040902060050154811015612c7b57600083815260086020526040902060050180546001600160a01b038b16919083908110612c4f57fe5b6000918252602090912001546001600160a01b03161415612c735760019150612c7b565b600101612c0d565b5080612cb85760405162461bcd60e51b815260040180806020018281038252602e815260200180612fca602e913960400191505060405180910390fd5b506009546000828152600860209081526040808320600781018590555461010090046001600160a01b031683526006825282208054600181018255908352912001555b50505050505050565b60015460408051621df0af60e01b815290516000926001600160a01b031691636034c199918391621df0af916004808301926020929190829003018186803b15801561260b57600080fd5b6001546040805163aae1edb560e01b815290516000926001600160a01b031691636034c19991839163aae1edb5916004808301926020929190829003018186803b15801561260b57600080fd5b604080516060810182526000808252602082018190529181019190915290565b604080516101608101909152806000815260200160006001600160a01b0316815260200160006001600160a01b031681526020016060815260200160008152602001600081526020016060815260200160001515815260200160001515815260200160008152602001600081525090565b828054828255906000526020600020908101928215612e68579160200282015b82811115612e68578251825591602001919060010190612e4d565b50612e74929150612ed9565b5090565b828054828255906000526020600020908101928215612ecd579160200282015b82811115612ecd57825182546001600160a01b0319166001600160a01b03909116178255602090920191600190910190612e98565b50612e74929150612eee565b5b80821115612e745760008155600101612eda565b5b80821115612e745780546001600160a01b0319168155600101612eef56fe43616e6e6f742064726f706f666620776974686f7574207069636b696e672075705265717569726564207369676e617475726573206d7573742062652067726561746572207468616e20315265717569726564207369676e617475726573206d7573742062652067726561746572207468616e20304f6e6c7920436f6d70616e792063616e20706572666f726d2074686973206f7065726174696f6e436f6d70616e7920616464726573732063616e6e6f7420626520300000000000436f6d70616e79206973206e6f7420616c6c6f77656420746f20706572666f726d20746869732064726f704f6666526571756972656420636f6d70616e696573206d7573742062652067726561746572207468616e2030a2646970667358221220c54b3a2f835841f1e7121586323c88f5fa132f159171bd5947677a316364eb8064736f6c63430007000033",
  "immutableReferences": {},
  "source": "// SPDX-License-Identifier: MIT\n\npragma solidity >=0.7.0 <0.8.0;\n\nimport \"../Ownable.sol\";\nimport \"./ResourceActionsV1_0.sol\";\nimport \"./CompaniesV1_0.sol\";\nimport \"./ERC721BeefLedgerV1_0.sol\";\n\ncontract ActionsStorageV1_0 is Ownable {\n\n    enum Actions {\n        PRODUCE,\n        PICK_UP,\n        DROP_OFF,\n        MODIFY,\n        MOVE,\n        TRANSFER_COMPLETE,\n        ACCEPT,\n        TRANSFER_CUSTODY,\n        TRANSFER_ALL_RIGHTS,\n        MEASURE\n    }\n\n    ResourceActionsV1_0 internal resourceActionsV1_0;\n    ERC721BeefLedgerV1_0 internal erc721V1_0;\n    CompaniesV1_0 internal companiesV1_0;\n    \n\n    struct EntryType {\n        Actions entryType;\n        address company;\n        address signatorie;\n        uint256[] uids;\n        uint256 timestamp;\n        uint256 required;\n        address[] allowedCompanies;\n        bool requiresMultisig;\n        bool approved;\n        uint256 inputOf;\n        uint256 outputOf;\n    }\n\n    struct Validation {\n        address company;\n        address signatorie;\n        uint256 timestamp;\n    }\n\n    ///@dev entry => Validation[]\n    mapping(uint256 => Validation[]) public validations;\n\n    ///@dev signatorie => (entry => hasVerified);\n    mapping(address => mapping(uint256 => bool)) public verifiedEntry;\n\n    ///@dev entry => user\n    // mapping(uint256 => address) public userByEntry;\n\n    ///@dev companyAddress => pos\n    mapping(address => uint256[]) public entriesByCompany;\n\n    ///@dev userAddress => pos\n    mapping(address => uint256[]) public entriesByUser;\n\n    ///@dev entry => EntryType\n    mapping(uint256 => EntryType) public dataByEntry;\n\n    uint256 public pos = 0;\n\n    //upgradability\n    bool internal _initialized;\n\n    /*\n     *  Modifiers\n     */\n    modifier authorization(address sender) {\n        require(isSignatorieAuthorized(sender), \"Only Company can perform this operation\");\n        _;\n    }\n\n    function initialize(address _multiSigWallet, address _erc721) public {\n        require(!_initialized, \"conract already initialized\");\n        require(_multiSigWallet != address(0), \"Multisig contract cannot be 0\");\n        require(_erc721 != address(0), \"ERC721 contract cannot be 0\");\n        erc721V1_0 = ERC721BeefLedgerV1_0(_erc721);\n        setOwner(_multiSigWallet);\n        _initialized = true;\n    }\n\n    function setResourceActionsContract(address _resourceActions) virtual public onlyOwner {\n        require(_resourceActions != address(0), \"Companies contract cannot be 0\");\n        resourceActionsV1_0 = ResourceActionsV1_0(_resourceActions);\n        companiesV1_0 = CompaniesV1_0(resourceActionsV1_0.getCompaniesContract());\n    }\n\n    function setERC721(address _erc721) virtual public onlyOwner {\n        require(_erc721 != address(0), \"ERC721 contract cannot be 0\");\n        erc721V1_0 = ERC721BeefLedgerV1_0(_erc721);\n    }\n\n    function approveProduce(uint256 _entry) virtual public onlyOwner {\n        EntryType storage entry = dataByEntry[_entry];\n        require(!entry.approved, \"Entry has already been approved\");\n        require(entry.requiresMultisig, \"Multisig approve is not required\");\n        entry.approved = true;\n    }\n\n    function produce(uint256[] memory _uids) virtual public authorization(msg.sender) {\n        require(getProducePermission(), \"Not authorized\");\n        require(_uids.length > 0, \"No uids provided\");\n        address companyAddress = getCompanyBySignatorie(msg.sender);\n        require(companyAddress != address(0), \"Company address cannot be 0\");\n        address[] memory companiesArray = new address[](1);\n        companiesArray[0] = companyAddress;\n        pos = pos + 1;\n        entriesByCompany[companyAddress].push(pos);\n        entriesByUser[msg.sender].push(pos);\n        dataByEntry[pos] = EntryType({\n            entryType: Actions.PRODUCE,\n            company: companyAddress,\n            signatorie: msg.sender,\n            uids: _uids,\n            timestamp: block.timestamp,\n            required: 1,\n            allowedCompanies: companiesArray,\n            requiresMultisig: true,\n            approved: false,\n            inputOf: 0,\n            outputOf: 0\n        });\n    }\n\n\n    function measure(uint256[] memory _uids, uint256 _required, address[] memory _companies) virtual public authorization(msg.sender) {\n        require(getMeasurePermission(), \"Not authorized\");\n        require(_uids.length > 0, \"No uids provided\");\n        require(_required > 0, \"Required signatures must be greater than 0\");\n        require(_companies.length > 0, \"Required companies must be greater than 0\");\n        address companyAddress = getCompanyBySignatorie(msg.sender);\n        require(companyAddress != address(0), \"Company address cannot be 0\");\n        pos = pos + 1;\n        entriesByCompany[companyAddress].push(pos);\n        entriesByUser[msg.sender].push(pos);\n        dataByEntry[pos] = EntryType({\n            entryType: Actions.MEASURE,\n            company: companyAddress,\n            signatorie: msg.sender,\n            uids: _uids,\n            timestamp: block.timestamp,\n            required: _required,\n            allowedCompanies: _companies,\n            requiresMultisig: false,\n            approved: false,\n            inputOf: 0,\n            outputOf: 0\n        });\n    }\n\n    function pickUp(uint256[] memory _uids, uint256 _required, address[] memory _allowedCompanies)\n        virtual public authorization(msg.sender) {\n            require(getPickUpPermission(), \"Not authorized\");\n            address companyAddress = getCompanyBySignatorie(msg.sender);\n            require(companyAddress != address(0), \"Company address cannot be 0\");\n            require(_uids.length > 0, \"no resources to transport\");\n            for (uint256 i = 0; i < _uids.length; i++) {\n                require(isCompanyOwner(companyAddress, _uids[i]), \"Token Owner is not company\");\n            }\n            transport(companyAddress, Actions.PICK_UP, _uids, _required, _allowedCompanies, 0, 0);\n    }\n\n    function dropOff(uint256[] memory _uids, uint256 _required, address[] memory _allowedCompanies,\n      uint256 _outputOf) virtual public authorization(msg.sender) {\n            require(_outputOf > 0, \"Cannot dropoff without picking up\");\n            require(getDropOffPermission(), \"Not authorized\");\n            address companyAddress = getCompanyBySignatorie(msg.sender);\n            require(companyAddress != address(0), \"Company address cannot be 0\");\n            transport(companyAddress, Actions.DROP_OFF, _uids, _required, _allowedCompanies, 0, _outputOf);\n    }\n\n    function transport(address companyAddress, Actions _entryType, uint256[] memory _uids, uint256 _required,\n      address[] memory _allowedCompanies, uint256 _inputOf, uint256 _outputOf) virtual internal {\n        require(_uids.length > 0, \"No uids provided\");\n        require(_required > 1, \"Required signatures must be greater than 1\");\n\n        //TODO: check if allowedcompanies are companies and have persmissions\n        require(_allowedCompanies.length > 0, \"Required companies must be greater than 0\");\n        pos = pos + 1;\n        entriesByCompany[companyAddress].push(pos);\n        entriesByUser[msg.sender].push(pos);\n        dataByEntry[pos] = EntryType({\n            entryType: _entryType,\n            company: companyAddress,\n            signatorie: msg.sender,\n            uids: _uids,\n            timestamp: block.timestamp,\n            required: _required,\n            allowedCompanies: _allowedCompanies,\n            requiresMultisig: false,\n            approved: false,\n            inputOf: _inputOf,\n            outputOf: _outputOf\n        });\n\n        if(_outputOf > 0) {\n            //Update the pickup action by setting inputOf equals the new entry\n            // pickup -> process(transport) -> dropoff\n            require(keccak256(abi.encodePacked(dataByEntry[_outputOf].uids)) == keccak256(abi.encodePacked(_uids)), \"Uids not matching\");\n            require(dataByEntry[_outputOf].entryType == Actions.PICK_UP, \"Entry should be PickUp\");\n            require(dataByEntry[_outputOf].inputOf == 0, \"inputOf already defined\");\n            bool isAllowed = false;\n            for(uint256 i = 0; i < dataByEntry[_outputOf].allowedCompanies.length; i++) {\n                if(dataByEntry[_outputOf].allowedCompanies[i] == companyAddress) {\n                    isAllowed = true;\n                    break;\n                }\n            }\n            require(isAllowed, \"Company is not allowed to perform this dropOff\");\n            dataByEntry[_outputOf].inputOf = pos;\n            entriesByCompany[dataByEntry[_outputOf].company].push(pos);\n        }\n    }\n\n\n\n    function validateEntry(uint256 _entry) virtual public authorization(msg.sender) {\n        require(_entry >= 0, \"entry must be greater than 0\");\n        require(!verifiedEntry[msg.sender][_entry], \"User has already signed\");\n        address companyAddress = getCompanyBySignatorie(msg.sender);\n        EntryType memory entry = dataByEntry[_entry];\n        address[] memory allowedCompanies = entry.allowedCompanies;\n       if(indexOf(allowedCompanies, companyAddress) >= 0) {\n            validations[_entry].push(\n                Validation({\n                    company: companyAddress,\n                    signatorie: msg.sender,\n                    timestamp: block.timestamp\n                })\n            );\n            verifiedEntry[msg.sender][_entry] = true;\n       }\n    }\n\n\n    /**Getters */\n\n    function getEntriesByCompany(address _company) virtual public view returns(uint256[] memory) {\n        return entriesByCompany[_company];\n    }\n\n    function getEntriesByUser(address _user) virtual public view returns(uint256[] memory) {\n        return entriesByUser[_user];\n    }\n\n    function getEntryData(uint256 _entry) virtual public view\n      returns(Actions, address, address, uint256[] memory, uint256, uint256, address[] memory, bool, bool, uint256, uint256) {\n        EntryType memory entry = dataByEntry[_entry];\n        return (\n            entry.entryType,\n            entry.company,\n            entry.signatorie,\n            entry.uids,\n            entry.timestamp,\n            entry.required,\n            entry.allowedCompanies,\n            entry.requiresMultisig,\n            entry.approved,\n            entry.inputOf,\n            entry.outputOf\n        );\n    }\n\n    function getNumOfValidations(uint256 _entry) virtual public view returns (uint256) {\n        return validations[_entry].length;\n    }\n\n    function getValidation(uint256 _entry, uint256 _pos) virtual public view returns (address, address, uint256) {\n        Validation memory validation = validations[_entry][_pos];\n        return(\n            validation.company,\n            validation.signatorie,\n            validation.timestamp\n        );\n    }\n\n    function userHasValidated(address _user, uint256 _entry) virtual public view returns (bool) {\n        return verifiedEntry[_user][_entry];\n    }\n\n    function userCanValidate(uint256 _entry) virtual public view returns (bool) {\n        address companyAddress = getCompanyBySignatorie(msg.sender);\n        EntryType memory entry = dataByEntry[_entry];\n        address[] memory allowedCompanies = entry.allowedCompanies;\n        return indexOf(allowedCompanies, companyAddress) >= 0 && !verifiedEntry[msg.sender][_entry];\n    }\n\n    function indexOf(address[] memory self, address value) virtual public pure returns (uint8) {\n        for(uint8 i = 0; i <= self.length; i++) {\n            if(self[i] == value) return i;\n        }\n        return uint8(-1);\n    }\n\n    function isCompanyOwner(address companyAddress, uint256 uid) virtual internal view returns (bool) {\n        return (erc721V1_0.getOwner(uid) == companyAddress);\n    }\n\n    function getResourceActionsContract() virtual public view returns (address) {\n        return address(resourceActionsV1_0);\n    }\n\n    function getERC721Contract() virtual public view returns (address) {\n        return address(erc721V1_0);\n    }\n\n    function getCompaniesContract() virtual public view returns (address) {\n        return address(companiesV1_0);\n    }\n\n    function getProducePermission() virtual internal view returns (bool) {\n        return resourceActionsV1_0.getPermission(resourceActionsV1_0.getProduceAction(), msg.sender);\n    }\n\n    function getMeasurePermission() virtual internal view returns (bool) {\n        return resourceActionsV1_0.getPermission(resourceActionsV1_0.getMeasureAction(), msg.sender);\n    }\n\n    function getPickUpPermission() virtual internal view returns (bool) {\n        return resourceActionsV1_0.getPermission(resourceActionsV1_0.getPickUpAction(), msg.sender);\n    }\n\n    function getDropOffPermission() virtual internal view returns (bool) {\n        return resourceActionsV1_0.getPermission(resourceActionsV1_0.getDropOffAction(), msg.sender);\n    }\n\n    function getCompanyBySignatorie(address signatorie) virtual internal view returns (address) {\n        return companiesV1_0.getCompanyBySignatorie(signatorie);\n    }\n\n    function isSignatorieAuthorized(address signatorie) virtual internal view returns (bool) {\n        return companiesV1_0.isSignatorieAuthorized(signatorie);\n    }\n\n}\n",
  "sourcePath": "/home/santiago/projects/beefledger/erc20_asset_grouping/src/ethereum/contracts/V1_0/ActionsStorageV1_0.sol",
  "compiler": {
    "name": "solc",
    "version": "0.7.0+commit.9e61f92b.Emscripten.clang"
  },
  "schemaVersion": "3.3.2",
  "updatedAt": "2021-02-08T19:42:05.954Z",
  "devdoc": {
    "kind": "dev",
    "methods": {
      "owner()": {
        "details": "Tells the address of the owner return the address of the owner"
      },
      "transferOwnership(address)": {
        "details": "Allows the current owner to transfer control of the contract to a newOwner.",
        "params": {
          "newOwner": "The address to transfer ownership to."
        }
      }
    },
    "stateVariables": {
      "dataByEntry": {
        "details": "entry => EntryType"
      },
      "entriesByCompany": {
        "details": "companyAddress => pos"
      },
      "entriesByUser": {
        "details": "userAddress => pos"
      },
      "validations": {
        "details": "entry => Validation[]"
      },
      "verifiedEntry": {
        "details": "signatorie => (entry => hasVerified);"
      }
    },
    "version": 1
  },
  "userdoc": {
    "kind": "user",
    "methods": {
      "getEntriesByCompany(address)": {
        "notice": "Getters "
      }
    },
    "version": 1
  }
}