{
  "contractName": "CompaniesV1_0",
  "abi": [
    {
      "anonymous": false,
      "inputs": [
        {
          "indexed": false,
          "internalType": "bytes32",
          "name": "lastIPFS",
          "type": "bytes32"
        },
        {
          "indexed": false,
          "internalType": "bytes32",
          "name": "newIPFS",
          "type": "bytes32"
        }
      ],
      "name": "ChangeCompanyIPFS",
      "type": "event"
    },
    {
      "anonymous": false,
      "inputs": [
        {
          "indexed": false,
          "internalType": "string",
          "name": "lastName",
          "type": "string"
        },
        {
          "indexed": false,
          "internalType": "string",
          "name": "newName",
          "type": "string"
        }
      ],
      "name": "ChangeCompanyName",
      "type": "event"
    },
    {
      "anonymous": false,
      "inputs": [
        {
          "indexed": true,
          "internalType": "address",
          "name": "company",
          "type": "address"
        },
        {
          "indexed": false,
          "internalType": "string",
          "name": "name",
          "type": "string"
        }
      ],
      "name": "NewCompany",
      "type": "event"
    },
    {
      "anonymous": false,
      "inputs": [
        {
          "indexed": true,
          "internalType": "address",
          "name": "company",
          "type": "address"
        },
        {
          "indexed": false,
          "internalType": "address",
          "name": "signatorie",
          "type": "address"
        }
      ],
      "name": "NewSignatorie",
      "type": "event"
    },
    {
      "anonymous": false,
      "inputs": [
        {
          "indexed": false,
          "internalType": "address",
          "name": "previousOwner",
          "type": "address"
        },
        {
          "indexed": false,
          "internalType": "address",
          "name": "newOwner",
          "type": "address"
        }
      ],
      "name": "OwnershipTransferred",
      "type": "event"
    },
    {
      "anonymous": false,
      "inputs": [
        {
          "indexed": true,
          "internalType": "address",
          "name": "company",
          "type": "address"
        }
      ],
      "name": "RemoveCompany",
      "type": "event"
    },
    {
      "anonymous": false,
      "inputs": [
        {
          "indexed": true,
          "internalType": "address",
          "name": "company",
          "type": "address"
        },
        {
          "indexed": false,
          "internalType": "address",
          "name": "signatorie",
          "type": "address"
        }
      ],
      "name": "RemoveSignatorie",
      "type": "event"
    },
    {
      "inputs": [
        {
          "internalType": "uint256",
          "name": "",
          "type": "uint256"
        }
      ],
      "name": "companies",
      "outputs": [
        {
          "internalType": "address",
          "name": "",
          "type": "address"
        }
      ],
      "stateMutability": "view",
      "type": "function"
    },
    {
      "inputs": [
        {
          "internalType": "bytes20",
          "name": "",
          "type": "bytes20"
        }
      ],
      "name": "companyByName",
      "outputs": [
        {
          "internalType": "address",
          "name": "",
          "type": "address"
        }
      ],
      "stateMutability": "view",
      "type": "function"
    },
    {
      "inputs": [
        {
          "internalType": "address",
          "name": "",
          "type": "address"
        }
      ],
      "name": "companyData",
      "outputs": [
        {
          "internalType": "uint256",
          "name": "createdAt",
          "type": "uint256"
        },
        {
          "internalType": "string",
          "name": "name",
          "type": "string"
        },
        {
          "internalType": "bytes32",
          "name": "ipfsLink",
          "type": "bytes32"
        }
      ],
      "stateMutability": "view",
      "type": "function"
    },
    {
      "inputs": [
        {
          "internalType": "address",
          "name": "",
          "type": "address"
        }
      ],
      "name": "isCompany",
      "outputs": [
        {
          "internalType": "bool",
          "name": "",
          "type": "bool"
        }
      ],
      "stateMutability": "view",
      "type": "function"
    },
    {
      "inputs": [],
      "name": "owner",
      "outputs": [
        {
          "internalType": "address",
          "name": "",
          "type": "address"
        }
      ],
      "stateMutability": "view",
      "type": "function"
    },
    {
      "inputs": [
        {
          "internalType": "address",
          "name": "",
          "type": "address"
        }
      ],
      "name": "signatorie",
      "outputs": [
        {
          "internalType": "address",
          "name": "",
          "type": "address"
        }
      ],
      "stateMutability": "view",
      "type": "function"
    },
    {
      "inputs": [
        {
          "internalType": "address",
          "name": "newOwner",
          "type": "address"
        }
      ],
      "name": "transferOwnership",
      "outputs": [],
      "stateMutability": "nonpayable",
      "type": "function"
    },
    {
      "inputs": [
        {
          "internalType": "address",
          "name": "_multisigWallet",
          "type": "address"
        }
      ],
      "name": "initialize",
      "outputs": [],
      "stateMutability": "nonpayable",
      "type": "function"
    },
    {
      "inputs": [
        {
          "internalType": "address",
          "name": "_company",
          "type": "address"
        },
        {
          "internalType": "string",
          "name": "_name",
          "type": "string"
        },
        {
          "internalType": "bytes32",
          "name": "_ipfsLink",
          "type": "bytes32"
        }
      ],
      "name": "addCompany",
      "outputs": [],
      "stateMutability": "nonpayable",
      "type": "function"
    },
    {
      "inputs": [
        {
          "internalType": "address",
          "name": "_company",
          "type": "address"
        }
      ],
      "name": "removeCompany",
      "outputs": [],
      "stateMutability": "nonpayable",
      "type": "function"
    },
    {
      "inputs": [
        {
          "internalType": "address",
          "name": "_signatorie",
          "type": "address"
        }
      ],
      "name": "addSignatorie",
      "outputs": [],
      "stateMutability": "nonpayable",
      "type": "function"
    },
    {
      "inputs": [
        {
          "internalType": "address",
          "name": "_signatorie",
          "type": "address"
        }
      ],
      "name": "removeSignatorie",
      "outputs": [],
      "stateMutability": "nonpayable",
      "type": "function"
    },
    {
      "inputs": [
        {
          "internalType": "string",
          "name": "_name",
          "type": "string"
        },
        {
          "internalType": "bytes32",
          "name": "_ipfsLink",
          "type": "bytes32"
        }
      ],
      "name": "setCompanyData",
      "outputs": [],
      "stateMutability": "nonpayable",
      "type": "function"
    },
    {
      "inputs": [],
      "name": "getAllCompanies",
      "outputs": [
        {
          "internalType": "address[]",
          "name": "",
          "type": "address[]"
        }
      ],
      "stateMutability": "view",
      "type": "function"
    },
    {
      "inputs": [
        {
          "internalType": "address",
          "name": "_company",
          "type": "address"
        }
      ],
      "name": "isAddressCompany",
      "outputs": [
        {
          "internalType": "bool",
          "name": "",
          "type": "bool"
        }
      ],
      "stateMutability": "view",
      "type": "function"
    },
    {
      "inputs": [
        {
          "internalType": "address",
          "name": "_signatorie",
          "type": "address"
        }
      ],
      "name": "getCompanyBySignatorie",
      "outputs": [
        {
          "internalType": "address",
          "name": "",
          "type": "address"
        }
      ],
      "stateMutability": "view",
      "type": "function"
    },
    {
      "inputs": [
        {
          "internalType": "address",
          "name": "_company",
          "type": "address"
        }
      ],
      "name": "getCompanyByAddress",
      "outputs": [
        {
          "internalType": "uint256",
          "name": "",
          "type": "uint256"
        },
        {
          "internalType": "address[]",
          "name": "",
          "type": "address[]"
        },
        {
          "internalType": "string",
          "name": "",
          "type": "string"
        },
        {
          "internalType": "bytes32",
          "name": "",
          "type": "bytes32"
        },
        {
          "internalType": "bool",
          "name": "",
          "type": "bool"
        }
      ],
      "stateMutability": "view",
      "type": "function"
    },
    {
      "inputs": [
        {
          "internalType": "string",
          "name": "_stringName",
          "type": "string"
        }
      ],
      "name": "getCompanyByName",
      "outputs": [
        {
          "internalType": "uint256",
          "name": "",
          "type": "uint256"
        },
        {
          "internalType": "address[]",
          "name": "",
          "type": "address[]"
        },
        {
          "internalType": "string",
          "name": "",
          "type": "string"
        },
        {
          "internalType": "bytes32",
          "name": "",
          "type": "bytes32"
        },
        {
          "internalType": "bool",
          "name": "",
          "type": "bool"
        }
      ],
      "stateMutability": "view",
      "type": "function"
    },
    {
      "inputs": [
        {
          "internalType": "address",
          "name": "_signatorie",
          "type": "address"
        }
      ],
      "name": "isSignatorieAuthorized",
      "outputs": [
        {
          "internalType": "bool",
          "name": "",
          "type": "bool"
        }
      ],
      "stateMutability": "view",
      "type": "function"
    }
  ],
  "bytecode": "0x608060405234801561001057600080fd5b5061001a3361001f565b610041565b600080546001600160a01b0319166001600160a01b0392909216919091179055565b611c52806100506000396000f3fe608060405234801561001057600080fd5b50600436106101215760003560e01c80638da5cb5b116100ad578063e8a06e9911610071578063e8a06e99146105e3578063edc21b0014610609578063f117dd5b14610630578063f2fde38b14610656578063fb2146c51461067c57610121565b80638da5cb5b1461042b5780639e18bf3214610433578063a0406ce2146104df578063a21d210114610505578063c4d66de8146105bd57610121565b80633614a307116100f45780633614a30714610327578063408bf4c31461034d57806369f467cd146103a55780636c88a12f146103cb578063822e4ccf1461040557610121565b806308c6ce161461012657806320ee2dcc146102a0578063280306ba146102c85780632813d19d1461030a575b600080fd5b6101cc6004803603602081101561013c57600080fd5b81019060208101813564010000000081111561015757600080fd5b82018360208201111561016957600080fd5b8035906020019184600183028401116401000000008311171561018b57600080fd5b91908080601f016020809104026020016040519081016040528093929190818152602001838380828437600092019190915250929550610724945050505050565b6040518086815260200180602001806020018581526020018415158152602001838103835287818151815260200191508051906020019060200280838360005b8381101561022457818101518382015260200161020c565b50505050905001838103825286818151815260200191508051906020019080838360005b83811015610260578181015183820152602001610248565b50505050905090810190601f16801561028d5780820380516001836020036101000a031916815260200191505b5097505050505050505060405180910390f35b6102c6600480360360208110156102b657600080fd5b50356001600160a01b0316610944565b005b6102ee600480360360208110156102de57600080fd5b50356001600160a01b0316610a41565b604080516001600160a01b039092168252519081900360200190f35b6102ee6004803603602081101561032057600080fd5b5035610a62565b6102c66004803603602081101561033d57600080fd5b50356001600160a01b0316610a89565b610355610d70565b60408051602080825283518183015283519192839290830191858101910280838360005b83811015610391578181015183820152602001610379565b505050509050019250505060405180910390f35b6102ee600480360360208110156103bb57600080fd5b50356001600160a01b0316610dd2565b6103f1600480360360208110156103e157600080fd5b50356001600160a01b0316610ded565b604080519115158252519081900360200190f35b6102c66004803603602081101561041b57600080fd5b50356001600160a01b0316610e4b565b6102ee610fee565b6104596004803603602081101561044957600080fd5b50356001600160a01b0316610ffd565b6040518084815260200180602001838152602001828103825284818151815260200191508051906020019080838360005b838110156104a257818101518382015260200161048a565b50505050905090810190601f1680156104cf5780820380516001836020036101000a031916815260200191505b5094505050505060405180910390f35b6103f1600480360360208110156104f557600080fd5b50356001600160a01b03166110a9565b6102c66004803603606081101561051b57600080fd5b6001600160a01b03823516919081019060408101602082013564010000000081111561054657600080fd5b82018360208201111561055857600080fd5b8035906020019184600183028401116401000000008311171561057a57600080fd5b91908080601f01602080910402602001604051908101604052809392919081815260200183838082843760009201919091525092955050913592506110be915050565b6102c6600480360360208110156105d357600080fd5b50356001600160a01b031661148f565b6103f1600480360360208110156105f957600080fd5b50356001600160a01b031661155b565b6102ee6004803603602081101561061f57600080fd5b50356001600160601b031916611579565b6101cc6004803603602081101561064657600080fd5b50356001600160a01b0316611594565b6102c66004803603602081101561066c57600080fd5b50356001600160a01b031661170d565b6102c66004803603604081101561069257600080fd5b8101906020810181356401000000008111156106ad57600080fd5b8201836020820111156106bf57600080fd5b803590602001918460018302840111640100000000831117156106e157600080fd5b91908080601f0160208091040260200160405190810160405280939291908181526020018383808284376000920191909152509295505091359250611817915050565b600060608060008060006003876040518082805190602001908083835b602083106107605780518252601f199092019160209182019101610741565b51815160209384036101000a60001901801990921691161790526040519190930194509192505080830381855afa15801561079f573d6000803e3d6000fd5b5050604080515160601b6001600160601b031981166000908152600560205291909120549092506001600160a01b031690506107d9611a93565b6001600160a01b0382166000908152600460209081526040918290208251608081018452815481526001820180548551818602810186019096528086529194929385810193929083018282801561085957602002820191906000526020600020905b81546001600160a01b0316815260019091019060200180831161083b575b5050509183525050600282810180546040805160206001841615610100026000190190931694909404601f810183900483028501830190915280845293810193908301828280156108eb5780601f106108c0576101008083540402835291602001916108eb565b820191906000526020600020905b8154815290600101906020018083116108ce57829003601f168201915b5050509183525050600391909101546020918201528151828201516040808501516060909501516001600160a01b03979097166000908152600290945290922054909c919b5091995092975060ff169550909350505050565b61094c610fee565b6001600160a01b0316336001600160a01b0316146109a7576040805162461bcd60e51b815260206004820152601360248201527239b2b73232b91034b9903737ba1037bbb732b960691b604482015290519081900360640190fd5b6001600160a01b0381166109f8576040805162461bcd60e51b81526020600482015260136024820152720416464726573732063616e6e6f74206265203606c1b604482015290519081900360640190fd5b6001600160a01b038116600081815260026020526040808220805460ff19169055517fbe88c8c4557539c4df9e183c2e88d920dd4b80a4d490025ae4742d93e68a66089190a250565b6001600160a01b03808216600090815260036020526040902054165b919050565b60018181548110610a6f57fe5b6000918252602090912001546001600160a01b0316905081565b3360009081526002602052604090205460ff16610ad75760405162461bcd60e51b8152600401808060200182810382526027815260200180611bd26027913960400191505060405180910390fd5b6001600160a01b038116610b32576040805162461bcd60e51b815260206004820152601e60248201527f5369676e61746f72696520616464726573732063616e6e6f7420626520300000604482015290519081900360640190fd5b6001600160a01b0381811660009081526003602052604090205416610b9e576040805162461bcd60e51b815260206004820152601a60248201527f536967616e61746f72696520646f6573206e6f74206578697374000000000000604482015290519081900360640190fd5b6001600160a01b03811660009081526002602052604090205460ff1615610bf65760405162461bcd60e51b8152600401808060200182810382526024815260200180611bf96024913960400191505060405180910390fd5b33600090815260046020526040902060018101546060906000190167ffffffffffffffff81118015610c2757600080fd5b50604051908082528060200260200182016040528015610c51578160200160208202803683370190505b5090506000805b6001840154811015610cf757846001600160a01b0316846001018281548110610c7d57fe5b6000918252602090912001546001600160a01b031614610cef57836001018181548110610ca657fe5b9060005260206000200160009054906101000a90046001600160a01b0316838381518110610cd057fe5b6001600160a01b03909216602092830291909101909101526001909101905b600101610c58565b508151610d0d9060018501906020850190611abe565b506001600160a01b03841660008181526003602090815260409182902080546001600160a01b03191690558151928352905133927f179a515b15d03b9ef8c9d00d5136747b1ec8e3a05e881306f76ea1efa15c28e792908290030190a250505050565b60606001805480602002602001604051908101604052809291908181526020018280548015610dc857602002820191906000526020600020905b81546001600160a01b03168152600190910190602001808311610daa575b5050505050905090565b6003602052600090815260409020546001600160a01b031681565b6001600160a01b03818116600090815260036020526040812054909116151580610e1b576000915050610a5d565b50506001600160a01b03908116600090815260036020908152604080832054909316825260029052205460ff1690565b3360009081526002602052604090205460ff16610e995760405162461bcd60e51b8152600401808060200182810382526027815260200180611bd26027913960400191505060405180910390fd5b6001600160a01b038116610ef4576040805162461bcd60e51b815260206004820152601e60248201527f5369676e61746f72696520616464726573732063616e6e6f7420626520300000604482015290519081900360640190fd5b6001600160a01b038181166000908152600360205260409020541615610f61576040805162461bcd60e51b815260206004820152601960248201527f5369676e61746f72696520616c72656164792065786973747300000000000000604482015290519081900360640190fd5b33600081815260046020908152604080832060018082018054918201815585528385200180546001600160a01b0388166001600160a01b03199182168117909255818652600385529483902080549095168617909455815193845290519093927f6e6698dff1aa913b3768c4b5c33d5fa32d06745dbf55d43daadabf6f3fd4bc8792908290030190a25050565b6000546001600160a01b031690565b60046020908152600091825260409182902080546002808301805486516001821615610100026000190190911692909204601f8101869004860283018601909652858252919492939092908301828280156110995780601f1061106e57610100808354040283529160200191611099565b820191906000526020600020905b81548152906001019060200180831161107c57829003601f168201915b5050505050908060030154905083565b60026020526000908152604090205460ff1681565b6110c6610fee565b6001600160a01b0316336001600160a01b031614611121576040805162461bcd60e51b815260206004820152601360248201527239b2b73232b91034b9903737ba1037bbb732b960691b604482015290519081900360640190fd5b6001600160a01b038316611172576040805162461bcd60e51b81526020600482015260136024820152720416464726573732063616e6e6f74206265203606c1b604482015290519081900360640190fd5b6001600160a01b03831660009081526002602052604090205460ff16156111e0576040805162461bcd60e51b815260206004820152601a60248201527f436f6d70616e7920697320616c72656164792063726561746564000000000000604482015290519081900360640190fd5b6000825111611236576040805162461bcd60e51b815260206004820152601c60248201527f436f6d70616e79206e616d652063616e6e6f7420626520656d70747900000000604482015290519081900360640190fd5b61123e611a93565b42815260408101839052606081018290526001600160a01b0384166000908152600260209081526040808320805460ff19166001908117909155600483529220835181558382015180518594929361129a938501920190611abe565b50604082015180516112b6916002840191602090910190611b23565b506060820151816003015590505083600560006003866040518082805190602001908083835b602083106112fb5780518252601f1990920191602091820191016112dc565b51815160209384036101000a60001901801990921691161790526040519190930194509192505080830381855afa15801561133a573d6000803e3d6000fd5b5050604080515160601b6001600160601b0319168352602080840194909452918201600090812080546001600160a01b03199081166001600160a01b03978816179091556001805480820182557fb10e2d527612073b26eecdfd717e6a320cf44b4afac2b0732d9fcbe2b7fa0cf60180548316978c1697881790558683526004865284832080820180549283018155845286842090910180548316881790558683526003865284832080549092168717909155835185815289518187015289519196957fc3f2b112abdcb6a551550962e2fb38787ae8da39172a3511d17114759d3941f2958b9550919384939284019291860191908190849084905b8381101561144e578181015183820152602001611436565b50505050905090810190601f16801561147b5780820380516001836020036101000a031916815260200191505b509250505060405180910390a25050505050565b60065460ff16156114e7576040805162461bcd60e51b815260206004820152601b60248201527f636f6e7261637420616c726561647920696e697469616c697a65640000000000604482015290519081900360640190fd5b6001600160a01b038116611542576040805162461bcd60e51b815260206004820152601c60248201527f4d756c746973696720616464726573732063616e6e6f74206265203000000000604482015290519081900360640190fd5b6006805460ff1916600117905561155881611a71565b50565b6001600160a01b031660009081526002602052604090205460ff1690565b6005602052600090815260409020546001600160a01b031681565b60006060806000806115a4611a93565b6001600160a01b0387166000908152600460209081526040918290208251608081018452815481526001820180548551818602810186019096528086529194929385810193929083018282801561162457602002820191906000526020600020905b81546001600160a01b03168152600190910190602001808311611606575b5050509183525050600282810180546040805160206001841615610100026000190190931694909404601f810183900483028501830190915280845293810193908301828280156116b65780601f1061168b576101008083540402835291602001916116b6565b820191906000526020600020905b81548152906001019060200180831161169957829003601f168201915b5050509183525050600391909101546020918201528151828201516040808501516060909501516001600160a01b038d16600090815260029095529320549199509750919550935060ff1691505091939590929450565b611715610fee565b6001600160a01b0316336001600160a01b031614611770576040805162461bcd60e51b815260206004820152601360248201527239b2b73232b91034b9903737ba1037bbb732b960691b604482015290519081900360640190fd5b6001600160a01b0381166117c3576040805162461bcd60e51b815260206004820152601560248201527406e6577206f776e65722063616e6e6f74206265203605c1b604482015290519081900360640190fd5b7f8be0079c531659141344cd1fd0a4f28419497f9722a3daafe3b4186f6b6457e06117ec610fee565b604080516001600160a01b03928316815291841660208301528051918290030190a161155881611a71565b3360009081526002602052604090205460ff166118655760405162461bcd60e51b8152600401808060200182810382526027815260200180611bd26027913960400191505060405180910390fd5b336000908152600460205260409020825115611a2657600281810180546040805160206001841615610100026000190190931694909404601f810183900483028501830190915280845260609392918301828280156119055780601f106118da57610100808354040283529160200191611905565b820191906000526020600020905b8154815290600101906020018083116118e857829003601f168201915b50508751939450611923936002870193506020890192509050611b23565b507f9d725ed88e42387def59e8eae241389f58f25a731bd75531e7fc09d63df7993e8185604051808060200180602001838103835285818151815260200191508051906020019080838360005b83811015611988578181015183820152602001611970565b50505050905090810190601f1680156119b55780820380516001836020036101000a031916815260200191505b50838103825284518152845160209182019186019080838360005b838110156119e85781810151838201526020016119d0565b50505050905090810190601f168015611a155780820380516001836020036101000a031916815260200191505b5094505050505060405180910390a1505b60038101805490839055604080518281526020810185905281517f9d4f7b957be8761cae1455896825bf7257cc315835327991b5934c25b08a155e929181900390910190a150505050565b600080546001600160a01b0319166001600160a01b0392909216919091179055565b6040518060800160405280600081526020016060815260200160608152602001600080191681525090565b828054828255906000526020600020908101928215611b13579160200282015b82811115611b1357825182546001600160a01b0319166001600160a01b03909116178255602090920191600190910190611ade565b50611b1f929150611b9d565b5090565b828054600181600116156101000203166002900490600052602060002090601f016020900481019282601f10611b6457805160ff1916838001178555611b91565b82800160010185558215611b91579182015b82811115611b91578251825591602001919060010190611b76565b50611b1f929150611bbc565b5b80821115611b1f5780546001600160a01b0319168155600101611b9e565b5b80821115611b1f5760008155600101611bbd56fe4f6e6c7920436f6d70616e792063616e20706572666f726d2074686973206f7065726174696f6e43616e6e6f742072656d6f7665206f776e65722066726f6d207369676e61746f72696573a2646970667358221220b866b38f512c1074e67bf0045f5d6c0e523e2cc0f949c0ea50d13f96e29132ff64736f6c63430007000033",
  "immutableReferences": {},
  "source": "// SPDX-License-Identifier: MIT\n\npragma solidity >=0.7.0 <0.8.0;\n\nimport \"../Ownable.sol\";\n\ncontract CompaniesV1_0 is Ownable {\n\n    /*\n     *  Events\n     */\n    event NewCompany(address indexed company, string name);\n    event RemoveCompany(address indexed company);\n    event NewSignatorie(address indexed company, address signatorie);\n    event RemoveSignatorie(address indexed company, address signatorie);\n    event ChangeCompanyName(string lastName, string newName);\n    event ChangeCompanyIPFS(bytes32 lastIPFS, bytes32 newIPFS);\n\n    /*\n    * Storage\n    */\n    address[] public companies;\n\n    mapping (address => bool) public isCompany;\n\n    //address of signatorie pointing to company address\n    mapping (address => address) public signatorie;\n\n    //address of company pointing to company data\n    mapping (address => Company) public companyData;\n\n    //name of company poinintg to company data;\n    //RIPEMD-160(bytes(companyName)) => address\n    mapping (bytes20 => address) public companyByName;\n\n    //upgradability\n    bool internal _initialized;\n\n    struct Company {\n        uint256 createdAt;\n        address[] signatories;\n        string name;\n        bytes32 ipfsLink;\n    }\n\n    /*\n     *  Modifiers\n     */\n    modifier onlyCompany() {\n        require(isCompany[msg.sender], \"Only Company can perform this operation\");\n        _;\n    }\n\n    function initialize(address _multisigWallet) public {\n        require(!_initialized, \"conract already initialized\");\n        require(_multisigWallet != address(0), \"Multisig address cannot be 0\");\n        _initialized = true;\n        setOwner(_multisigWallet);\n    }\n\n    function addCompany(address _company, string memory _name, bytes32 _ipfsLink) virtual public onlyOwner {\n        require(_company != address(0), \"Address cannot be 0\");\n        require(!isCompany[_company], \"Company is already created\");\n        require(bytes(_name).length > 0, \"Company name cannot be empty\");\n        Company memory newCompany;\n        newCompany.createdAt = block.timestamp;\n        newCompany.name = _name;\n        if(_ipfsLink.length > 0) newCompany.ipfsLink = _ipfsLink;\n        isCompany[_company] = true;\n        companyData[_company] = newCompany;\n        companyByName[ripemd160(bytes(_name))] = _company;\n        companies.push(_company);\n        Company storage savedCompany = companyData[_company];\n        savedCompany.signatories.push(_company);\n        signatorie[_company] = _company;\n        emit NewCompany(_company, _name);\n    }\n\n    function removeCompany(address _company) virtual public onlyOwner {\n        require(_company != address(0), \"Address cannot be 0\");\n        isCompany[_company] = false;\n        emit RemoveCompany(_company);\n    }\n\n    function addSignatorie(address _signatorie) virtual public onlyCompany {\n        require(_signatorie != address(0), \"Signatorie address cannot be 0\");\n        require(signatorie[_signatorie] == address(0), \"Signatorie already exists\");\n        Company storage company = companyData[msg.sender];\n        company.signatories.push(_signatorie);\n        signatorie[_signatorie] = msg.sender;\n        emit NewSignatorie(msg.sender, _signatorie);\n    }\n\n    function removeSignatorie(address _signatorie) virtual public onlyCompany {\n        require(_signatorie != address(0), \"Signatorie address cannot be 0\");\n        require(signatorie[_signatorie] != address(0), \"Siganatorie does not exist\");\n        require(!isCompany[_signatorie], \"Cannot remove owner from signatories\");\n        Company storage company = companyData[msg.sender];\n        address[] memory newSignatories = new address[](company.signatories.length-1);\n        uint256 i = 0;\n        for(uint256 j = 0; j < company.signatories.length; j++) {\n            if(company.signatories[j] != _signatorie) {\n                newSignatories[i] = company.signatories[j];\n                i++;\n            }\n        }\n        company.signatories = newSignatories;\n        signatorie[_signatorie] = address(0);\n        emit RemoveSignatorie(msg.sender, _signatorie);\n    }\n\n    function setCompanyData(string memory _name, bytes32 _ipfsLink) virtual public onlyCompany {\n        Company storage company = companyData[msg.sender];\n        if (bytes(_name).length != 0) {\n            string memory lastName = company.name;\n            company.name = _name;\n            emit ChangeCompanyName(lastName, _name);\n        }\n        if (_ipfsLink.length != 0) {\n            bytes32 lastIpfs = company.ipfsLink;\n            company.ipfsLink = _ipfsLink;\n            emit ChangeCompanyIPFS(lastIpfs, _ipfsLink);\n        }\n    }\n\n    /**\n    * Getters\n    */\n\n    function getAllCompanies() virtual public view returns(address[] memory) {\n        return companies;\n    }\n\n    function isAddressCompany(address _company) virtual public view returns(bool) {\n        return isCompany[_company];\n    }\n\n    function getCompanyBySignatorie(address _signatorie) virtual public view returns(address) {\n        return signatorie[_signatorie];\n    }\n\n    function getCompanyByAddress(address _company) virtual public view\n    returns(uint256, address[] memory, string memory, bytes32, bool) {\n        Company memory company = companyData[_company];\n        return(\n            company.createdAt,\n            company.signatories,\n            company.name,\n            company.ipfsLink,\n            isCompany[_company]\n        );\n    }\n\n    function getCompanyByName(string memory _stringName) virtual public view\n    returns(uint256, address[] memory, string memory, bytes32, bool) {\n        bytes20 _name = ripemd160(bytes(_stringName));\n        address companyAddress = companyByName[_name];\n        Company memory company = companyData[companyAddress];\n        return(\n            company.createdAt,\n            company.signatories,\n            company.name,\n            company.ipfsLink,\n            isCompany[companyAddress]\n        );\n    }\n\n    function isSignatorieAuthorized(address _signatorie) virtual public view returns(bool) {\n        bool hasCompany = signatorie[_signatorie] != address(0);\n        if(!hasCompany) return false;\n        return(isCompany[signatorie[_signatorie]]);\n    }\n\n}\n",
  "sourcePath": "/home/santiago/projects/beefledger/erc20_asset_grouping/src/ethereum/contracts/V1_0/CompaniesV1_0.sol",
  "compiler": {
    "name": "solc",
    "version": "0.7.0+commit.9e61f92b.Emscripten.clang"
  },
  "schemaVersion": "3.3.2",
  "updatedAt": "2021-03-04T21:36:39.854Z",
  "devdoc": {
    "kind": "dev",
    "methods": {
      "owner()": {
        "details": "Tells the address of the owner return the address of the owner"
      },
      "transferOwnership(address)": {
        "details": "Allows the current owner to transfer control of the contract to a newOwner.",
        "params": {
          "newOwner": "The address to transfer ownership to."
        }
      }
    },
    "version": 1
  },
  "userdoc": {
    "kind": "user",
    "methods": {
      "getAllCompanies()": {
        "notice": "Getters"
      }
    },
    "version": 1
  }
}