{
  "contractName": "DealRoomHubV1_0",
  "abi": [
    {
      "anonymous": false,
      "inputs": [
        {
          "indexed": false,
          "internalType": "address",
          "name": "addr",
          "type": "address"
        }
      ],
      "name": "NewRoomEvent",
      "type": "event"
    },
    {
      "inputs": [
        {
          "components": [
            {
              "internalType": "address",
              "name": "buyer",
              "type": "address"
            },
            {
              "internalType": "address",
              "name": "seller",
              "type": "address"
            },
            {
              "internalType": "address",
              "name": "arbitrator",
              "type": "address"
            },
            {
              "internalType": "address",
              "name": "sensorApprover",
              "type": "address"
            },
            {
              "internalType": "address",
              "name": "docApprover",
              "type": "address"
            }
          ],
          "internalType": "struct DealRoomHubV1_0.MakeRoomParams",
          "name": "params",
          "type": "tuple"
        }
      ],
      "name": "makeRoom",
      "outputs": [
        {
          "internalType": "address",
          "name": "",
          "type": "address"
        }
      ],
      "stateMutability": "nonpayable",
      "type": "function"
    },
    {
      "inputs": [
        {
          "internalType": "address",
          "name": "_user",
          "type": "address"
        }
      ],
      "name": "getUserRooms",
      "outputs": [
        {
          "internalType": "address[]",
          "name": "",
          "type": "address[]"
        }
      ],
      "stateMutability": "view",
      "type": "function"
    },
    {
      "inputs": [],
      "name": "getAllRooms",
      "outputs": [
        {
          "internalType": "address[]",
          "name": "",
          "type": "address[]"
        }
      ],
      "stateMutability": "view",
      "type": "function"
    },
    {
      "inputs": [
        {
          "internalType": "address",
          "name": "addr",
          "type": "address"
        }
      ],
      "name": "getRoom",
      "outputs": [
        {
          "components": [
            {
              "internalType": "address",
              "name": "addr",
              "type": "address"
            },
            {
              "internalType": "address",
              "name": "buyer",
              "type": "address"
            },
            {
              "internalType": "address",
              "name": "seller",
              "type": "address"
            },
            {
              "internalType": "address",
              "name": "arbitrator",
              "type": "address"
            },
            {
              "internalType": "address",
              "name": "sensorApprover",
              "type": "address"
            },
            {
              "internalType": "address",
              "name": "docApprover",
              "type": "address"
            },
            {
              "internalType": "address",
              "name": "dealMultiSig",
              "type": "address"
            },
            {
              "internalType": "address",
              "name": "agentMultiSig",
              "type": "address"
            }
          ],
          "internalType": "struct DealRoomHubV1_0.DealRoomDetails",
          "name": "",
          "type": "tuple"
        }
      ],
      "stateMutability": "view",
      "type": "function"
    },
    {
      "inputs": [],
      "name": "roomCount",
      "outputs": [
        {
          "internalType": "uint256",
          "name": "",
          "type": "uint256"
        }
      ],
      "stateMutability": "view",
      "type": "function"
    },
    {
      "inputs": [
        {
          "internalType": "address",
          "name": "newOwner",
          "type": "address"
        }
      ],
      "name": "changeOwner",
      "outputs": [],
      "stateMutability": "nonpayable",
      "type": "function"
    }
  ],
  "bytecode": "0x608060405234801561001057600080fd5b5061459f806100206000396000f3fe60806040523480156200001157600080fd5b50600436106200006a5760003560e01c80634966dc0f146200006f578063a6f9dae1146200009e578063b01e796114620000b7578063df93a4e314620000dd578063eb1f468214620000f6578063f794cf2d146200011c575b600080fd5b620000866200008036600462000c28565b62000126565b60405162000095919062000ea7565b60405180910390f35b620000b5620000af36600462000c28565b620001b9565b005b620000ce620000c836600462000c28565b62000211565b60405162000095919062000d6a565b620000e762000289565b60405162000095919062000f2a565b6200010d6200010736600462000c4d565b6200028f565b60405162000095919062000d3c565b620000ce62000b46565b6200013062000baa565b506001600160a01b039081166000908152600460208181526040928390208351610100810185528154861681526001820154861692810192909252600281015485169382019390935260038301548416606082015290820154831660808201526005820154831660a08201526006820154831660c082015260079091015490911660e082015290565b6000546001600160a01b03163314620001ef5760405162461bcd60e51b8152600401620001e69062000e83565b60405180910390fd5b600080546001600160a01b0319166001600160a01b0392909216919091179055565b6001600160a01b0381166000908152600360209081526040918290208054835181840281018401909452808452606093928301828280156200027d57602002820191906000526020600020905b81546001600160a01b031681526001909101906020018083116200025e575b50505050509050919050565b60015490565b60008082600001518360200151604051620002aa9062000bee565b620002b792919062000d50565b604051809103906000f080158015620002d4573d6000803e3d6000fd5b5083519091506001600160a01b0316620003025760405162461bcd60e51b8152600401620001e69062000dd1565b60208301516001600160a01b03166200032f5760405162461bcd60e51b8152600401620001e69062000e5b565b60408301516001600160a01b03166200035c5760405162461bcd60e51b8152600401620001e69062000e2f565b60608301516001600160a01b0316620003895760405162461bcd60e51b8152600401620001e69062000df8565b60808301516001600160a01b0316620003b65760405162461bcd60e51b8152600401620001e69062000da3565b60408051600380825260808201909252606091602082018380368337019050509050836000015181600081518110620003eb57fe5b60200260200101906001600160a01b031690816001600160a01b0316815250508360200151816001815181106200041e57fe5b60200260200101906001600160a01b031690816001600160a01b0316815250508360400151816002815181106200045157fe5b60200260200101906001600160a01b031690816001600160a01b0316815250506000816002604051620004849062000bfc565b6200049192919062000d7f565b604051809103906000f080158015620004ae573d6000803e3d6000fd5b506040805160038082526080820190925291925060609190602082018380368337019050509050856060015181600081518110620004e857fe5b60200260200101906001600160a01b031690816001600160a01b0316815250508560800151816001815181106200051b57fe5b60200260200101906001600160a01b031690816001600160a01b03168152505081816002815181106200054a57fe5b60200260200101906001600160a01b031690816001600160a01b03168152505060008160036040516200057d9062000bfc565b6200058a92919062000d7f565b604051809103906000f080158015620005a7573d6000803e3d6000fd5b5060405163a6f9dae160e01b81529091506001600160a01b0386169063a6f9dae190620005d990849060040162000d3c565b600060405180830381600087803b158015620005f457600080fd5b505af115801562000609573d6000803e3d6000fd5b505050506001859080600181540180825580915050600190039060005260206000200160009091909190916101000a8154816001600160a01b0302191690836001600160a01b031602179055506003600088600001516001600160a01b03166001600160a01b03168152602001908152602001600020859080600181540180825580915050600190039060005260206000200160009091909190916101000a8154816001600160a01b0302191690836001600160a01b031602179055506003600088602001516001600160a01b03166001600160a01b03168152602001908152602001600020859080600181540180825580915050600190039060005260206000200160009091909190916101000a8154816001600160a01b0302191690836001600160a01b031602179055506003600088604001516001600160a01b03166001600160a01b03168152602001908152602001600020859080600181540180825580915050600190039060005260206000200160009091909190916101000a8154816001600160a01b0302191690836001600160a01b031602179055506003600088606001516001600160a01b03166001600160a01b03168152602001908152602001600020859080600181540180825580915050600190039060005260206000200160009091909190916101000a8154816001600160a01b0302191690836001600160a01b031602179055506003600088608001516001600160a01b03166001600160a01b03168152602001908152602001600020859080600181540180825580915050600190039060005260206000200160009091909190916101000a8154816001600160a01b0302191690836001600160a01b031602179055508460046000876001600160a01b03166001600160a01b0316815260200190815260200160002060000160006101000a8154816001600160a01b0302191690836001600160a01b03160217905550866000015160046000876001600160a01b03166001600160a01b0316815260200190815260200160002060010160006101000a8154816001600160a01b0302191690836001600160a01b03160217905550866020015160046000876001600160a01b03166001600160a01b0316815260200190815260200160002060020160006101000a8154816001600160a01b0302191690836001600160a01b03160217905550866040015160046000876001600160a01b03166001600160a01b0316815260200190815260200160002060030160006101000a8154816001600160a01b0302191690836001600160a01b03160217905550866060015160046000876001600160a01b03166001600160a01b0316815260200190815260200160002060040160006101000a8154816001600160a01b0302191690836001600160a01b03160217905550866080015160046000876001600160a01b03166001600160a01b0316815260200190815260200160002060050160006101000a8154816001600160a01b0302191690836001600160a01b031602179055508060046000876001600160a01b03166001600160a01b0316815260200190815260200160002060060160006101000a8154816001600160a01b0302191690836001600160a01b031602179055508260046000876001600160a01b03166001600160a01b0316815260200190815260200160002060070160006101000a8154816001600160a01b0302191690836001600160a01b031602179055507f737c7ccf6d56ea889d48343f42ff5094f91b0ef3378198334723e3588f88c8f68560405162000b33919062000d3c565b60405180910390a1509295945050505050565b6060600180548060200260200160405190810160405280929190818152602001828054801562000ba057602002820191906000526020600020905b81546001600160a01b0316815260019091019060200180831162000b81575b5050505050905090565b6040805161010081018252600080825260208201819052918101829052606081018290526080810182905260a0810182905260c0810182905260e081019190915290565b6116118062000f4d83390190565b61200c806200255e83390190565b80356001600160a01b038116811462000c2257600080fd5b92915050565b60006020828403121562000c3a578081fd5b62000c46838362000c0a565b9392505050565b600060a0828403121562000c5f578081fd5b60405160a0810181811067ffffffffffffffff8211171562000c7f578283fd5b604052823562000c8f8162000f33565b8152602083013562000ca18162000f33565b6020820152604083013562000cb68162000f33565b604082015262000cca846060850162000c0a565b606082015262000cde846080850162000c0a565b60808201529392505050565b6001600160a01b03169052565b6000815180845260208085019450808401835b8381101562000d315781516001600160a01b03168752958201959082019060010162000d0a565b509495945050505050565b6001600160a01b0391909116815260200190565b6001600160a01b0392831681529116602082015260400190565b60006020825262000c46602083018462000cf7565b60006040825262000d94604083018562000cf7565b90508260208301529392505050565b602080825260149082015273444f435f415050524f5645525f4d495353494e4760601b604082015260600190565b6020808252600d908201526c42555945525f4d495353494e4760981b604082015260600190565b60208082526017908201527f53454e534f525f415050524f5645525f4d495353494e47000000000000000000604082015260600190565b60208082526012908201527141524249545241544f525f4d495353494e4760701b604082015260600190565b6020808252600e908201526d53454c4c45525f4d495353494e4760901b604082015260600190565b6020808252600a908201526927a7262cafa7aba722a960b11b604082015260600190565b60006101008201905060018060a01b038084511683528060208501511660208401528060408501511660408401528060608501511660608401528060808501511660808401528060a08501511660a08401525060c083015162000f0e60c084018262000cea565b5060e083015162000f2360e084018262000cea565b5092915050565b90815260200190565b6001600160a01b038116811462000f4957600080fd5b5056fe608060405234801561001057600080fd5b5060405161161138038061161183398101604081905261002f9161008d565b600680546001600160a01b0393841661010002610100600160a81b031990911617905560078054919092166001600160a01b0319918216179091556000600481905560018054831633908117909155815490921690911790556100de565b6000806040838503121561009f578182fd5b82516100aa816100c6565b60208401519092506100bb816100c6565b809150509250929050565b6001600160a01b03811681146100db57600080fd5b50565b611524806100ed6000396000f3fe608060405234801561001057600080fd5b50600436106101375760003560e01c806382fd5bac116100b8578063a6f9dae11161007c578063a6f9dae114610245578063a719e10314610258578063bca6ce641461026b578063c698f53b14610273578063dbd0e1b614610293578063eadb3c9c1461029b57610137565b806382fd5bac146101ef578063893d20e81461020f5780638da5cb5b146102175780638df828001461021f5780639056b9721461023257610137565b80634a3a8383116100ff5780634a3a8383146101bc5780634d2d2c9d146101c4578063603daf9a146101d75780637150d8ae146101df578063785e9e86146101e757610137565b806302d05d3f1461013c57806303988f841461015a57806308551a531461017f5780633f35253a14610187578063442d04ee146101a7575b600080fd5b6101446102a3565b60405161015191906111dc565b60405180910390f35b61016d610168366004611177565b6102b2565b6040516101519695949392919061143f565b610144610307565b61019a610195366004611177565b610316565b6040516101519190611436565b6101ba6101b53660046110b3565b610499565b005b61019a6105bc565b61019a6101d2366004611177565b6105c2565b610144610772565b610144610786565b61014461079a565b6102026101fd366004611177565b6107a9565b6040516101519190611383565b6101446108a2565b6101446108b1565b6101ba61022d366004611177565b6108c0565b6101ba610240366004611177565b610989565b6101ba610253366004611054565b610b38565b6101ba6102663660046111a7565b610b84565b610144610e06565b610286610281366004611177565b610e15565b604051610151919061122d565b610144610ecc565b61019a610edb565b6000546001600160a01b031681565b600581815481106102bf57fe5b6000918252602090912060069091020180546001820154600283015460038401546005909401549294506001600160a01b039182169391169160ff8082169161010090041686565b6007546001600160a01b031681565b6000816001610323610fb8565b61032c836107a9565b90508115158160c0015115151482610367576040518060400160405280600b81526020016a4445414c5f45584953545360a81b81525061038f565b6040518060400160405280600e81526020016d1111505317d393d517d193d5539160921b8152505b906103b65760405162461bcd60e51b81526004016103ad9190611242565b60405180910390fd5b506103bf610fb8565b6103c8866107a9565b905060038160a0015160038111156103dc57fe5b14156103ec576000945050610491565b60208101516040516370a0823160e01b81526000916001600160a01b0316906370a082319061041f9030906004016111dc565b60206040518083038186803b15801561043757600080fd5b505afa15801561044b573d6000803e3d6000fd5b505050506040513d601f19601f8201168201806040525081019061046f919061118f565b90508160600151811061048757600095505050610491565b6060909101510393505b505050919050565b60056040518060e001604052806004548152602001866001600160a01b03168152602001856001600160a01b03168152602001848152602001838152602001600160038111156104e557fe5b8152600160209182018190528354808201855560009485529382902083516006909502019384558282015190840180546001600160a01b039283166001600160a01b031991821617909155604084015160028601805491909316911617905560608201516003840155608082015180519293926105689260048501920190610ff4565b5060a082015160058201805460ff1916600183600381111561058657fe5b021790555060c09190910151600590910180549115156101000261ff001990921691909117905550506004805460010190555050565b60045490565b60008160016105cf610fb8565b6105d8836107a9565b90508115158160c0015115151482610613576040518060400160405280600b81526020016a4445414c5f45584953545360a81b81525061063b565b6040518060400160405280600e81526020016d1111505317d393d517d193d5539160921b8152505b906106595760405162461bcd60e51b81526004016103ad9190611242565b50610662610fb8565b61066b866107a9565b905060038160a00151600381111561067f57fe5b141561068f576000945050610491565b6000805b82608001515181101561075f57306001600160a01b031683604001516001600160a01b0316636352211e856080015184815181106106cd57fe5b60200260200101516040518263ffffffff1660e01b81526004016106f19190611436565b60206040518083038186803b15801561070957600080fd5b505afa15801561071d573d6000803e3d6000fd5b505050506040513d601f19601f820116820180604052508101906107419190611077565b6001600160a01b03161415610757576001909101905b600101610693565b5060809091015151039350505050919050565b60065461010090046001600160a01b031690565b60065461010090046001600160a01b031681565b6003546001600160a01b031681565b6107b1610fb8565b600582815481106107be57fe5b60009182526020918290206040805160e08101825260069093029091018054835260018101546001600160a01b039081168486015260028201541683830152600381015460608401526004810180548351818702810187019094528084529394919360808601939283018282801561085557602002820191906000526020600020905b815481526020019060010190808311610841575b5050509183525050600582015460209091019060ff16600381111561087657fe5b600381111561088157fe5b815260059190910154610100900460ff16151560209091015290505b919050565b6001546001600160a01b031690565b6001546001600160a01b031681565b806108c9610fb8565b6108d2826107a9565b905060018160a0015160038111156108e657fe5b146109035760405162461bcd60e51b81526004016103ad90611295565b6001546001600160a01b0316331461092d5760405162461bcd60e51b81526004016103ad90611332565b610936836105c2565b156109535760405162461bcd60e51b81526004016103ad90611356565b61095c83610316565b156109795760405162461bcd60e51b81526004016103ad90611305565b610984836003610ee1565b505050565b806001610994610fb8565b61099d836107a9565b90508115158160c00151151514826109d8576040518060400160405280600b81526020016a4445414c5f45584953545360a81b815250610a00565b6040518060400160405280600e81526020016d1111505317d393d517d193d5539160921b8152505b90610a1e5760405162461bcd60e51b81526004016103ad9190611242565b50610a27610fb8565b610a30856107a9565b905060038160a001516003811115610a4457fe5b1415610a79576007546001600160a01b03163314610a745760405162461bcd60e51b81526004016103ad906112bc565b610aa8565b60065461010090046001600160a01b03163314610aa85760405162461bcd60e51b81526004016103ad906112e1565b80602001516001600160a01b031663a9059cbb3383606001516040518363ffffffff1660e01b8152600401610ade9291906111f0565b602060405180830381600087803b158015610af857600080fd5b505af1158015610b0c573d6000803e3d6000fd5b505050506040513d601f19601f82011682018060405250810190610b309190611093565b505050505050565b6001546001600160a01b03163314610b625760405162461bcd60e51b81526004016103ad90611332565b600180546001600160a01b0319166001600160a01b0392909216919091179055565b816001610b8f610fb8565b610b98836107a9565b90508115158160c0015115151482610bd3576040518060400160405280600b81526020016a4445414c5f45584953545360a81b815250610bfb565b6040518060400160405280600e81526020016d1111505317d393d517d193d5539160921b8152505b90610c195760405162461bcd60e51b81526004016103ad9190611242565b50610c22610fb8565b610c2b866107a9565b9050600060038260a001516003811115610c4157fe5b1415610c7b5760065461010090046001600160a01b03163314610c765760405162461bcd60e51b81526004016103ad906112e1565b610ca5565b6007546001600160a01b03163314610ca55760405162461bcd60e51b81526004016103ad906112bc565b60005b826080015151811015610dfc578682108015610d6b5750306001600160a01b031683604001516001600160a01b0316636352211e85608001518481518110610cec57fe5b60200260200101516040518263ffffffff1660e01b8152600401610d109190611436565b60206040518083038186803b158015610d2857600080fd5b505afa158015610d3c573d6000803e3d6000fd5b505050506040513d601f19601f82011682018060405250810190610d609190611077565b6001600160a01b0316145b15610df45782604001516001600160a01b03166323b872dd303386608001518581518110610d9557fe5b60200260200101516040518463ffffffff1660e01b8152600401610dbb93929190611209565b600060405180830381600087803b158015610dd557600080fd5b505af1158015610de9573d6000803e3d6000fd5b505060019093019250505b600101610ca8565b5050505050505050565b6002546001600160a01b031681565b6000816001610e22610fb8565b610e2b836107a9565b90508115158160c0015115151482610e66576040518060400160405280600b81526020016a4445414c5f45584953545360a81b815250610e8e565b6040518060400160405280600e81526020016d1111505317d393d517d193d5539160921b8152505b90610eac5760405162461bcd60e51b81526004016103ad9190611242565b50610eb5610fb8565b610ebe866107a9565b60a001519695505050505050565b6007546001600160a01b031690565b60045481565b816001610eec610fb8565b610ef5836107a9565b90508115158160c0015115151482610f30576040518060400160405280600b81526020016a4445414c5f45584953545360a81b815250610f58565b6040518060400160405280600e81526020016d1111505317d393d517d193d5539160921b8152505b90610f765760405162461bcd60e51b81526004016103ad9190611242565b508360058681548110610f8557fe5b60009182526020909120600560069092020101805460ff19166001836003811115610fac57fe5b02179055505050505050565b6040805160e081018252600080825260208201819052918101829052606080820183905260808201529060a08201908152600060209091015290565b82805482825590600052602060002090810192821561102f579160200282015b8281111561102f578251825591602001919060010190611014565b5061103b92915061103f565b5090565b5b8082111561103b5760008155600101611040565b600060208284031215611065578081fd5b8135611070816114d6565b9392505050565b600060208284031215611088578081fd5b8151611070816114d6565b6000602082840312156110a4578081fd5b81518015158114611070578182fd5b600080600080608085870312156110c8578283fd5b84356110d3816114d6565b93506020858101356110e4816114d6565b935060408601359250606086013567ffffffffffffffff811115611106578283fd5b8601601f81018813611116578283fd5b8035611129611124826114ab565b611484565b81815283810190838501858402850186018c1015611145578687fd5b8694505b83851015611167578035835260019490940193918501918501611149565b50979a9699509497505050505050565b600060208284031215611188578081fd5b5035919050565b6000602082840312156111a0578081fd5b5051919050565b600080604083850312156111b9578182fd5b50508035926020909101359150565b15159052565b600481106111d857fe5b9052565b6001600160a01b0391909116815260200190565b6001600160a01b03929092168252602082015260400190565b6001600160a01b039384168152919092166020820152604081019190915260600190565b6020810161123a836114cb565b825292915050565b6000602080835283518082850152825b8181101561126e57858101830151858201604001528201611252565b8181111561127f5783604083870101525b50601f01601f1916929092016040019392505050565b6020808252600d908201526c2222a0a62fa727aa2fa7a822a760991b604082015260600190565b6020808252600b908201526a53454c4c45525f4f4e4c5960a81b604082015260600190565b6020808252600a908201526942555945525f4f4e4c5960b01b604082015260600190565b6020808252601390820152724445414c5f544f4b454e535f4d495353494e4760681b604082015260600190565b6020808252600a908201526927a7262cafa7aba722a960b11b604082015260600190565b6020808252601390820152724445414c5f4153534554535f4d495353494e4760681b604082015260600190565b6020808252825182820152828101516001600160a01b039081166040808501919091528401511660608084019190915283015160808084019190915283015160e060a0840152805161010084018190526000929182019083906101208601905b8083101561140357835182529284019260019290920191908401906113e3565b5060a0870151935061141860c08701856111ce565b60c0870151935061142c60e08701856111c8565b9695505050505050565b90815260200190565b8681526001600160a01b038681166020830152851660408201526060810184905260c0810161146d846114cb565b608083015291151560a09091015295945050505050565b60405181810167ffffffffffffffff811182821017156114a357600080fd5b604052919050565b600067ffffffffffffffff8211156114c1578081fd5b5060209081020190565b806004811061089d57fe5b6001600160a01b03811681146114eb57600080fd5b5056fea264697066735822122099a9b9f6821789826b2bc8e12344b4464b55ef1869bd3bbf730ad07701af15d564736f6c6343000700003360806040523480156200001157600080fd5b506040516200200c3803806200200c833981016040819052620000349162000252565b81518160328211158015620000495750818111155b80156200005557508015155b80156200006157508115155b620000895760405162461bcd60e51b815260040162000080906200030f565b60405180910390fd5b60005b8451811015620001865760026000868381518110620000a757fe5b6020908102919091018101516001600160a01b031682528101919091526040016000205460ff1615620000ee5760405162461bcd60e51b8152600401620000809062000346565b60006001600160a01b03168582815181106200010657fe5b60200260200101516001600160a01b03161415620001385760405162461bcd60e51b8152600401620000809062000370565b6001600260008784815181106200014b57fe5b6020908102919091018101516001600160a01b03168252810191909152604001600020805460ff19169115159190911790556001016200008c565b5083516200019c906004906020870190620001a9565b50505060055550620003c0565b82805482825590600052602060002090810192821562000201579160200282015b828111156200020157825182546001600160a01b0319166001600160a01b03909116178255602090920191600190910190620001ca565b506200020f92915062000213565b5090565b5b808211156200020f5780546001600160a01b031916815560010162000214565b80516001600160a01b03811681146200024c57600080fd5b92915050565b6000806040838503121562000265578182fd5b82516001600160401b03808211156200027c578384fd5b818501915085601f83011262000290578384fd5b8151818111156200029f578485fd5b60209150818102620002b383820162000399565b8281528381019085850183870186018b1015620002ce578889fd5b8896505b84871015620002fc57620002e78b8262000234565b835260019690960195918501918501620002d2565b5097909301519698969750505050505050565b60208082526013908201527f696e76616c696420726571756972656d656e7400000000000000000000000000604082015260600190565b60208082526010908201526f34b99030b63932b0b23c9037bbb732b960811b604082015260600190565b6020808252600f908201526e6973206e756c6c206164647265737360881b604082015260600190565b6040518181016001600160401b0381118282101715620003b857600080fd5b604052919050565b611c3c80620003d06000396000f3fe60806040526004361061014f5760003560e01c8063969f8a83116100b6578063c64274741161006f578063c642747414610463578063c69ed5f214610483578063d74f8edd146104a3578063dc8452cd146104b8578063e20056e6146104cd578063f3fc536d146104ed5761019e565b8063969f8a83146103ac578063a0e67e2b146103d9578063a96bf00c146103ee578063b77bf6001461040e578063ba51a6df14610423578063bdfd2793146104435761019e565b8063501895ae11610108578063501895ae146102da578063642f2eaf146102fa5780636486aa511461032c5780637065cb481461034c57806379716e431461036c578063915c219e1461038c5761019e565b8063025e7c27146101dd5780630c4ecab414610213578063113642e514610240578063173825d91461026d5780632f54bf6e1461028d5780634aae13ca146102ad5761019e565b3661019e57341561019c57336001600160a01b03167fe1fffcc4923d04b559f4d29a8bfc6cda04eb5b0d3c460751c2402c5c5cc9109c34604051610193919061199b565b60405180910390a25b005b341561019c57336001600160a01b03167fe1fffcc4923d04b559f4d29a8bfc6cda04eb5b0d3c460751c2402c5c5cc9109c34604051610193919061199b565b3480156101e957600080fd5b506101fd6101f8366004611838565b61050d565b60405161020a91906118ea565b60405180910390f35b34801561021f57600080fd5b5061023361022e366004611850565b610534565b60405161020a9190611990565b34801561024c57600080fd5b5061026061025b366004611838565b610554565b60405161020a919061199b565b34801561027957600080fd5b5061019c610288366004611738565b6105c3565b34801561029957600080fd5b506102336102a8366004611738565b610777565b3480156102b957600080fd5b506102cd6102c8366004611838565b61078c565b60405161020a9190611b27565b3480156102e657600080fd5b506102606102f5366004611838565b610884565b34801561030657600080fd5b5061031a610315366004611838565b610896565b60405161020a969594939291906118fe565b34801561033857600080fd5b50610233610347366004611838565b610963565b34801561035857600080fd5b5061019c610367366004611738565b6109e9565b34801561037857600080fd5b5061019c610387366004611838565b610b49565b34801561039857600080fd5b506102606103a736600461178e565b610c39565b3480156103b857600080fd5b506103cc6103c7366004611838565b610c4e565b60405161020a9190611943565b3480156103e557600080fd5b506103cc610df2565b3480156103fa57600080fd5b50610233610409366004611850565b610e54565b34801561041a57600080fd5b50610260610e81565b34801561042f57600080fd5b5061019c61043e366004611838565b610e87565b34801561044f57600080fd5b506102cd61045e366004611838565b610f2f565b34801561046f57600080fd5b5061026061047e36600461178e565b610fd2565b34801561048f57600080fd5b5061019c61049e366004611838565b610fdf565b3480156104af57600080fd5b506102606111cf565b3480156104c457600080fd5b506102606111d4565b3480156104d957600080fd5b5061019c6104e836600461175a565b6111da565b3480156104f957600080fd5b5061019c610508366004611838565b611390565b6004818154811061051a57fe5b6000918252602090912001546001600160a01b0316905081565b600160209081526000928352604080842090915290825290205460ff1681565b6000805b6004548110156105bd576000838152600160205260408120600480549192918490811061058157fe5b60009182526020808320909101546001600160a01b0316835282019290925260400190205460ff16156105b5576001820191505b600101610558565b50919050565b3330146105eb5760405162461bcd60e51b81526004016105e290611ad2565b60405180910390fd5b6001600160a01b038116600090815260026020526040902054819060ff166106255760405162461bcd60e51b81526004016105e290611aa4565b6001600160a01b0382166000908152600260205260408120805460ff191690555b600454600019018110156106f957826001600160a01b03166004828154811061066b57fe5b6000918252602090912001546001600160a01b031614156106f15760048054600019810190811061069857fe5b600091825260209091200154600480546001600160a01b0390921691839081106106be57fe5b9060005260206000200160006101000a8154816001600160a01b0302191690836001600160a01b031602179055506106f9565b600101610646565b50600480548061070557fe5b600082815260209020810160001990810180546001600160a01b0319169055019055600454600554111561073f5760045461073f90610e87565b6040516001600160a01b038316907f8001553a916ef2f495d26a907cc54d96ed840d7bda71e73194bf5a9df7a76b9090600090a25050565b60026020526000908152604090205460ff1681565b61079461164a565b60008281526020818152604091829020825160c08101845281546001600160a01b03168152600180830154828501526002808401805487516101009482161594909402600019011691909104601f8101869004860283018601875280835292959394938601939192909183018282801561084f5780601f106108245761010080835404028352916020019161084f565b820191906000526020600020905b81548152906001019060200180831161083257829003601f168201915b5050509183525050600382015460ff16151560208201526004820154604082015260059091015460609091015290505b919050565b60036020526000908152604090205481565b6000602081815291815260409081902080546001808301546002808501805487516101009582161595909502600019011691909104601f81018890048802840188019096528583526001600160a01b03909316959094919291908301828280156109415780601f1061091657610100808354040283529160200191610941565b820191906000526020600020905b81548152906001019060200180831161092457829003601f168201915b5050505060038301546004840154600590940154929360ff9091169290915086565b600080805b6004548110156109e2576000848152600160205260408120600480549192918490811061099157fe5b60009182526020808320909101546001600160a01b0316835282019290925260400190205460ff16156109c5576001820191505b6005548214156109da5760019250505061087f565b600101610968565b5050919050565b333014610a085760405162461bcd60e51b81526004016105e290611ad2565b6001600160a01b038116600090815260026020526040902054819060ff1615610a435760405162461bcd60e51b81526004016105e290611a00565b816001600160a01b038116610a6a5760405162461bcd60e51b81526004016105e290611a4f565b60048054905060010160055460328211158015610a875750818111155b8015610a9257508015155b8015610a9d57508115155b610ab95760405162461bcd60e51b81526004016105e2906119a4565b6001600160a01b038516600081815260026020526040808220805460ff1916600190811790915560048054918201815583527f8a35acfbc15ff81a39ae7d344fd709f28e8600b4aa8c65c6b64bfe7fe36bd19b0180546001600160a01b03191684179055517ff39e6e1eb0edcf53c221607b54b00cd28f3196fed0a24994dc308b8f611b682d9190a25050505050565b3360008181526002602052604090205460ff16610b785760405162461bcd60e51b81526004016105e290611aa4565b81610b828161147f565b610b9e5760405162461bcd60e51b81526004016105e290611a7a565b60008381526001602090815260408083203380855292529091205484919060ff1615610bdc5760405162461bcd60e51b81526004016105e290611af7565b6000858152600160208181526040808420338086529252808420805460ff1916909317909255905187927fe1c52dc63b719ade82e8bea94cc41a0d5d28e4aaf536adb5e9cccc9ff8c1aeda91a3610c3285610fdf565b5050505050565b6000610c4684848461149c565b949350505050565b600454606090819067ffffffffffffffff81118015610c6c57600080fd5b50604051908082528060200260200182016040528015610c96578160200160208202803683370190505b5090506000805b600454811015610d595760008581526001602052604081206004805491929184908110610cc657fe5b60009182526020808320909101546001600160a01b0316835282019290925260400190205460ff1615610d515760048181548110610d0057fe5b9060005260206000200160009054906101000a90046001600160a01b0316838381518110610d2a57fe5b60200260200101906001600160a01b031690816001600160a01b0316815250506001820191505b600101610c9d565b8167ffffffffffffffff81118015610d7057600080fd5b50604051908082528060200260200182016040528015610d9a578160200160208202803683370190505b509350600090505b81811015610dea57828181518110610db657fe5b6020026020010151848281518110610dca57fe5b6001600160a01b0390921660209283029190910190910152600101610da2565b505050919050565b60606004805480602002602001604051908101604052809291908181526020018280548015610e4a57602002820191906000526020600020905b81546001600160a01b03168152600190910190602001808311610e2c575b5050505050905090565b60008281526001602090815260408083206001600160a01b038516845290915290205460ff165b92915050565b60065481565b333014610ea65760405162461bcd60e51b81526004016105e290611ad2565b6004548160328211801590610ebb5750818111155b8015610ec657508015155b8015610ed157508115155b610eed5760405162461bcd60e51b81526004016105e2906119a4565b60058390556040517fa3f1ee9126a074d9326c682f561767f710e927faa811f7a99829d49dc421797a90610f2290859061199b565b60405180910390a1505050565b610f3761164a565b600082815260036020908152604080832054835282825291829020825160c08101845281546001600160a01b03168152600180830154828501526002808401805487516101009482161594909402600019011691909104601f8101869004860283018601875280835292959394938601939192909183018282801561084f5780601f106108245761010080835404028352916020019161084f565b6000610c468484846114d2565b3360008181526002602052604090205460ff1661100e5760405162461bcd60e51b81526004016105e290611aa4565b60008281526001602090815260408083203380855292529091205483919060ff1661104b5760405162461bcd60e51b81526004016105e290611a26565b600084815260208190526040902060030154849060ff161561107f5760405162461bcd60e51b81526004016105e2906119d1565b61108885610963565b15610c32576000858152602081815260409182902060038101805460ff19166001908117909155815481830154600280850180548851601f60001997831615610100029790970190911692909204948501879004870282018701909752838152939561115a956001600160a01b039093169491939283908301828280156111505780601f1061112557610100808354040283529160200191611150565b820191906000526020600020905b81548152906001019060200180831161113357829003601f168201915b5050505050611627565b1561118f5760405186907f7e9e1cb65db4927b1815f498cbaa226a15c277816f7df407573682110522c9b190600090a26111c7565b60405186907fdbe42d02a4e07d7eeff2874efe172540c93b297d206f6d691c9782a257323e3290600090a260038101805460ff191690555b505050505050565b603281565b60055481565b3330146111f95760405162461bcd60e51b81526004016105e290611ad2565b6001600160a01b038216600090815260026020526040902054829060ff166112335760405162461bcd60e51b81526004016105e290611aa4565b6001600160a01b038216600090815260026020526040902054829060ff161561126e5760405162461bcd60e51b81526004016105e290611a00565b60005b6004548110156112f657846001600160a01b03166004828154811061129257fe5b6000918252602090912001546001600160a01b031614156112ee5783600482815481106112bb57fe5b9060005260206000200160006101000a8154816001600160a01b0302191690836001600160a01b031602179055506112f6565b600101611271565b506001600160a01b03808516600081815260026020526040808220805460ff1990811690915593871682528082208054909416600117909355915190917f8001553a916ef2f495d26a907cc54d96ed840d7bda71e73194bf5a9df7a76b9091a26040516001600160a01b038416907ff39e6e1eb0edcf53c221607b54b00cd28f3196fed0a24994dc308b8f611b682d90600090a250505050565b3360008181526002602052604090205460ff166113bf5760405162461bcd60e51b81526004016105e290611aa4565b60008281526001602090815260408083203380855292529091205483919060ff166113fc5760405162461bcd60e51b81526004016105e290611a26565b600084815260208190526040902060030154849060ff16156114305760405162461bcd60e51b81526004016105e2906119d1565b6000858152600160209081526040808320338085529252808320805460ff191690555187927f9aec1a62b961581534d37fd62d35e3648f05a17b1f986eda1d1a9d97b147840691a35050505050565b6000908152602081905260409020546001600160a01b0316151590565b60008383836040516020016114b3939291906118ab565b6040516020818303038152906040528051906020012090509392505050565b6000836001600160a01b0381166114fb5760405162461bcd60e51b81526004016105e290611a4f565b61150685858561149c565b91506115118261147f565b611616576040805160c0810182526001600160a01b038781168252602080830188815283850188815260006060860181905242608087015260a0860189905288815280845295909520845181546001600160a01b0319169416939093178355516001830155925180519293919261158e926002850192019061168e565b5060608201516003828101805460ff1916921515929092179091556080830151600483015560a0909201516005909101556006805460009081526020929092526040909120839055805460010190556115e682610b49565b60405182907f1b15da2a2b1f440c8fb970f04466e7ccd3a8215634645d232bbc23c75785b5bb90600090a261161f565b61161f82610b49565b509392505050565b6000806040516020840160008287838a8c6187965a03f198975050505050505050565b6040518060c0016040528060006001600160a01b03168152602001600081526020016060815260200160001515815260200160008152602001600080191681525090565b828054600181600116156101000203166002900490600052602060002090601f016020900481019282601f106116cf57805160ff19168380011785556116fc565b828001600101855582156116fc579182015b828111156116fc5782518255916020019190600101906116e1565b5061170892915061170c565b5090565b5b80821115611708576000815560010161170d565b80356001600160a01b0381168114610e7b57600080fd5b600060208284031215611749578081fd5b6117538383611721565b9392505050565b6000806040838503121561176c578081fd5b6117768484611721565b91506117858460208501611721565b90509250929050565b6000806000606084860312156117a2578081fd5b83356117ad81611bee565b925060208401359150604084013567ffffffffffffffff808211156117d0578283fd5b818601915086601f8301126117e3578283fd5b8135818111156117f1578384fd5b611804601f8201601f1916602001611b8b565b915080825287602082850101111561181a578384fd5b61182b816020840160208601611bb2565b5080925050509250925092565b600060208284031215611849578081fd5b5035919050565b60008060408385031215611862578182fd5b82359150602083013561187481611bee565b809150509250929050565b60008151808452611897816020860160208601611bbe565b601f01601f19169290920160200192915050565b60006bffffffffffffffffffffffff198560601b16825283601483015282516118db816034850160208701611bbe565b91909101603401949350505050565b6001600160a01b0391909116815260200190565b600060018060a01b038816825286602083015260c0604083015261192560c083018761187f565b941515606083015250608081019290925260a0909101529392505050565b6020808252825182820181905260009190848201906040850190845b818110156119845783516001600160a01b03168352928401929184019160010161195f565b50909695505050505050565b901515815260200190565b90815260200190565b6020808252601390820152721a5b9d985b1a59081c995c5d5a5c995b595b9d606a1b604082015260600190565b6020808252601590820152740e881d1e08185b1c9958591e48195e1958dd5d1959605a1b604082015260600190565b6020808252600c908201526b4f776e65722065786973747360a01b604082015260600190565b6020808252600f908201526e0e881b9bdd0818dbdb999a5c9b5959608a1b604082015260600190565b6020808252601190820152700e881859191c995cdcc81a5cc81b9d5b1b607a1b604082015260600190565b60208082526010908201526f151e08191bd95cdb89dd08195e1a5cdd60821b604082015260600190565b60208082526014908201527313dddb995c88191bd95cc81b9bdd08195e1a5cdd60621b604082015260600190565b6020808252600b908201526a13db9b1e481dd85b1b195d60aa1b604082015260600190565b6020808252601690820152750e881a5cc8185b1c9958591e4818dbdb999a5c9b595960521b604082015260600190565b60006020825260018060a01b03835116602083015260208301516040830152604083015160c06060840152611b5f60e084018261187f565b9050606084015115156080840152608084015160a084015260a084015160c08401528091505092915050565b60405181810167ffffffffffffffff81118282101715611baa57600080fd5b604052919050565b82818337506000910152565b60005b83811015611bd9578181015183820152602001611bc1565b83811115611be8576000848401525b50505050565b6001600160a01b0381168114611c0357600080fd5b5056fea2646970667358221220d27ccb8685cad5370df36a6126d01c1291552628f58dba6c4d581ecbbf82c13464736f6c63430007000033a26469706673582212200ddc7d0db2d5800de12c2ef47b3884ba1b64b1939307b67a1e108e965a30821964736f6c63430007000033",
  "immutableReferences": {},
  "source": "// SPDX-License-Identifier: MIT\n\npragma solidity >=0.7.0 <0.8.0;\n\npragma experimental ABIEncoderV2;\n\nimport \"../DealRoom.sol\";\nimport \"../MultiSigHashed.sol\";\n\ncontract DealRoomHubV1_0 {\n\n    event NewRoomEvent(address addr);\n\n    address owner;\n    address[] private rooms;\n    //upgradability\n    bool internal _initialized;\n\n    mapping (address => address[]) private roomsByUser;\n    mapping (address => DealRoomDetails) private roomDetailsByAddress;\n\n    struct MakeRoomParams {\n        address buyer;\n        address seller;\n        address arbitrator;\n        address sensorApprover;\n        address docApprover;\n    }\n\n    struct DealRoomDetails {\n        address addr;\n        address buyer;\n        address seller;\n        address arbitrator;\n        address sensorApprover;\n        address docApprover;\n        address dealMultiSig;\n        address agentMultiSig;\n    }\n\n    \n\n    modifier roomExists(address addr, bool mustExist) {\n        DealRoomDetails memory roomDetails = getRoom(addr);\n        if (mustExist) {\n            //Room must exist\n            require(roomDetails.addr != address(0), \"ROOM_NOT_FOUND\");\n        } else {\n            //Room must not already exist\n            require(roomDetails.addr == address(0), \"ROOM_EXISTS\");\n        }\n        _;\n    }\n\n    modifier isOwner() {\n        require(msg.sender == owner, \"ONLY_OWNER\");\n        _;\n    }\n\n    function makeRoom(MakeRoomParams memory params) virtual public returns (address) {\n        DealRoom room = new DealRoom(params.buyer, params.seller);\n        require(params.buyer != address(0), \"BUYER_MISSING\");\n        require(params.seller != address(0), \"SELLER_MISSING\");\n        require(params.arbitrator != address(0), \"ARBITRATOR_MISSING\");\n        require(params.sensorApprover != address(0), \"SENSOR_APPROVER_MISSING\");\n        require(params.docApprover != address(0), \"DOC_APPROVER_MISSING\");\n\n        //Make an Agents multisig, 2/3 with Buyer, Seller, Arbitrator\n        address[] memory agents = new address[](3);\n        agents[0] = params.buyer;\n        agents[1] = params.seller;\n        agents[2] = params.arbitrator; \n        MultiSigHashed agentMultiSig = new MultiSigHashed(agents, 2);\n        \n        //Make a Main multisig, 3/3 with Agents, DocApprover, SensorApprover\n        address[] memory mainSignatories = new address[](3);\n        mainSignatories[0] = params.sensorApprover;\n        mainSignatories[1] = params.docApprover; \n        mainSignatories[2] = address(agentMultiSig);  \n        MultiSigHashed dealMultiSig = new MultiSigHashed(mainSignatories, 3);\n        \n        //Give the room to the Main Multisig\n        room.changeOwner(address(dealMultiSig));\n\n        //===Record room details (without upsetting the compiler)\n        //Add to list\n        rooms.push(address(room));\n        //Index by buyer and seller\n        roomsByUser[params.buyer].push(address(room));\n        roomsByUser[params.seller].push(address(room));\n        roomsByUser[params.arbitrator].push(address(room));\n        roomsByUser[params.sensorApprover].push(address(room));\n        roomsByUser[params.docApprover].push(address(room));\n\n        //Index by address\n        roomDetailsByAddress[address(room)].addr = address(room);\n        roomDetailsByAddress[address(room)].buyer = params.buyer;\n        roomDetailsByAddress[address(room)].seller = params.seller;\n        roomDetailsByAddress[address(room)].arbitrator = params.arbitrator;        \n        roomDetailsByAddress[address(room)].sensorApprover = params.sensorApprover;\n        roomDetailsByAddress[address(room)].docApprover = params.docApprover;\n        roomDetailsByAddress[address(room)].dealMultiSig = address(dealMultiSig);\n        roomDetailsByAddress[address(room)].agentMultiSig = address(agentMultiSig);\n\n        emit NewRoomEvent(address(room));\n\n        return address(room);\n    }\n\n    function getUserRooms(address _user) virtual public view returns(address[] memory) {\n        return roomsByUser[_user];\n    }\n\n    function getAllRooms() virtual public view returns(address[] memory) {\n        return rooms;\n    }\n\n    function getRoom(address addr) virtual public view returns (DealRoomDetails memory) {\n        return roomDetailsByAddress[addr];\n    }\n\n    function roomCount() virtual public view returns (uint) {\n        return rooms.length;\n    }\n\n    function changeOwner(address newOwner) virtual public isOwner() {\n        owner = newOwner;\n    }\n}\n",
  "sourcePath": "/home/santiago/projects/beefledger/erc20_asset_grouping/src/ethereum/contracts/V1_0/DealRoomHubV1_0.sol",
  "compiler": {
    "name": "solc",
    "version": "0.7.0+commit.9e61f92b.Emscripten.clang"
  },
  "schemaVersion": "3.3.2",
  "updatedAt": "2021-02-23T02:07:35.335Z",
  "devdoc": {
    "kind": "dev",
    "methods": {},
    "version": 1
  },
  "userdoc": {
    "kind": "user",
    "methods": {},
    "version": 1
  }
}