{
  "contractName": "ERC721BeefLedgerV1_2",
  "abi": [
    {
      "anonymous": false,
      "inputs": [
        {
          "indexed": true,
          "internalType": "address",
          "name": "owner",
          "type": "address"
        },
        {
          "indexed": true,
          "internalType": "address",
          "name": "approved",
          "type": "address"
        },
        {
          "indexed": true,
          "internalType": "uint256",
          "name": "tokenId",
          "type": "uint256"
        }
      ],
      "name": "Approval",
      "type": "event"
    },
    {
      "anonymous": false,
      "inputs": [
        {
          "indexed": true,
          "internalType": "address",
          "name": "owner",
          "type": "address"
        },
        {
          "indexed": true,
          "internalType": "address",
          "name": "operator",
          "type": "address"
        },
        {
          "indexed": false,
          "internalType": "bool",
          "name": "approved",
          "type": "bool"
        }
      ],
      "name": "ApprovalForAll",
      "type": "event"
    },
    {
      "anonymous": false,
      "inputs": [
        {
          "indexed": false,
          "internalType": "address",
          "name": "previousOwner",
          "type": "address"
        },
        {
          "indexed": false,
          "internalType": "address",
          "name": "newOwner",
          "type": "address"
        }
      ],
      "name": "OwnershipTransferred",
      "type": "event"
    },
    {
      "anonymous": false,
      "inputs": [
        {
          "indexed": true,
          "internalType": "address",
          "name": "from",
          "type": "address"
        },
        {
          "indexed": true,
          "internalType": "address",
          "name": "to",
          "type": "address"
        },
        {
          "indexed": true,
          "internalType": "uint256",
          "name": "tokenId",
          "type": "uint256"
        }
      ],
      "name": "Transfer",
      "type": "event"
    },
    {
      "inputs": [
        {
          "internalType": "uint256[]",
          "name": "_assets",
          "type": "uint256[]"
        },
        {
          "internalType": "address",
          "name": "_groupingAddress",
          "type": "address"
        }
      ],
      "name": "addAssetsToGrouping",
      "outputs": [],
      "stateMutability": "nonpayable",
      "type": "function"
    },
    {
      "inputs": [
        {
          "internalType": "address",
          "name": "to",
          "type": "address"
        },
        {
          "internalType": "uint256",
          "name": "tokenId",
          "type": "uint256"
        }
      ],
      "name": "approve",
      "outputs": [],
      "stateMutability": "nonpayable",
      "type": "function"
    },
    {
      "inputs": [
        {
          "internalType": "address",
          "name": "owner",
          "type": "address"
        }
      ],
      "name": "balanceOf",
      "outputs": [
        {
          "internalType": "uint256",
          "name": "",
          "type": "uint256"
        }
      ],
      "stateMutability": "view",
      "type": "function"
    },
    {
      "inputs": [
        {
          "internalType": "uint256",
          "name": "tokenId",
          "type": "uint256"
        }
      ],
      "name": "burn",
      "outputs": [],
      "stateMutability": "nonpayable",
      "type": "function"
    },
    {
      "inputs": [
        {
          "internalType": "uint256",
          "name": "tokenId",
          "type": "uint256"
        }
      ],
      "name": "exists",
      "outputs": [
        {
          "internalType": "bool",
          "name": "",
          "type": "bool"
        }
      ],
      "stateMutability": "view",
      "type": "function"
    },
    {
      "inputs": [
        {
          "internalType": "uint256",
          "name": "tokenId",
          "type": "uint256"
        }
      ],
      "name": "getApproved",
      "outputs": [
        {
          "internalType": "address",
          "name": "",
          "type": "address"
        }
      ],
      "stateMutability": "view",
      "type": "function"
    },
    {
      "inputs": [
        {
          "internalType": "uint256",
          "name": "_asset",
          "type": "uint256"
        }
      ],
      "name": "getGroupingAddress",
      "outputs": [
        {
          "internalType": "address",
          "name": "",
          "type": "address"
        }
      ],
      "stateMutability": "view",
      "type": "function"
    },
    {
      "inputs": [
        {
          "internalType": "uint256",
          "name": "tokenId",
          "type": "uint256"
        }
      ],
      "name": "getOwner",
      "outputs": [
        {
          "internalType": "address",
          "name": "",
          "type": "address"
        }
      ],
      "stateMutability": "view",
      "type": "function"
    },
    {
      "inputs": [],
      "name": "getTotalTokens",
      "outputs": [
        {
          "internalType": "uint256",
          "name": "",
          "type": "uint256"
        }
      ],
      "stateMutability": "view",
      "type": "function"
    },
    {
      "inputs": [
        {
          "internalType": "address payable",
          "name": "_owner",
          "type": "address"
        }
      ],
      "name": "initialize",
      "outputs": [],
      "stateMutability": "nonpayable",
      "type": "function"
    },
    {
      "inputs": [],
      "name": "initializeV11",
      "outputs": [],
      "stateMutability": "nonpayable",
      "type": "function"
    },
    {
      "inputs": [
        {
          "internalType": "address",
          "name": "owner",
          "type": "address"
        },
        {
          "internalType": "address",
          "name": "operator",
          "type": "address"
        }
      ],
      "name": "isApprovedForAll",
      "outputs": [
        {
          "internalType": "bool",
          "name": "",
          "type": "bool"
        }
      ],
      "stateMutability": "view",
      "type": "function"
    },
    {
      "inputs": [
        {
          "internalType": "address",
          "name": "to",
          "type": "address"
        },
        {
          "internalType": "uint256[]",
          "name": "tokenIds",
          "type": "uint256[]"
        }
      ],
      "name": "mint",
      "outputs": [
        {
          "internalType": "bool",
          "name": "",
          "type": "bool"
        }
      ],
      "stateMutability": "nonpayable",
      "type": "function"
    },
    {
      "inputs": [],
      "name": "owner",
      "outputs": [
        {
          "internalType": "address",
          "name": "",
          "type": "address"
        }
      ],
      "stateMutability": "view",
      "type": "function"
    },
    {
      "inputs": [
        {
          "internalType": "address",
          "name": "to",
          "type": "address"
        },
        {
          "internalType": "bool",
          "name": "approved",
          "type": "bool"
        }
      ],
      "name": "setApprovalForAll",
      "outputs": [],
      "stateMutability": "nonpayable",
      "type": "function"
    },
    {
      "inputs": [
        {
          "internalType": "address payable",
          "name": "multisig",
          "type": "address"
        }
      ],
      "name": "setMultisigWallet",
      "outputs": [],
      "stateMutability": "nonpayable",
      "type": "function"
    },
    {
      "inputs": [
        {
          "internalType": "address",
          "name": "from",
          "type": "address"
        },
        {
          "internalType": "address",
          "name": "to",
          "type": "address"
        },
        {
          "internalType": "uint256",
          "name": "tokenId",
          "type": "uint256"
        }
      ],
      "name": "transferFrom",
      "outputs": [],
      "stateMutability": "nonpayable",
      "type": "function"
    },
    {
      "inputs": [
        {
          "internalType": "address",
          "name": "newOwner",
          "type": "address"
        }
      ],
      "name": "transferOwnership",
      "outputs": [],
      "stateMutability": "nonpayable",
      "type": "function"
    },
    {
      "inputs": [],
      "name": "initializeV12",
      "outputs": [],
      "stateMutability": "nonpayable",
      "type": "function"
    }
  ],
  "bytecode": "0x608060405234801561001057600080fd5b5061001a3361001f565b610041565b600080546001600160a01b0319166001600160a01b0392909216919091179055565b611819806100506000396000f3fe608060405234801561001057600080fd5b50600436106101215760003560e01c80638da5cb5b116100ad578063d1d274ce11610071578063d1d274ce14610315578063de836ebd146103c3578063e985e9c514610476578063f08b82e6146104a4578063f2fde38b146104ac57610121565b80638da5cb5b14610294578063a1afc8781461029c578063a22cb465146102a4578063c41a360a146102d2578063c4d66de8146102ef57610121565b80634f558e79116100f45780634f558e79146101e0578063649134771461021157806370a082311461023757806376b8a7931461026f5780637baeb04d1461027757610121565b8063081812fc14610126578063095ea7b31461015f57806323b872dd1461018d57806342966c68146101c3575b600080fd5b6101436004803603602081101561013c57600080fd5b50356104d2565b604080516001600160a01b039092168252519081900360200190f35b61018b6004803603604081101561017557600080fd5b506001600160a01b038135169060200135610534565b005b61018b600480360360608110156101a357600080fd5b506001600160a01b03813581169160208101359091169060400135610645565b61018b600480360360208110156101d957600080fd5b503561069a565b6101fd600480360360208110156101f657600080fd5b50356106eb565b604080519115158252519081900360200190f35b61018b6004803603602081101561022757600080fd5b50356001600160a01b0316610708565b61025d6004803603602081101561024d57600080fd5b50356001600160a01b03166107ea565b60408051918252519081900360200190f35b61018b610858565b6101436004803603602081101561028d57600080fd5b50356108bb565b6101436108d6565b61018b6108e5565b61018b600480360360408110156102ba57600080fd5b506001600160a01b038135169060200135151561094f565b610143600480360360208110156102e857600080fd5b5035610a1b565b61018b6004803603602081101561030557600080fd5b50356001600160a01b0316610a36565b61018b6004803603604081101561032b57600080fd5b81019060208101813564010000000081111561034657600080fd5b82018360208201111561035857600080fd5b8035906020019184602083028401116401000000008311171561037a57600080fd5b919080806020026020016040519081016040528093929190818152602001838360200280828437600092019190915250929550505090356001600160a01b03169150610b1d9050565b6101fd600480360360408110156103d957600080fd5b6001600160a01b03823516919081019060408101602082013564010000000081111561040457600080fd5b82018360208201111561041657600080fd5b8035906020019184602083028401116401000000008311171561043857600080fd5b919080806020026020016040519081016040528093929190818152602001838360200280828437600092019190915250929550610dc9945050505050565b6101fd6004803603604081101561048c57600080fd5b506001600160a01b0381358116916020013516610f6e565b61025d610f9c565b61018b600480360360208110156104c257600080fd5b50356001600160a01b0316610fad565b60006104dd826106eb565b6105185760405162461bcd60e51b815260040180806020018281038252602c81526020018061169c602c913960400191505060405180910390fd5b506000908152600260205260409020546001600160a01b031690565b600061053f826110b7565b9050806001600160a01b0316836001600160a01b031614156105925760405162461bcd60e51b81526004018080602001828103825260218152602001806116f16021913960400191505060405180910390fd5b336001600160a01b03821614806105ae57506105ae8133610f6e565b6105e95760405162461bcd60e51b81526004018080602001828103825260388152602001806115ef6038913960400191505060405180910390fd5b60008281526002602052604080822080546001600160a01b0319166001600160a01b0387811691821790925591518593918516917f8c5be1e5ebec7d5bd14f71427d1e84f3dd0314c0f7b2291e5b200ac8c7c3b92591a4505050565b61064f338261110b565b61068a5760405162461bcd60e51b815260040180806020018281038252603181526020018061175e6031913960400191505060405180910390fd5b6106958383836111af565b505050565b6106a4338261110b565b6106df5760405162461bcd60e51b81526004018080602001828103825260308152602001806117b46030913960400191505060405180910390fd5b6106e8816112f3565b50565b6000908152600160205260409020546001600160a01b0316151590565b6107106108d6565b6001600160a01b0316336001600160a01b03161461076b576040805162461bcd60e51b815260206004820152601360248201527239b2b73232b91034b9903737ba1037bbb732b960691b604482015290519081900360640190fd5b6001600160a01b0381166107c6576040805162461bcd60e51b815260206004820152601c60248201527f4d756c746973696720416464726573732063616e6e6f74206265203000000000604482015290519081900360640190fd5b600680546001600160a01b0319166001600160a01b0383161790556106e881611305565b60006001600160a01b0382166108315760405162461bcd60e51b815260040180806020018281038252602a815260200180611627602a913960400191505060405180910390fd5b6001600160a01b038216600090815260036020526040902061085290611327565b92915050565b60085460ff16156108ac576040805162461bcd60e51b815260206004820152601960248201527818dbdb9d1c9858dd08185b1c9958591e481d5c19dc98591959603a1b604482015290519081900360640190fd5b6008805460ff19166001179055565b6000908152600760205260409020546001600160a01b031690565b6000546001600160a01b031690565b600854610100900460ff161561093e576040805162461bcd60e51b815260206004820152601960248201527818dbdb9d1c9858dd08185b1c9958591e481d5c19dc98591959603a1b604482015290519081900360640190fd5b6008805461ff001916610100179055565b6001600160a01b0382163314156109ad576040805162461bcd60e51b815260206004820152601960248201527f4552433732313a20617070726f766520746f2063616c6c657200000000000000604482015290519081900360640190fd5b3360008181526004602090815260408083206001600160a01b03871680855290835292819020805460ff1916861515908117909155815190815290519293927f17307eab39ab6107e8899845ad3d59bd9653f200f220920489ca2b5937696c31929181900390910190a35050565b6000908152600160205260409020546001600160a01b031690565b600654600160a01b900460ff1615610a95576040805162461bcd60e51b815260206004820152601c60248201527f436f6e747261637420616c726561647920696e697469616c697a656400000000604482015290519081900360640190fd5b6001600160a01b038116610ae4576040805162461bcd60e51b815260206004820152601160248201527004f776e65722063616e6e6f74206265203607c1b604482015290519081900360640190fd5b610aed81611305565b6006805460ff60a01b196001600160a01b039093166001600160a01b03199091161791909116600160a01b179055565b600654604080516317aa5fb760e11b815233600482015290516001600160a01b0390921691632f54bf6e91602480820192602092909190829003018186803b158015610b6857600080fd5b505afa158015610b7c573d6000803e3d6000fd5b505050506040513d6020811015610b9257600080fd5b5051610bcf5760405162461bcd60e51b815260040180806020018281038252602281526020018061167a6022913960400191505060405180910390fd5b6001600160a01b038116610c145760405162461bcd60e51b81526004018080602001828103825260258152602001806117396025913960400191505060405180910390fd5b606482511115610c6b576040805162461bcd60e51b815260206004820152601f60248201527f6d6178696d756d206f6620746f6b656e7320746f206164642069732031303000604482015290519081900360640190fd5b8060005b83518160ff161015610dc3576000848260ff1681518110610c8c57fe5b60200260200101519050610c9f816106eb565b610ce7576040805162461bcd60e51b8152602060048201526014602482015273185cdcd95d08191bd95cc81b9bdd08195e1a5cdd60621b604482015290519081900360640190fd5b826001600160a01b0316630b71d256826040518263ffffffff1660e01b815260040180828152602001915050602060405180830381600087803b158015610d2d57600080fd5b505af1158015610d41573d6000803e3d6000fd5b505050506040513d6020811015610d5757600080fd5b5051610d945760405162461bcd60e51b81526004018080602001828103825260278152602001806117126027913960400191505060405180910390fd5b600090815260076020526040902080546001600160a01b0319166001600160a01b038516179055600101610c6f565b50505050565b600654604080516317aa5fb760e11b815233600482015290516000926001600160a01b031691632f54bf6e916024808301926020929190829003018186803b158015610e1457600080fd5b505afa158015610e28573d6000803e3d6000fd5b505050506040513d6020811015610e3e57600080fd5b5051610e7b5760405162461bcd60e51b815260040180806020018281038252602281526020018061167a6022913960400191505060405180910390fd5b606482511115610ed2576040805162461bcd60e51b815260206004820181905260248201527f6d6178696d756d206f6620746f6b656e7320746f206d696e7420697320313030604482015290519081900360640190fd5b6001600160a01b038316610f2d576040805162461bcd60e51b815260206004820181905260248201527f4552433732313a206d696e7420746f20746865207a65726f2061646472657373604482015290519081900360640190fd5b60005b82518160ff161015610f6457610f5c84848360ff1681518110610f4f57fe5b602002602001015161132b565b600101610f30565b5060019392505050565b6001600160a01b03918216600090815260046020908152604080832093909416825291909152205460ff1690565b6000610fa86005611327565b905090565b610fb56108d6565b6001600160a01b0316336001600160a01b031614611010576040805162461bcd60e51b815260206004820152601360248201527239b2b73232b91034b9903737ba1037bbb732b960691b604482015290519081900360640190fd5b6001600160a01b038116611063576040805162461bcd60e51b815260206004820152601560248201527406e6577206f776e65722063616e6e6f74206265203605c1b604482015290519081900360640190fd5b7f8be0079c531659141344cd1fd0a4f28419497f9722a3daafe3b4186f6b6457e061108c6108d6565b604080516001600160a01b03928316815291841660208301528051918290030190a16106e881611305565b6000818152600160205260408120546001600160a01b0316806108525760405162461bcd60e51b81526004018080602001828103825260298152602001806116516029913960400191505060405180910390fd5b6000611116826106eb565b6111515760405162461bcd60e51b815260040180806020018281038252602c8152602001806115c3602c913960400191505060405180910390fd5b600061115c836110b7565b9050806001600160a01b0316846001600160a01b031614806111975750836001600160a01b031661118c846104d2565b6001600160a01b0316145b806111a757506111a78185610f6e565b949350505050565b826001600160a01b03166111c2826110b7565b6001600160a01b0316146112075760405162461bcd60e51b81526004018080602001828103825260298152602001806116c86029913960400191505060405180910390fd5b6001600160a01b03821661124c5760405162461bcd60e51b815260040180806020018281038252602481526020018061159f6024913960400191505060405180910390fd5b6112558161140b565b6001600160a01b038316600090815260036020526040902061127690611446565b6001600160a01b038216600090815260036020526040902061129790611457565b60008181526001602052604080822080546001600160a01b0319166001600160a01b0386811691821790925591518493918716917fddf252ad1be2c89b69c2b068fc378daa952ba7f163c4a11628f55a4df523b3ef91a4505050565b6106e86112ff826110b7565b82611460565b600080546001600160a01b0319166001600160a01b0392909216919091179055565b5490565b611334816106eb565b15611386576040805162461bcd60e51b815260206004820152601c60248201527f4552433732313a20746f6b656e20616c7265616479206d696e74656400000000604482015290519081900360640190fd5b600081815260016020908152604080832080546001600160a01b0319166001600160a01b0387169081179091558352600390915290206113c590611457565b6113cf6005611457565b60405181906001600160a01b038416906000907fddf252ad1be2c89b69c2b068fc378daa952ba7f163c4a11628f55a4df523b3ef908290a45050565b6000818152600260205260409020546001600160a01b0316156106e857600090815260026020526040902080546001600160a01b0319169055565b8054611453906001611541565b9055565b80546001019055565b816001600160a01b0316611473826110b7565b6001600160a01b0316146114b85760405162461bcd60e51b815260040180806020018281038252602581526020018061178f6025913960400191505060405180910390fd5b6114c18161140b565b6001600160a01b03821660009081526003602052604090206114e290611446565b6114ec6005611446565b60008181526001602052604080822080546001600160a01b0319169055518291906001600160a01b038516907fddf252ad1be2c89b69c2b068fc378daa952ba7f163c4a11628f55a4df523b3ef908390a45050565b600082821115611598576040805162461bcd60e51b815260206004820152601e60248201527f536166654d6174683a207375627472616374696f6e206f766572666c6f770000604482015290519081900360640190fd5b5090039056fe4552433732313a207472616e7366657220746f20746865207a65726f20616464726573734552433732313a206f70657261746f7220717565727920666f72206e6f6e6578697374656e7420746f6b656e4552433732313a20617070726f76652063616c6c6572206973206e6f74206f776e6572206e6f7220617070726f76656420666f7220616c6c4552433732313a2062616c616e636520717565727920666f7220746865207a65726f20616464726573734552433732313a206f776e657220717565727920666f72206e6f6e6578697374656e7420746f6b656e5369676e657220646f6573206e6f742062656c6f6e6720746f204d756c74697369674552433732313a20617070726f76656420717565727920666f72206e6f6e6578697374656e7420746f6b656e4552433732313a207472616e73666572206f6620746f6b656e2074686174206973206e6f74206f776e4552433732313a20617070726f76616c20746f2063757272656e74206f776e6572617373657420636f756c64206e6f742062652073746f72656420696e746f2067726f7570696e6747726f7570696e6720636f6e747261637420616464726573732063616e6e6f7420626520304552433732313a207472616e736665722063616c6c6572206973206e6f74206f776e6572206e6f7220617070726f7665644552433732313a206275726e206f6620746f6b656e2074686174206973206e6f74206f776e4552433732314275726e61626c653a2063616c6c6572206973206e6f74206f776e6572206e6f7220617070726f766564a2646970667358221220b825ab2e9eb8ee57bad8f6c37d0192d945b3dcd58c23e27720da4f3e6195cd8064736f6c63430007000033",
  "immutableReferences": {},
  "source": "// SPDX-License-Identifier: MIT\n\npragma solidity >=0.7.0 <0.8.0;\n\nimport \"../V1_1/ERC721BeefLedgerV1_1.sol\";\nimport \"../Grouping.sol\";\n\ncontract ERC721BeefLedgerV1_2 is ERC721BeefLedgerV1_1 {\n\n     //upgradability\n    bool internal _initializedV12;\n\n    function initializeV12() public {\n        require(!_initializedV12, \"contract already upgraded\");\n        _initializedV12 = true;\n    }\n\n//    function ownerOf(uint256 tokenId) public override view returns (address) {\n//         address owner = _tokenOwner[tokenId];\n//         require(owner != address(0), \"ERC721: owner query for nonexistent token\");\n\n//         return owner;\n//     }\n}",
  "sourcePath": "/home/santiago/projects/beefledger/erc20_asset_grouping/src/ethereum/contracts/V1_2/ERC721BeefledgerV1_2.sol",
  "compiler": {
    "name": "solc",
    "version": "0.7.0+commit.9e61f92b.Emscripten.clang"
  },
  "schemaVersion": "3.4.1",
  "updatedAt": "2021-06-24T19:02:33.261Z",
  "devdoc": {
    "kind": "dev",
    "methods": {
      "approve(address,uint256)": {
        "details": "Approves another address to transfer the given token ID The zero address indicates there is no approved address. There can only be one approved address per token at a given time. Can only be called by the token owner or an approved operator.",
        "params": {
          "to": "address to be approved for the given token ID",
          "tokenId": "uint256 ID of the token to be approved"
        }
      },
      "balanceOf(address)": {
        "details": "Gets the balance of the specified address.",
        "params": {
          "owner": "address to query the balance of return uint256 representing the amount owned by the passed address"
        }
      },
      "burn(uint256)": {
        "details": "Burns a specific ERC721 token.",
        "params": {
          "tokenId": "uint256 id of the ERC721 token to be burned."
        }
      },
      "exists(uint256)": {
        "details": "Returns whether the specified token exists.",
        "params": {
          "tokenId": "uint256 ID of the token to query the existence of return bool whether the token exists"
        }
      },
      "getApproved(uint256)": {
        "details": "Gets the approved address for a token ID, or zero if no address set Reverts if the token ID does not exist.",
        "params": {
          "tokenId": "uint256 ID of the token to query the approval of return address currently approved for the given token ID"
        }
      },
      "isApprovedForAll(address,address)": {
        "details": "Tells whether an operator is approved by a given owner.",
        "params": {
          "operator": "operator address which you want to query the approval of return bool whether the given operator is approved by the given owner",
          "owner": "owner address which you want to query the approval of"
        }
      },
      "owner()": {
        "details": "Tells the address of the owner return the address of the owner"
      },
      "setApprovalForAll(address,bool)": {
        "details": "Sets or unsets the approval of a given operator An operator is allowed to transfer all tokens of the sender on their behalf.",
        "params": {
          "approved": "representing the status of the approval to be set",
          "to": "operator address to set the approval"
        }
      },
      "transferFrom(address,address,uint256)": {
        "details": "Transfers the ownership of a given token ID to another address. Usage of this method is discouraged, use {safeTransferFrom} whenever possible. Requires the msg.sender to be the owner, approved, or operator.",
        "params": {
          "from": "current owner of the token",
          "to": "address to receive the ownership of the given token ID",
          "tokenId": "uint256 ID of the token to be transferred"
        }
      },
      "transferOwnership(address)": {
        "details": "Allows the current owner to transfer control of the contract to a newOwner.",
        "params": {
          "newOwner": "The address to transfer ownership to."
        }
      }
    },
    "version": 1
  },
  "userdoc": {
    "kind": "user",
    "methods": {},
    "version": 1
  }
}