{
  "contractName": "ERC721BeefLedgerV1_1",
  "abi": [
    {
      "anonymous": false,
      "inputs": [
        {
          "indexed": true,
          "internalType": "address",
          "name": "owner",
          "type": "address"
        },
        {
          "indexed": true,
          "internalType": "address",
          "name": "approved",
          "type": "address"
        },
        {
          "indexed": true,
          "internalType": "uint256",
          "name": "tokenId",
          "type": "uint256"
        }
      ],
      "name": "Approval",
      "type": "event"
    },
    {
      "anonymous": false,
      "inputs": [
        {
          "indexed": true,
          "internalType": "address",
          "name": "owner",
          "type": "address"
        },
        {
          "indexed": true,
          "internalType": "address",
          "name": "operator",
          "type": "address"
        },
        {
          "indexed": false,
          "internalType": "bool",
          "name": "approved",
          "type": "bool"
        }
      ],
      "name": "ApprovalForAll",
      "type": "event"
    },
    {
      "anonymous": false,
      "inputs": [
        {
          "indexed": false,
          "internalType": "address",
          "name": "previousOwner",
          "type": "address"
        },
        {
          "indexed": false,
          "internalType": "address",
          "name": "newOwner",
          "type": "address"
        }
      ],
      "name": "OwnershipTransferred",
      "type": "event"
    },
    {
      "anonymous": false,
      "inputs": [
        {
          "indexed": true,
          "internalType": "address",
          "name": "from",
          "type": "address"
        },
        {
          "indexed": true,
          "internalType": "address",
          "name": "to",
          "type": "address"
        },
        {
          "indexed": true,
          "internalType": "uint256",
          "name": "tokenId",
          "type": "uint256"
        }
      ],
      "name": "Transfer",
      "type": "event"
    },
    {
      "inputs": [
        {
          "internalType": "address",
          "name": "to",
          "type": "address"
        },
        {
          "internalType": "uint256",
          "name": "tokenId",
          "type": "uint256"
        }
      ],
      "name": "approve",
      "outputs": [],
      "stateMutability": "nonpayable",
      "type": "function"
    },
    {
      "inputs": [
        {
          "internalType": "address",
          "name": "owner",
          "type": "address"
        }
      ],
      "name": "balanceOf",
      "outputs": [
        {
          "internalType": "uint256",
          "name": "",
          "type": "uint256"
        }
      ],
      "stateMutability": "view",
      "type": "function"
    },
    {
      "inputs": [
        {
          "internalType": "uint256",
          "name": "tokenId",
          "type": "uint256"
        }
      ],
      "name": "burn",
      "outputs": [],
      "stateMutability": "nonpayable",
      "type": "function"
    },
    {
      "inputs": [
        {
          "internalType": "uint256",
          "name": "tokenId",
          "type": "uint256"
        }
      ],
      "name": "exists",
      "outputs": [
        {
          "internalType": "bool",
          "name": "",
          "type": "bool"
        }
      ],
      "stateMutability": "view",
      "type": "function"
    },
    {
      "inputs": [
        {
          "internalType": "uint256",
          "name": "tokenId",
          "type": "uint256"
        }
      ],
      "name": "getApproved",
      "outputs": [
        {
          "internalType": "address",
          "name": "",
          "type": "address"
        }
      ],
      "stateMutability": "view",
      "type": "function"
    },
    {
      "inputs": [
        {
          "internalType": "uint256",
          "name": "tokenId",
          "type": "uint256"
        }
      ],
      "name": "getOwner",
      "outputs": [
        {
          "internalType": "address",
          "name": "",
          "type": "address"
        }
      ],
      "stateMutability": "view",
      "type": "function"
    },
    {
      "inputs": [],
      "name": "getTotalTokens",
      "outputs": [
        {
          "internalType": "uint256",
          "name": "",
          "type": "uint256"
        }
      ],
      "stateMutability": "view",
      "type": "function"
    },
    {
      "inputs": [
        {
          "internalType": "address payable",
          "name": "_owner",
          "type": "address"
        }
      ],
      "name": "initialize",
      "outputs": [],
      "stateMutability": "nonpayable",
      "type": "function"
    },
    {
      "inputs": [
        {
          "internalType": "address",
          "name": "owner",
          "type": "address"
        },
        {
          "internalType": "address",
          "name": "operator",
          "type": "address"
        }
      ],
      "name": "isApprovedForAll",
      "outputs": [
        {
          "internalType": "bool",
          "name": "",
          "type": "bool"
        }
      ],
      "stateMutability": "view",
      "type": "function"
    },
    {
      "inputs": [
        {
          "internalType": "address",
          "name": "to",
          "type": "address"
        },
        {
          "internalType": "uint256[]",
          "name": "tokenIds",
          "type": "uint256[]"
        }
      ],
      "name": "mint",
      "outputs": [
        {
          "internalType": "bool",
          "name": "",
          "type": "bool"
        }
      ],
      "stateMutability": "nonpayable",
      "type": "function"
    },
    {
      "inputs": [],
      "name": "owner",
      "outputs": [
        {
          "internalType": "address",
          "name": "",
          "type": "address"
        }
      ],
      "stateMutability": "view",
      "type": "function"
    },
    {
      "inputs": [
        {
          "internalType": "address",
          "name": "to",
          "type": "address"
        },
        {
          "internalType": "bool",
          "name": "approved",
          "type": "bool"
        }
      ],
      "name": "setApprovalForAll",
      "outputs": [],
      "stateMutability": "nonpayable",
      "type": "function"
    },
    {
      "inputs": [
        {
          "internalType": "address payable",
          "name": "multisig",
          "type": "address"
        }
      ],
      "name": "setMultisigWallet",
      "outputs": [],
      "stateMutability": "nonpayable",
      "type": "function"
    },
    {
      "inputs": [
        {
          "internalType": "address",
          "name": "from",
          "type": "address"
        },
        {
          "internalType": "address",
          "name": "to",
          "type": "address"
        },
        {
          "internalType": "uint256",
          "name": "tokenId",
          "type": "uint256"
        }
      ],
      "name": "transferFrom",
      "outputs": [],
      "stateMutability": "nonpayable",
      "type": "function"
    },
    {
      "inputs": [
        {
          "internalType": "address",
          "name": "newOwner",
          "type": "address"
        }
      ],
      "name": "transferOwnership",
      "outputs": [],
      "stateMutability": "nonpayable",
      "type": "function"
    },
    {
      "inputs": [],
      "name": "initializeV11",
      "outputs": [],
      "stateMutability": "nonpayable",
      "type": "function"
    },
    {
      "inputs": [
        {
          "internalType": "uint256[]",
          "name": "_assets",
          "type": "uint256[]"
        },
        {
          "internalType": "address",
          "name": "_groupingAddress",
          "type": "address"
        }
      ],
      "name": "addAssetsToGrouping",
      "outputs": [],
      "stateMutability": "nonpayable",
      "type": "function"
    }
  ],
  "bytecode": "0x608060405234801561001057600080fd5b5061001a3361001f565b610041565b600080546001600160a01b0319166001600160a01b0392909216919091179055565b6117bc806100506000396000f3fe608060405234801561001057600080fd5b506004361061010b5760003560e01c80638da5cb5b116100a2578063d1d274ce11610071578063d1d274ce146102da578063de836ebd14610388578063e985e9c51461043b578063f08b82e614610469578063f2fde38b146104715761010b565b80638da5cb5b14610261578063a22cb46514610269578063c41a360a14610297578063c4d66de8146102b45761010b565b80634f558e79116100de5780634f558e79146101ca57806364913477146101fb57806370a082311461022157806376b8a793146102595761010b565b8063081812fc14610110578063095ea7b31461014957806323b872dd1461017757806342966c68146101ad575b600080fd5b61012d6004803603602081101561012657600080fd5b5035610497565b604080516001600160a01b039092168252519081900360200190f35b6101756004803603604081101561015f57600080fd5b506001600160a01b0381351690602001356104f9565b005b6101756004803603606081101561018d57600080fd5b506001600160a01b0381358116916020810135909116906040013561060a565b610175600480360360208110156101c357600080fd5b503561065f565b6101e7600480360360208110156101e057600080fd5b50356106b0565b604080519115158252519081900360200190f35b6101756004803603602081101561021157600080fd5b50356001600160a01b03166106cd565b6102476004803603602081101561023757600080fd5b50356001600160a01b03166107af565b60408051918252519081900360200190f35b61017561081d565b61012d610884565b6101756004803603604081101561027f57600080fd5b506001600160a01b0381351690602001351515610893565b61012d600480360360208110156102ad57600080fd5b503561095f565b610175600480360360208110156102ca57600080fd5b50356001600160a01b031661097a565b610175600480360360408110156102f057600080fd5b81019060208101813564010000000081111561030b57600080fd5b82018360208201111561031d57600080fd5b8035906020019184602083028401116401000000008311171561033f57600080fd5b919080806020026020016040519081016040528093929190818152602001838360200280828437600092019190915250929550505090356001600160a01b03169150610a619050565b6101e76004803603604081101561039e57600080fd5b6001600160a01b0382351691908101906040810160208201356401000000008111156103c957600080fd5b8201836020820111156103db57600080fd5b803590602001918460208302840111640100000000831117156103fd57600080fd5b919080806020026020016040519081016040528093929190818152602001838360200280828437600092019190915250929550610ce9945050505050565b6101e76004803603604081101561045157600080fd5b506001600160a01b0381358116916020013516610e8e565b610247610ebc565b6101756004803603602081101561048757600080fd5b50356001600160a01b0316610ecd565b60006104a2826106b0565b6104dd5760405162461bcd60e51b815260040180806020018281038252602c81526020018061163f602c913960400191505060405180910390fd5b506000908152600260205260409020546001600160a01b031690565b600061050482610fd7565b9050806001600160a01b0316836001600160a01b031614156105575760405162461bcd60e51b81526004018080602001828103825260218152602001806116946021913960400191505060405180910390fd5b336001600160a01b038216148061057357506105738133610e8e565b6105ae5760405162461bcd60e51b81526004018080602001828103825260388152602001806115926038913960400191505060405180910390fd5b60008281526002602052604080822080546001600160a01b0319166001600160a01b0387811691821790925591518593918516917f8c5be1e5ebec7d5bd14f71427d1e84f3dd0314c0f7b2291e5b200ac8c7c3b92591a4505050565b610614338261102b565b61064f5760405162461bcd60e51b81526004018080602001828103825260318152602001806117016031913960400191505060405180910390fd5b61065a8383836110cf565b505050565b610669338261102b565b6106a45760405162461bcd60e51b81526004018080602001828103825260308152602001806117576030913960400191505060405180910390fd5b6106ad81611213565b50565b6000908152600160205260409020546001600160a01b0316151590565b6106d5610884565b6001600160a01b0316336001600160a01b031614610730576040805162461bcd60e51b815260206004820152601360248201527239b2b73232b91034b9903737ba1037bbb732b960691b604482015290519081900360640190fd5b6001600160a01b03811661078b576040805162461bcd60e51b815260206004820152601c60248201527f4d756c746973696720416464726573732063616e6e6f74206265203000000000604482015290519081900360640190fd5b600680546001600160a01b0319166001600160a01b0383161790556106ad81611225565b60006001600160a01b0382166107f65760405162461bcd60e51b815260040180806020018281038252602a8152602001806115ca602a913960400191505060405180910390fd5b6001600160a01b038216600090815260036020526040902061081790611247565b92915050565b60085460ff1615610875576040805162461bcd60e51b815260206004820152601960248201527f636f6e747261637420616c726561647920757067726164656400000000000000604482015290519081900360640190fd5b6008805460ff19166001179055565b6000546001600160a01b031690565b6001600160a01b0382163314156108f1576040805162461bcd60e51b815260206004820152601960248201527f4552433732313a20617070726f766520746f2063616c6c657200000000000000604482015290519081900360640190fd5b3360008181526004602090815260408083206001600160a01b03871680855290835292819020805460ff1916861515908117909155815190815290519293927f17307eab39ab6107e8899845ad3d59bd9653f200f220920489ca2b5937696c31929181900390910190a35050565b6000908152600160205260409020546001600160a01b031690565b600654600160a01b900460ff16156109d9576040805162461bcd60e51b815260206004820152601c60248201527f436f6e747261637420616c726561647920696e697469616c697a656400000000604482015290519081900360640190fd5b6001600160a01b038116610a28576040805162461bcd60e51b815260206004820152601160248201527004f776e65722063616e6e6f74206265203607c1b604482015290519081900360640190fd5b610a3181611225565b6006805460ff60a01b196001600160a01b039093166001600160a01b03199091161791909116600160a01b179055565b6001600160a01b038116610aa65760405162461bcd60e51b81526004018080602001828103825260258152602001806116dc6025913960400191505060405180910390fd5b606482511115610afd576040805162461bcd60e51b815260206004820152601f60248201527f6d6178696d756d206f6620746f6b656e7320746f206164642069732031303000604482015290519081900360640190fd5b604080516340d2fe7f60e11b8152336004820152905182916001600160a01b038316916381a5fcfe91602480820192602092909190829003018186803b158015610b4657600080fd5b505afa158015610b5a573d6000803e3d6000fd5b505050506040513d6020811015610b7057600080fd5b5051610b7b57600080fd5b60005b83518160ff161015610ce3576000848260ff1681518110610b9b57fe5b60200260200101519050336001600160a01b0316610bb882610fd7565b6001600160a01b031614610c07576040805162461bcd60e51b81526020600482015260116024820152703ab9b2b91034b9903737ba1037bbb732b960791b604482015290519081900360640190fd5b826001600160a01b0316630b71d256826040518263ffffffff1660e01b815260040180828152602001915050602060405180830381600087803b158015610c4d57600080fd5b505af1158015610c61573d6000803e3d6000fd5b505050506040513d6020811015610c7757600080fd5b5051610cb45760405162461bcd60e51b81526004018080602001828103825260278152602001806116b56027913960400191505060405180910390fd5b600090815260076020526040902080546001600160a01b0319166001600160a01b038516179055600101610b7e565b50505050565b600654604080516317aa5fb760e11b815233600482015290516000926001600160a01b031691632f54bf6e916024808301926020929190829003018186803b158015610d3457600080fd5b505afa158015610d48573d6000803e3d6000fd5b505050506040513d6020811015610d5e57600080fd5b5051610d9b5760405162461bcd60e51b815260040180806020018281038252602281526020018061161d6022913960400191505060405180910390fd5b606482511115610df2576040805162461bcd60e51b815260206004820181905260248201527f6d6178696d756d206f6620746f6b656e7320746f206d696e7420697320313030604482015290519081900360640190fd5b6001600160a01b038316610e4d576040805162461bcd60e51b815260206004820181905260248201527f4552433732313a206d696e7420746f20746865207a65726f2061646472657373604482015290519081900360640190fd5b60005b82518160ff161015610e8457610e7c84848360ff1681518110610e6f57fe5b602002602001015161124b565b600101610e50565b5060019392505050565b6001600160a01b03918216600090815260046020908152604080832093909416825291909152205460ff1690565b6000610ec86005611247565b905090565b610ed5610884565b6001600160a01b0316336001600160a01b031614610f30576040805162461bcd60e51b815260206004820152601360248201527239b2b73232b91034b9903737ba1037bbb732b960691b604482015290519081900360640190fd5b6001600160a01b038116610f83576040805162461bcd60e51b815260206004820152601560248201527406e6577206f776e65722063616e6e6f74206265203605c1b604482015290519081900360640190fd5b7f8be0079c531659141344cd1fd0a4f28419497f9722a3daafe3b4186f6b6457e0610fac610884565b604080516001600160a01b03928316815291841660208301528051918290030190a16106ad81611225565b6000818152600160205260408120546001600160a01b0316806108175760405162461bcd60e51b81526004018080602001828103825260298152602001806115f46029913960400191505060405180910390fd5b6000611036826106b0565b6110715760405162461bcd60e51b815260040180806020018281038252602c815260200180611566602c913960400191505060405180910390fd5b600061107c83610fd7565b9050806001600160a01b0316846001600160a01b031614806110b75750836001600160a01b03166110ac84610497565b6001600160a01b0316145b806110c757506110c78185610e8e565b949350505050565b826001600160a01b03166110e282610fd7565b6001600160a01b0316146111275760405162461bcd60e51b815260040180806020018281038252602981526020018061166b6029913960400191505060405180910390fd5b6001600160a01b03821661116c5760405162461bcd60e51b81526004018080602001828103825260248152602001806115426024913960400191505060405180910390fd5b6111758161132b565b6001600160a01b038316600090815260036020526040902061119690611366565b6001600160a01b03821660009081526003602052604090206111b790611377565b60008181526001602052604080822080546001600160a01b0319166001600160a01b0386811691821790925591518493918716917fddf252ad1be2c89b69c2b068fc378daa952ba7f163c4a11628f55a4df523b3ef91a4505050565b6106ad61121f82610fd7565b82611380565b600080546001600160a01b0319166001600160a01b0392909216919091179055565b5490565b611254816106b0565b156112a6576040805162461bcd60e51b815260206004820152601c60248201527f4552433732313a20746f6b656e20616c7265616479206d696e74656400000000604482015290519081900360640190fd5b600081815260016020908152604080832080546001600160a01b0319166001600160a01b0387169081179091558352600390915290206112e590611377565b6112ef6005611377565b60405181906001600160a01b038416906000907fddf252ad1be2c89b69c2b068fc378daa952ba7f163c4a11628f55a4df523b3ef908290a45050565b6000818152600260205260409020546001600160a01b0316156106ad57600090815260026020526040902080546001600160a01b0319169055565b8054611373906001611461565b9055565b80546001019055565b816001600160a01b031661139382610fd7565b6001600160a01b0316146113d85760405162461bcd60e51b81526004018080602001828103825260258152602001806117326025913960400191505060405180910390fd5b6113e18161132b565b6001600160a01b038216600090815260036020526040902061140290611366565b61140c6005611366565b60008181526001602052604080822080546001600160a01b0319169055518291906001600160a01b038516907fddf252ad1be2c89b69c2b068fc378daa952ba7f163c4a11628f55a4df523b3ef908390a45050565b60006114a383836040518060400160405280601e81526020017f536166654d6174683a207375627472616374696f6e206f766572666c6f7700008152506114aa565b9392505050565b600081848411156115395760405162461bcd60e51b81526004018080602001828103825283818151815260200191508051906020019080838360005b838110156114fe5781810151838201526020016114e6565b50505050905090810190601f16801561152b5780820380516001836020036101000a031916815260200191505b509250505060405180910390fd5b50505090039056fe4552433732313a207472616e7366657220746f20746865207a65726f20616464726573734552433732313a206f70657261746f7220717565727920666f72206e6f6e6578697374656e7420746f6b656e4552433732313a20617070726f76652063616c6c6572206973206e6f74206f776e6572206e6f7220617070726f76656420666f7220616c6c4552433732313a2062616c616e636520717565727920666f7220746865207a65726f20616464726573734552433732313a206f776e657220717565727920666f72206e6f6e6578697374656e7420746f6b656e5369676e657220646f6573206e6f742062656c6f6e6720746f204d756c74697369674552433732313a20617070726f76656420717565727920666f72206e6f6e6578697374656e7420746f6b656e4552433732313a207472616e73666572206f6620746f6b656e2074686174206973206e6f74206f776e4552433732313a20617070726f76616c20746f2063757272656e74206f776e6572617373657420636f756c64206e6f742062652073746f72656420696e746f2067726f7570696e6747726f7570696e6720636f6e747261637420616464726573732063616e6e6f7420626520304552433732313a207472616e736665722063616c6c6572206973206e6f74206f776e6572206e6f7220617070726f7665644552433732313a206275726e206f6620746f6b656e2074686174206973206e6f74206f776e4552433732314275726e61626c653a2063616c6c6572206973206e6f74206f776e6572206e6f7220617070726f766564a264697066735822122072fa981fc55b1010a5d6455ac3a97800bfa6043786bedfdedf25d64c6e1b6f5964736f6c63430007000033",
  "immutableReferences": {},
  "source": "// SPDX-License-Identifier: MIT\n\npragma solidity >=0.7.0 <0.8.0;\n\nimport \"../V1_0/ERC721BeefLedgerV1_0.sol\";\nimport \"../Grouping.sol\";\n\ncontract ERC721BeefLedgerV1_1 is ERC721BeefLedgerV1_0 {\n\n    //In the form of uid -> groupingContractAddress\n    mapping(uint256 => address) internal _groupedUids;\n\n     //upgradability\n    bool internal _initializedV11;\n\n    function initializeV11() public {\n        require(!_initializedV11, \"contract already upgraded\");\n        _initializedV11 = true;\n    }\n\n    function addAssetsToGrouping(uint256[] memory _assets, address _groupingAddress) virtual external {\n        require(_groupingAddress != address(0), \"Grouping contract address cannot be 0\");\n        require(_assets.length <= 100, \"maximum of tokens to add is 100\");\n        Grouping grouping = Grouping(_groupingAddress);\n        require(grouping.isOperatorApproved(msg.sender));\n        for(uint8 i = 0; i < _assets.length; i++) {\n            uint256 asset = _assets[i];\n            require(ownerOf(asset) == msg.sender, \"user is not owner\");\n            require(grouping.addAsset(asset), \"asset could not be stored into grouping\");\n            _groupedUids[asset] = _groupingAddress;\n        }\n    }\n}",
  "sourcePath": "/home/santiago/projects/beefledger/erc20_asset_grouping/src/ethereum/contracts/V1_1/ERC721BeefLedgerV1_1.sol",
  "compiler": {
    "name": "solc",
    "version": "0.7.0+commit.9e61f92b.Emscripten.clang"
  },
  "schemaVersion": "3.3.2",
  "updatedAt": "2021-02-08T19:42:06.004Z",
  "devdoc": {
    "kind": "dev",
    "methods": {
      "approve(address,uint256)": {
        "details": "Approves another address to transfer the given token ID The zero address indicates there is no approved address. There can only be one approved address per token at a given time. Can only be called by the token owner or an approved operator.",
        "params": {
          "to": "address to be approved for the given token ID",
          "tokenId": "uint256 ID of the token to be approved"
        }
      },
      "balanceOf(address)": {
        "details": "Gets the balance of the specified address.",
        "params": {
          "owner": "address to query the balance of return uint256 representing the amount owned by the passed address"
        }
      },
      "burn(uint256)": {
        "details": "Burns a specific ERC721 token.",
        "params": {
          "tokenId": "uint256 id of the ERC721 token to be burned."
        }
      },
      "exists(uint256)": {
        "details": "Returns whether the specified token exists.",
        "params": {
          "tokenId": "uint256 ID of the token to query the existence of return bool whether the token exists"
        }
      },
      "getApproved(uint256)": {
        "details": "Gets the approved address for a token ID, or zero if no address set Reverts if the token ID does not exist.",
        "params": {
          "tokenId": "uint256 ID of the token to query the approval of return address currently approved for the given token ID"
        }
      },
      "isApprovedForAll(address,address)": {
        "details": "Tells whether an operator is approved by a given owner.",
        "params": {
          "operator": "operator address which you want to query the approval of return bool whether the given operator is approved by the given owner",
          "owner": "owner address which you want to query the approval of"
        }
      },
      "owner()": {
        "details": "Tells the address of the owner return the address of the owner"
      },
      "setApprovalForAll(address,bool)": {
        "details": "Sets or unsets the approval of a given operator An operator is allowed to transfer all tokens of the sender on their behalf.",
        "params": {
          "approved": "representing the status of the approval to be set",
          "to": "operator address to set the approval"
        }
      },
      "transferFrom(address,address,uint256)": {
        "details": "Transfers the ownership of a given token ID to another address. Usage of this method is discouraged, use {safeTransferFrom} whenever possible. Requires the msg.sender to be the owner, approved, or operator.",
        "params": {
          "from": "current owner of the token",
          "to": "address to receive the ownership of the given token ID",
          "tokenId": "uint256 ID of the token to be transferred"
        }
      },
      "transferOwnership(address)": {
        "details": "Allows the current owner to transfer control of the contract to a newOwner.",
        "params": {
          "newOwner": "The address to transfer ownership to."
        }
      }
    },
    "version": 1
  },
  "userdoc": {
    "kind": "user",
    "methods": {},
    "version": 1
  }
}