{
  "contractName": "ERC721BeefLedgerV1_2_1",
  "abi": [
    {
      "anonymous": false,
      "inputs": [
        {
          "indexed": true,
          "internalType": "address",
          "name": "owner",
          "type": "address"
        },
        {
          "indexed": true,
          "internalType": "address",
          "name": "approved",
          "type": "address"
        },
        {
          "indexed": true,
          "internalType": "uint256",
          "name": "tokenId",
          "type": "uint256"
        }
      ],
      "name": "Approval",
      "type": "event"
    },
    {
      "anonymous": false,
      "inputs": [
        {
          "indexed": true,
          "internalType": "address",
          "name": "owner",
          "type": "address"
        },
        {
          "indexed": true,
          "internalType": "address",
          "name": "operator",
          "type": "address"
        },
        {
          "indexed": false,
          "internalType": "bool",
          "name": "approved",
          "type": "bool"
        }
      ],
      "name": "ApprovalForAll",
      "type": "event"
    },
    {
      "anonymous": false,
      "inputs": [
        {
          "indexed": false,
          "internalType": "address",
          "name": "previousOwner",
          "type": "address"
        },
        {
          "indexed": false,
          "internalType": "address",
          "name": "newOwner",
          "type": "address"
        }
      ],
      "name": "OwnershipTransferred",
      "type": "event"
    },
    {
      "anonymous": false,
      "inputs": [
        {
          "indexed": true,
          "internalType": "address",
          "name": "from",
          "type": "address"
        },
        {
          "indexed": true,
          "internalType": "address",
          "name": "to",
          "type": "address"
        },
        {
          "indexed": true,
          "internalType": "uint256",
          "name": "tokenId",
          "type": "uint256"
        }
      ],
      "name": "Transfer",
      "type": "event"
    },
    {
      "inputs": [
        {
          "internalType": "uint256[]",
          "name": "_assets",
          "type": "uint256[]"
        },
        {
          "internalType": "address",
          "name": "_groupingAddress",
          "type": "address"
        }
      ],
      "name": "addAssetsToGrouping",
      "outputs": [],
      "stateMutability": "nonpayable",
      "type": "function"
    },
    {
      "inputs": [
        {
          "internalType": "address",
          "name": "to",
          "type": "address"
        },
        {
          "internalType": "uint256",
          "name": "tokenId",
          "type": "uint256"
        }
      ],
      "name": "approve",
      "outputs": [],
      "stateMutability": "nonpayable",
      "type": "function"
    },
    {
      "inputs": [
        {
          "internalType": "address",
          "name": "owner",
          "type": "address"
        }
      ],
      "name": "balanceOf",
      "outputs": [
        {
          "internalType": "uint256",
          "name": "",
          "type": "uint256"
        }
      ],
      "stateMutability": "view",
      "type": "function"
    },
    {
      "inputs": [
        {
          "internalType": "uint256",
          "name": "tokenId",
          "type": "uint256"
        }
      ],
      "name": "burn",
      "outputs": [],
      "stateMutability": "nonpayable",
      "type": "function"
    },
    {
      "inputs": [
        {
          "internalType": "uint256",
          "name": "tokenId",
          "type": "uint256"
        }
      ],
      "name": "exists",
      "outputs": [
        {
          "internalType": "bool",
          "name": "",
          "type": "bool"
        }
      ],
      "stateMutability": "view",
      "type": "function"
    },
    {
      "inputs": [
        {
          "internalType": "uint256",
          "name": "tokenId",
          "type": "uint256"
        }
      ],
      "name": "getApproved",
      "outputs": [
        {
          "internalType": "address",
          "name": "",
          "type": "address"
        }
      ],
      "stateMutability": "view",
      "type": "function"
    },
    {
      "inputs": [
        {
          "internalType": "uint256",
          "name": "_asset",
          "type": "uint256"
        }
      ],
      "name": "getGroupingAddress",
      "outputs": [
        {
          "internalType": "address",
          "name": "",
          "type": "address"
        }
      ],
      "stateMutability": "view",
      "type": "function"
    },
    {
      "inputs": [
        {
          "internalType": "uint256",
          "name": "tokenId",
          "type": "uint256"
        }
      ],
      "name": "getOwner",
      "outputs": [
        {
          "internalType": "address",
          "name": "",
          "type": "address"
        }
      ],
      "stateMutability": "view",
      "type": "function"
    },
    {
      "inputs": [],
      "name": "getTotalTokens",
      "outputs": [
        {
          "internalType": "uint256",
          "name": "",
          "type": "uint256"
        }
      ],
      "stateMutability": "view",
      "type": "function"
    },
    {
      "inputs": [
        {
          "internalType": "address payable",
          "name": "_owner",
          "type": "address"
        }
      ],
      "name": "initialize",
      "outputs": [],
      "stateMutability": "nonpayable",
      "type": "function"
    },
    {
      "inputs": [],
      "name": "initializeV11",
      "outputs": [],
      "stateMutability": "nonpayable",
      "type": "function"
    },
    {
      "inputs": [
        {
          "internalType": "address",
          "name": "owner",
          "type": "address"
        },
        {
          "internalType": "address",
          "name": "operator",
          "type": "address"
        }
      ],
      "name": "isApprovedForAll",
      "outputs": [
        {
          "internalType": "bool",
          "name": "",
          "type": "bool"
        }
      ],
      "stateMutability": "view",
      "type": "function"
    },
    {
      "inputs": [
        {
          "internalType": "address",
          "name": "to",
          "type": "address"
        },
        {
          "internalType": "uint256[]",
          "name": "tokenIds",
          "type": "uint256[]"
        }
      ],
      "name": "mint",
      "outputs": [
        {
          "internalType": "bool",
          "name": "",
          "type": "bool"
        }
      ],
      "stateMutability": "nonpayable",
      "type": "function"
    },
    {
      "inputs": [],
      "name": "owner",
      "outputs": [
        {
          "internalType": "address",
          "name": "",
          "type": "address"
        }
      ],
      "stateMutability": "view",
      "type": "function"
    },
    {
      "inputs": [
        {
          "internalType": "address",
          "name": "to",
          "type": "address"
        },
        {
          "internalType": "bool",
          "name": "approved",
          "type": "bool"
        }
      ],
      "name": "setApprovalForAll",
      "outputs": [],
      "stateMutability": "nonpayable",
      "type": "function"
    },
    {
      "inputs": [
        {
          "internalType": "address payable",
          "name": "multisig",
          "type": "address"
        }
      ],
      "name": "setMultisigWallet",
      "outputs": [],
      "stateMutability": "nonpayable",
      "type": "function"
    },
    {
      "inputs": [
        {
          "internalType": "address",
          "name": "from",
          "type": "address"
        },
        {
          "internalType": "address",
          "name": "to",
          "type": "address"
        },
        {
          "internalType": "uint256",
          "name": "tokenId",
          "type": "uint256"
        }
      ],
      "name": "transferFrom",
      "outputs": [],
      "stateMutability": "nonpayable",
      "type": "function"
    },
    {
      "inputs": [
        {
          "internalType": "address",
          "name": "newOwner",
          "type": "address"
        }
      ],
      "name": "transferOwnership",
      "outputs": [],
      "stateMutability": "nonpayable",
      "type": "function"
    },
    {
      "inputs": [
        {
          "internalType": "uint256",
          "name": "tokenId",
          "type": "uint256"
        }
      ],
      "name": "ownerOf",
      "outputs": [
        {
          "internalType": "address",
          "name": "",
          "type": "address"
        }
      ],
      "stateMutability": "view",
      "type": "function"
    }
  ],
  "bytecode": "0x608060405234801561001057600080fd5b5061001a3361001f565b610041565b600080546001600160a01b0319166001600160a01b0392909216919091179055565b6117d3806100506000396000f3fe608060405234801561001057600080fd5b50600436106101215760003560e01c80637baeb04d116100ad578063d1d274ce11610071578063d1d274ce1461032a578063de836ebd146103d8578063e985e9c51461048b578063f08b82e6146104b9578063f2fde38b146104c157610121565b80637baeb04d146102945780638da5cb5b146102b1578063a22cb465146102b9578063c41a360a146102e7578063c4d66de81461030457610121565b80634f558e79116100f45780634f558e79146101e05780636352211e14610211578063649134771461022e57806370a082311461025457806376b8a7931461028c57610121565b8063081812fc14610126578063095ea7b31461015f57806323b872dd1461018d57806342966c68146101c3575b600080fd5b6101436004803603602081101561013c57600080fd5b50356104e7565b604080516001600160a01b039092168252519081900360200190f35b61018b6004803603604081101561017557600080fd5b506001600160a01b038135169060200135610549565b005b61018b600480360360608110156101a357600080fd5b506001600160a01b0381358116916020810135909116906040013561065a565b61018b600480360360208110156101d957600080fd5b50356106af565b6101fd600480360360208110156101f657600080fd5b5035610700565b604080519115158252519081900360200190f35b6101436004803603602081101561022757600080fd5b503561071d565b61018b6004803603602081101561024457600080fd5b50356001600160a01b031661072e565b61027a6004803603602081101561026a57600080fd5b50356001600160a01b0316610810565b60408051918252519081900360200190f35b61018b610878565b610143600480360360208110156102aa57600080fd5b50356108df565b6101436108fa565b61018b600480360360408110156102cf57600080fd5b506001600160a01b0381351690602001351515610909565b610143600480360360208110156102fd57600080fd5b50356109d5565b61018b6004803603602081101561031a57600080fd5b50356001600160a01b03166109f0565b61018b6004803603604081101561034057600080fd5b81019060208101813564010000000081111561035b57600080fd5b82018360208201111561036d57600080fd5b8035906020019184602083028401116401000000008311171561038f57600080fd5b919080806020026020016040519081016040528093929190818152602001838360200280828437600092019190915250929550505090356001600160a01b03169150610ad79050565b6101fd600480360360408110156103ee57600080fd5b6001600160a01b03823516919081019060408101602082013564010000000081111561041957600080fd5b82018360208201111561042b57600080fd5b8035906020019184602083028401116401000000008311171561044d57600080fd5b919080806020026020016040519081016040528093929190818152602001838360200280828437600092019190915250929550610d83945050505050565b6101fd600480360360408110156104a157600080fd5b506001600160a01b0381358116916020013516610f28565b61027a610f56565b61018b600480360360208110156104d757600080fd5b50356001600160a01b0316610f67565b60006104f282610700565b61052d5760405162461bcd60e51b815260040180806020018281038252602c815260200180611656602c913960400191505060405180910390fd5b506000908152600260205260409020546001600160a01b031690565b600061055482611071565b9050806001600160a01b0316836001600160a01b031614156105a75760405162461bcd60e51b81526004018080602001828103825260218152602001806116ab6021913960400191505060405180910390fd5b336001600160a01b03821614806105c357506105c38133610f28565b6105fe5760405162461bcd60e51b81526004018080602001828103825260388152602001806115a96038913960400191505060405180910390fd5b60008281526002602052604080822080546001600160a01b0319166001600160a01b0387811691821790925591518593918516917f8c5be1e5ebec7d5bd14f71427d1e84f3dd0314c0f7b2291e5b200ac8c7c3b92591a4505050565b61066433826110c5565b61069f5760405162461bcd60e51b81526004018080602001828103825260318152602001806117186031913960400191505060405180910390fd5b6106aa838383611169565b505050565b6106b933826110c5565b6106f45760405162461bcd60e51b815260040180806020018281038252603081526020018061176e6030913960400191505060405180910390fd5b6106fd816112ad565b50565b6000908152600160205260409020546001600160a01b0316151590565b600061072882611071565b92915050565b6107366108fa565b6001600160a01b0316336001600160a01b031614610791576040805162461bcd60e51b815260206004820152601360248201527239b2b73232b91034b9903737ba1037bbb732b960691b604482015290519081900360640190fd5b6001600160a01b0381166107ec576040805162461bcd60e51b815260206004820152601c60248201527f4d756c746973696720416464726573732063616e6e6f74206265203000000000604482015290519081900360640190fd5b600680546001600160a01b0319166001600160a01b0383161790556106fd816112bf565b60006001600160a01b0382166108575760405162461bcd60e51b815260040180806020018281038252602a8152602001806115e1602a913960400191505060405180910390fd5b6001600160a01b0382166000908152600360205260409020610728906112e1565b60085460ff16156108d0576040805162461bcd60e51b815260206004820152601960248201527f636f6e747261637420616c726561647920757067726164656400000000000000604482015290519081900360640190fd5b6008805460ff19166001179055565b6000908152600760205260409020546001600160a01b031690565b6000546001600160a01b031690565b6001600160a01b038216331415610967576040805162461bcd60e51b815260206004820152601960248201527f4552433732313a20617070726f766520746f2063616c6c657200000000000000604482015290519081900360640190fd5b3360008181526004602090815260408083206001600160a01b03871680855290835292819020805460ff1916861515908117909155815190815290519293927f17307eab39ab6107e8899845ad3d59bd9653f200f220920489ca2b5937696c31929181900390910190a35050565b6000908152600160205260409020546001600160a01b031690565b600654600160a01b900460ff1615610a4f576040805162461bcd60e51b815260206004820152601c60248201527f436f6e747261637420616c726561647920696e697469616c697a656400000000604482015290519081900360640190fd5b6001600160a01b038116610a9e576040805162461bcd60e51b815260206004820152601160248201527004f776e65722063616e6e6f74206265203607c1b604482015290519081900360640190fd5b610aa7816112bf565b6006805460ff60a01b196001600160a01b039093166001600160a01b03199091161791909116600160a01b179055565b600654604080516317aa5fb760e11b815233600482015290516001600160a01b0390921691632f54bf6e91602480820192602092909190829003018186803b158015610b2257600080fd5b505afa158015610b36573d6000803e3d6000fd5b505050506040513d6020811015610b4c57600080fd5b5051610b895760405162461bcd60e51b81526004018080602001828103825260228152602001806116346022913960400191505060405180910390fd5b6001600160a01b038116610bce5760405162461bcd60e51b81526004018080602001828103825260258152602001806116f36025913960400191505060405180910390fd5b606482511115610c25576040805162461bcd60e51b815260206004820152601f60248201527f6d6178696d756d206f6620746f6b656e7320746f206164642069732031303000604482015290519081900360640190fd5b8060005b83518160ff161015610d7d576000848260ff1681518110610c4657fe5b60200260200101519050610c5981610700565b610ca1576040805162461bcd60e51b8152602060048201526014602482015273185cdcd95d08191bd95cc81b9bdd08195e1a5cdd60621b604482015290519081900360640190fd5b826001600160a01b0316630b71d256826040518263ffffffff1660e01b815260040180828152602001915050602060405180830381600087803b158015610ce757600080fd5b505af1158015610cfb573d6000803e3d6000fd5b505050506040513d6020811015610d1157600080fd5b5051610d4e5760405162461bcd60e51b81526004018080602001828103825260278152602001806116cc6027913960400191505060405180910390fd5b600090815260076020526040902080546001600160a01b0319166001600160a01b038516179055600101610c29565b50505050565b600654604080516317aa5fb760e11b815233600482015290516000926001600160a01b031691632f54bf6e916024808301926020929190829003018186803b158015610dce57600080fd5b505afa158015610de2573d6000803e3d6000fd5b505050506040513d6020811015610df857600080fd5b5051610e355760405162461bcd60e51b81526004018080602001828103825260228152602001806116346022913960400191505060405180910390fd5b606482511115610e8c576040805162461bcd60e51b815260206004820181905260248201527f6d6178696d756d206f6620746f6b656e7320746f206d696e7420697320313030604482015290519081900360640190fd5b6001600160a01b038316610ee7576040805162461bcd60e51b815260206004820181905260248201527f4552433732313a206d696e7420746f20746865207a65726f2061646472657373604482015290519081900360640190fd5b60005b82518160ff161015610f1e57610f1684848360ff1681518110610f0957fe5b60200260200101516112e5565b600101610eea565b5060019392505050565b6001600160a01b03918216600090815260046020908152604080832093909416825291909152205460ff1690565b6000610f6260056112e1565b905090565b610f6f6108fa565b6001600160a01b0316336001600160a01b031614610fca576040805162461bcd60e51b815260206004820152601360248201527239b2b73232b91034b9903737ba1037bbb732b960691b604482015290519081900360640190fd5b6001600160a01b03811661101d576040805162461bcd60e51b815260206004820152601560248201527406e6577206f776e65722063616e6e6f74206265203605c1b604482015290519081900360640190fd5b7f8be0079c531659141344cd1fd0a4f28419497f9722a3daafe3b4186f6b6457e06110466108fa565b604080516001600160a01b03928316815291841660208301528051918290030190a16106fd816112bf565b6000818152600160205260408120546001600160a01b0316806107285760405162461bcd60e51b815260040180806020018281038252602981526020018061160b6029913960400191505060405180910390fd5b60006110d082610700565b61110b5760405162461bcd60e51b815260040180806020018281038252602c81526020018061157d602c913960400191505060405180910390fd5b600061111683611071565b9050806001600160a01b0316846001600160a01b031614806111515750836001600160a01b0316611146846104e7565b6001600160a01b0316145b8061116157506111618185610f28565b949350505050565b826001600160a01b031661117c82611071565b6001600160a01b0316146111c15760405162461bcd60e51b81526004018080602001828103825260298152602001806116826029913960400191505060405180910390fd5b6001600160a01b0382166112065760405162461bcd60e51b81526004018080602001828103825260248152602001806115596024913960400191505060405180910390fd5b61120f816113c5565b6001600160a01b038316600090815260036020526040902061123090611400565b6001600160a01b038216600090815260036020526040902061125190611411565b60008181526001602052604080822080546001600160a01b0319166001600160a01b0386811691821790925591518493918716917fddf252ad1be2c89b69c2b068fc378daa952ba7f163c4a11628f55a4df523b3ef91a4505050565b6106fd6112b982611071565b8261141a565b600080546001600160a01b0319166001600160a01b0392909216919091179055565b5490565b6112ee81610700565b15611340576040805162461bcd60e51b815260206004820152601c60248201527f4552433732313a20746f6b656e20616c7265616479206d696e74656400000000604482015290519081900360640190fd5b600081815260016020908152604080832080546001600160a01b0319166001600160a01b03871690811790915583526003909152902061137f90611411565b6113896005611411565b60405181906001600160a01b038416906000907fddf252ad1be2c89b69c2b068fc378daa952ba7f163c4a11628f55a4df523b3ef908290a45050565b6000818152600260205260409020546001600160a01b0316156106fd57600090815260026020526040902080546001600160a01b0319169055565b805461140d9060016114fb565b9055565b80546001019055565b816001600160a01b031661142d82611071565b6001600160a01b0316146114725760405162461bcd60e51b81526004018080602001828103825260258152602001806117496025913960400191505060405180910390fd5b61147b816113c5565b6001600160a01b038216600090815260036020526040902061149c90611400565b6114a66005611400565b60008181526001602052604080822080546001600160a01b0319169055518291906001600160a01b038516907fddf252ad1be2c89b69c2b068fc378daa952ba7f163c4a11628f55a4df523b3ef908390a45050565b600082821115611552576040805162461bcd60e51b815260206004820152601e60248201527f536166654d6174683a207375627472616374696f6e206f766572666c6f770000604482015290519081900360640190fd5b5090039056fe4552433732313a207472616e7366657220746f20746865207a65726f20616464726573734552433732313a206f70657261746f7220717565727920666f72206e6f6e6578697374656e7420746f6b656e4552433732313a20617070726f76652063616c6c6572206973206e6f74206f776e6572206e6f7220617070726f76656420666f7220616c6c4552433732313a2062616c616e636520717565727920666f7220746865207a65726f20616464726573734552433732313a206f776e657220717565727920666f72206e6f6e6578697374656e7420746f6b656e5369676e657220646f6573206e6f742062656c6f6e6720746f204d756c74697369674552433732313a20617070726f76656420717565727920666f72206e6f6e6578697374656e7420746f6b656e4552433732313a207472616e73666572206f6620746f6b656e2074686174206973206e6f74206f776e4552433732313a20617070726f76616c20746f2063757272656e74206f776e6572617373657420636f756c64206e6f742062652073746f72656420696e746f2067726f7570696e6747726f7570696e6720636f6e747261637420616464726573732063616e6e6f7420626520304552433732313a207472616e736665722063616c6c6572206973206e6f74206f776e6572206e6f7220617070726f7665644552433732313a206275726e206f6620746f6b656e2074686174206973206e6f74206f776e4552433732314275726e61626c653a2063616c6c6572206973206e6f74206f776e6572206e6f7220617070726f766564a2646970667358221220d39c4830a435d15fe4bf7802718f8b5ccfa01bb5c92a804c5a2c2ce2863b4ddb64736f6c63430007000033",
  "immutableReferences": {},
  "source": "// SPDX-License-Identifier: MIT\n\npragma solidity >=0.7.0 <0.8.0;\n\nimport \"../V1_1/ERC721BeefLedgerV1_1.sol\";\n\ncontract ERC721BeefLedgerV1_2_1 is ERC721BeefLedgerV1_1 {\n\n    function ownerOf(uint256 tokenId) external virtual view returns (address) {\n        return _ownerOf(tokenId);\n    }\n}",
  "sourcePath": "/home/santiago/projects/beefledger/erc20_asset_grouping/src/ethereum/contracts/V1_2/ERC721BeefledgerV1_2_1.sol",
  "compiler": {
    "name": "solc",
    "version": "0.7.0+commit.9e61f92b.Emscripten.clang"
  },
  "schemaVersion": "3.4.1",
  "updatedAt": "2021-06-28T23:01:15.427Z",
  "devdoc": {
    "kind": "dev",
    "methods": {
      "approve(address,uint256)": {
        "details": "Approves another address to transfer the given token ID The zero address indicates there is no approved address. There can only be one approved address per token at a given time. Can only be called by the token owner or an approved operator.",
        "params": {
          "to": "address to be approved for the given token ID",
          "tokenId": "uint256 ID of the token to be approved"
        }
      },
      "balanceOf(address)": {
        "details": "Gets the balance of the specified address.",
        "params": {
          "owner": "address to query the balance of return uint256 representing the amount owned by the passed address"
        }
      },
      "burn(uint256)": {
        "details": "Burns a specific ERC721 token.",
        "params": {
          "tokenId": "uint256 id of the ERC721 token to be burned."
        }
      },
      "exists(uint256)": {
        "details": "Returns whether the specified token exists.",
        "params": {
          "tokenId": "uint256 ID of the token to query the existence of return bool whether the token exists"
        }
      },
      "getApproved(uint256)": {
        "details": "Gets the approved address for a token ID, or zero if no address set Reverts if the token ID does not exist.",
        "params": {
          "tokenId": "uint256 ID of the token to query the approval of return address currently approved for the given token ID"
        }
      },
      "isApprovedForAll(address,address)": {
        "details": "Tells whether an operator is approved by a given owner.",
        "params": {
          "operator": "operator address which you want to query the approval of return bool whether the given operator is approved by the given owner",
          "owner": "owner address which you want to query the approval of"
        }
      },
      "owner()": {
        "details": "Tells the address of the owner return the address of the owner"
      },
      "setApprovalForAll(address,bool)": {
        "details": "Sets or unsets the approval of a given operator An operator is allowed to transfer all tokens of the sender on their behalf.",
        "params": {
          "approved": "representing the status of the approval to be set",
          "to": "operator address to set the approval"
        }
      },
      "transferFrom(address,address,uint256)": {
        "details": "Transfers the ownership of a given token ID to another address. Usage of this method is discouraged, use {safeTransferFrom} whenever possible. Requires the msg.sender to be the owner, approved, or operator.",
        "params": {
          "from": "current owner of the token",
          "to": "address to receive the ownership of the given token ID",
          "tokenId": "uint256 ID of the token to be transferred"
        }
      },
      "transferOwnership(address)": {
        "details": "Allows the current owner to transfer control of the contract to a newOwner.",
        "params": {
          "newOwner": "The address to transfer ownership to."
        }
      }
    },
    "version": 1
  },
  "userdoc": {
    "kind": "user",
    "methods": {},
    "version": 1
  }
}