{
  "contractName": "ERC721BeefLedgerV1_1",
  "abi": [
    {
      "anonymous": false,
      "inputs": [
        {
          "indexed": true,
          "internalType": "address",
          "name": "owner",
          "type": "address"
        },
        {
          "indexed": true,
          "internalType": "address",
          "name": "approved",
          "type": "address"
        },
        {
          "indexed": true,
          "internalType": "uint256",
          "name": "tokenId",
          "type": "uint256"
        }
      ],
      "name": "Approval",
      "type": "event"
    },
    {
      "anonymous": false,
      "inputs": [
        {
          "indexed": true,
          "internalType": "address",
          "name": "owner",
          "type": "address"
        },
        {
          "indexed": true,
          "internalType": "address",
          "name": "operator",
          "type": "address"
        },
        {
          "indexed": false,
          "internalType": "bool",
          "name": "approved",
          "type": "bool"
        }
      ],
      "name": "ApprovalForAll",
      "type": "event"
    },
    {
      "anonymous": false,
      "inputs": [
        {
          "indexed": false,
          "internalType": "address",
          "name": "previousOwner",
          "type": "address"
        },
        {
          "indexed": false,
          "internalType": "address",
          "name": "newOwner",
          "type": "address"
        }
      ],
      "name": "OwnershipTransferred",
      "type": "event"
    },
    {
      "anonymous": false,
      "inputs": [
        {
          "indexed": true,
          "internalType": "address",
          "name": "from",
          "type": "address"
        },
        {
          "indexed": true,
          "internalType": "address",
          "name": "to",
          "type": "address"
        },
        {
          "indexed": true,
          "internalType": "uint256",
          "name": "tokenId",
          "type": "uint256"
        }
      ],
      "name": "Transfer",
      "type": "event"
    },
    {
      "inputs": [
        {
          "internalType": "address",
          "name": "to",
          "type": "address"
        },
        {
          "internalType": "uint256",
          "name": "tokenId",
          "type": "uint256"
        }
      ],
      "name": "approve",
      "outputs": [],
      "stateMutability": "nonpayable",
      "type": "function"
    },
    {
      "inputs": [
        {
          "internalType": "address",
          "name": "owner",
          "type": "address"
        }
      ],
      "name": "balanceOf",
      "outputs": [
        {
          "internalType": "uint256",
          "name": "",
          "type": "uint256"
        }
      ],
      "stateMutability": "view",
      "type": "function"
    },
    {
      "inputs": [
        {
          "internalType": "uint256",
          "name": "tokenId",
          "type": "uint256"
        }
      ],
      "name": "burn",
      "outputs": [],
      "stateMutability": "nonpayable",
      "type": "function"
    },
    {
      "inputs": [
        {
          "internalType": "uint256",
          "name": "tokenId",
          "type": "uint256"
        }
      ],
      "name": "exists",
      "outputs": [
        {
          "internalType": "bool",
          "name": "",
          "type": "bool"
        }
      ],
      "stateMutability": "view",
      "type": "function"
    },
    {
      "inputs": [
        {
          "internalType": "uint256",
          "name": "tokenId",
          "type": "uint256"
        }
      ],
      "name": "getApproved",
      "outputs": [
        {
          "internalType": "address",
          "name": "",
          "type": "address"
        }
      ],
      "stateMutability": "view",
      "type": "function"
    },
    {
      "inputs": [
        {
          "internalType": "uint256",
          "name": "tokenId",
          "type": "uint256"
        }
      ],
      "name": "getOwner",
      "outputs": [
        {
          "internalType": "address",
          "name": "",
          "type": "address"
        }
      ],
      "stateMutability": "view",
      "type": "function"
    },
    {
      "inputs": [],
      "name": "getTotalTokens",
      "outputs": [
        {
          "internalType": "uint256",
          "name": "",
          "type": "uint256"
        }
      ],
      "stateMutability": "view",
      "type": "function"
    },
    {
      "inputs": [
        {
          "internalType": "address payable",
          "name": "_owner",
          "type": "address"
        }
      ],
      "name": "initialize",
      "outputs": [],
      "stateMutability": "nonpayable",
      "type": "function"
    },
    {
      "inputs": [
        {
          "internalType": "address",
          "name": "owner",
          "type": "address"
        },
        {
          "internalType": "address",
          "name": "operator",
          "type": "address"
        }
      ],
      "name": "isApprovedForAll",
      "outputs": [
        {
          "internalType": "bool",
          "name": "",
          "type": "bool"
        }
      ],
      "stateMutability": "view",
      "type": "function"
    },
    {
      "inputs": [
        {
          "internalType": "address",
          "name": "to",
          "type": "address"
        },
        {
          "internalType": "uint256[]",
          "name": "tokenIds",
          "type": "uint256[]"
        }
      ],
      "name": "mint",
      "outputs": [
        {
          "internalType": "bool",
          "name": "",
          "type": "bool"
        }
      ],
      "stateMutability": "nonpayable",
      "type": "function"
    },
    {
      "inputs": [],
      "name": "owner",
      "outputs": [
        {
          "internalType": "address",
          "name": "",
          "type": "address"
        }
      ],
      "stateMutability": "view",
      "type": "function"
    },
    {
      "inputs": [
        {
          "internalType": "address",
          "name": "to",
          "type": "address"
        },
        {
          "internalType": "bool",
          "name": "approved",
          "type": "bool"
        }
      ],
      "name": "setApprovalForAll",
      "outputs": [],
      "stateMutability": "nonpayable",
      "type": "function"
    },
    {
      "inputs": [
        {
          "internalType": "address payable",
          "name": "multisig",
          "type": "address"
        }
      ],
      "name": "setMultisigWallet",
      "outputs": [],
      "stateMutability": "nonpayable",
      "type": "function"
    },
    {
      "inputs": [
        {
          "internalType": "address",
          "name": "from",
          "type": "address"
        },
        {
          "internalType": "address",
          "name": "to",
          "type": "address"
        },
        {
          "internalType": "uint256",
          "name": "tokenId",
          "type": "uint256"
        }
      ],
      "name": "transferFrom",
      "outputs": [],
      "stateMutability": "nonpayable",
      "type": "function"
    },
    {
      "inputs": [
        {
          "internalType": "address",
          "name": "newOwner",
          "type": "address"
        }
      ],
      "name": "transferOwnership",
      "outputs": [],
      "stateMutability": "nonpayable",
      "type": "function"
    },
    {
      "inputs": [],
      "name": "initializeV11",
      "outputs": [],
      "stateMutability": "nonpayable",
      "type": "function"
    },
    {
      "inputs": [
        {
          "internalType": "uint256[]",
          "name": "_assets",
          "type": "uint256[]"
        },
        {
          "internalType": "address",
          "name": "_groupingAddress",
          "type": "address"
        }
      ],
      "name": "addAssetsToGrouping",
      "outputs": [],
      "stateMutability": "nonpayable",
      "type": "function"
    },
    {
      "inputs": [
        {
          "internalType": "uint256",
          "name": "_asset",
          "type": "uint256"
        }
      ],
      "name": "getGroupingAddress",
      "outputs": [
        {
          "internalType": "address",
          "name": "",
          "type": "address"
        }
      ],
      "stateMutability": "view",
      "type": "function"
    }
  ],
  "bytecode": "0x608060405234801561001057600080fd5b5061001a3361001f565b610041565b600080546001600160a01b0319166001600160a01b0392909216919091179055565b6117a0806100506000396000f3fe608060405234801561001057600080fd5b50600436106101165760003560e01c80638da5cb5b116100a2578063d1d274ce11610071578063d1d274ce14610302578063de836ebd146103b0578063e985e9c514610463578063f08b82e614610491578063f2fde38b1461049957610116565b80638da5cb5b14610289578063a22cb46514610291578063c41a360a146102bf578063c4d66de8146102dc57610116565b80634f558e79116100e95780634f558e79146101d5578063649134771461020657806370a082311461022c57806376b8a793146102645780637baeb04d1461026c57610116565b8063081812fc1461011b578063095ea7b31461015457806323b872dd1461018257806342966c68146101b8575b600080fd5b6101386004803603602081101561013157600080fd5b50356104bf565b604080516001600160a01b039092168252519081900360200190f35b6101806004803603604081101561016a57600080fd5b506001600160a01b038135169060200135610521565b005b6101806004803603606081101561019857600080fd5b506001600160a01b03813581169160208101359091169060400135610632565b610180600480360360208110156101ce57600080fd5b5035610687565b6101f2600480360360208110156101eb57600080fd5b50356106d8565b604080519115158252519081900360200190f35b6101806004803603602081101561021c57600080fd5b50356001600160a01b03166106f5565b6102526004803603602081101561024257600080fd5b50356001600160a01b03166107d7565b60408051918252519081900360200190f35b610180610845565b6101386004803603602081101561028257600080fd5b50356108ac565b6101386108c7565b610180600480360360408110156102a757600080fd5b506001600160a01b03813516906020013515156108d6565b610138600480360360208110156102d557600080fd5b50356109a2565b610180600480360360208110156102f257600080fd5b50356001600160a01b03166109bd565b6101806004803603604081101561031857600080fd5b81019060208101813564010000000081111561033357600080fd5b82018360208201111561034557600080fd5b8035906020019184602083028401116401000000008311171561036757600080fd5b919080806020026020016040519081016040528093929190818152602001838360200280828437600092019190915250929550505090356001600160a01b03169150610aa49050565b6101f2600480360360408110156103c657600080fd5b6001600160a01b0382351691908101906040810160208201356401000000008111156103f157600080fd5b82018360208201111561040357600080fd5b8035906020019184602083028401116401000000008311171561042557600080fd5b919080806020026020016040519081016040528093929190818152602001838360200280828437600092019190915250929550610d50945050505050565b6101f26004803603604081101561047957600080fd5b506001600160a01b0381358116916020013516610ef5565b610252610f23565b610180600480360360208110156104af57600080fd5b50356001600160a01b0316610f34565b60006104ca826106d8565b6105055760405162461bcd60e51b815260040180806020018281038252602c815260200180611623602c913960400191505060405180910390fd5b506000908152600260205260409020546001600160a01b031690565b600061052c8261103e565b9050806001600160a01b0316836001600160a01b0316141561057f5760405162461bcd60e51b81526004018080602001828103825260218152602001806116786021913960400191505060405180910390fd5b336001600160a01b038216148061059b575061059b8133610ef5565b6105d65760405162461bcd60e51b81526004018080602001828103825260388152602001806115766038913960400191505060405180910390fd5b60008281526002602052604080822080546001600160a01b0319166001600160a01b0387811691821790925591518593918516917f8c5be1e5ebec7d5bd14f71427d1e84f3dd0314c0f7b2291e5b200ac8c7c3b92591a4505050565b61063c3382611092565b6106775760405162461bcd60e51b81526004018080602001828103825260318152602001806116e56031913960400191505060405180910390fd5b610682838383611136565b505050565b6106913382611092565b6106cc5760405162461bcd60e51b815260040180806020018281038252603081526020018061173b6030913960400191505060405180910390fd5b6106d58161127a565b50565b6000908152600160205260409020546001600160a01b0316151590565b6106fd6108c7565b6001600160a01b0316336001600160a01b031614610758576040805162461bcd60e51b815260206004820152601360248201527239b2b73232b91034b9903737ba1037bbb732b960691b604482015290519081900360640190fd5b6001600160a01b0381166107b3576040805162461bcd60e51b815260206004820152601c60248201527f4d756c746973696720416464726573732063616e6e6f74206265203000000000604482015290519081900360640190fd5b600680546001600160a01b0319166001600160a01b0383161790556106d58161128c565b60006001600160a01b03821661081e5760405162461bcd60e51b815260040180806020018281038252602a8152602001806115ae602a913960400191505060405180910390fd5b6001600160a01b038216600090815260036020526040902061083f906112ae565b92915050565b60085460ff161561089d576040805162461bcd60e51b815260206004820152601960248201527f636f6e747261637420616c726561647920757067726164656400000000000000604482015290519081900360640190fd5b6008805460ff19166001179055565b6000908152600760205260409020546001600160a01b031690565b6000546001600160a01b031690565b6001600160a01b038216331415610934576040805162461bcd60e51b815260206004820152601960248201527f4552433732313a20617070726f766520746f2063616c6c657200000000000000604482015290519081900360640190fd5b3360008181526004602090815260408083206001600160a01b03871680855290835292819020805460ff1916861515908117909155815190815290519293927f17307eab39ab6107e8899845ad3d59bd9653f200f220920489ca2b5937696c31929181900390910190a35050565b6000908152600160205260409020546001600160a01b031690565b600654600160a01b900460ff1615610a1c576040805162461bcd60e51b815260206004820152601c60248201527f436f6e747261637420616c726561647920696e697469616c697a656400000000604482015290519081900360640190fd5b6001600160a01b038116610a6b576040805162461bcd60e51b815260206004820152601160248201527004f776e65722063616e6e6f74206265203607c1b604482015290519081900360640190fd5b610a748161128c565b6006805460ff60a01b196001600160a01b039093166001600160a01b03199091161791909116600160a01b179055565b600654604080516317aa5fb760e11b815233600482015290516001600160a01b0390921691632f54bf6e91602480820192602092909190829003018186803b158015610aef57600080fd5b505afa158015610b03573d6000803e3d6000fd5b505050506040513d6020811015610b1957600080fd5b5051610b565760405162461bcd60e51b81526004018080602001828103825260228152602001806116016022913960400191505060405180910390fd5b6001600160a01b038116610b9b5760405162461bcd60e51b81526004018080602001828103825260258152602001806116c06025913960400191505060405180910390fd5b606482511115610bf2576040805162461bcd60e51b815260206004820152601f60248201527f6d6178696d756d206f6620746f6b656e7320746f206164642069732031303000604482015290519081900360640190fd5b8060005b83518160ff161015610d4a576000848260ff1681518110610c1357fe5b60200260200101519050610c26816106d8565b610c6e576040805162461bcd60e51b8152602060048201526014602482015273185cdcd95d08191bd95cc81b9bdd08195e1a5cdd60621b604482015290519081900360640190fd5b826001600160a01b0316630b71d256826040518263ffffffff1660e01b815260040180828152602001915050602060405180830381600087803b158015610cb457600080fd5b505af1158015610cc8573d6000803e3d6000fd5b505050506040513d6020811015610cde57600080fd5b5051610d1b5760405162461bcd60e51b81526004018080602001828103825260278152602001806116996027913960400191505060405180910390fd5b600090815260076020526040902080546001600160a01b0319166001600160a01b038516179055600101610bf6565b50505050565b600654604080516317aa5fb760e11b815233600482015290516000926001600160a01b031691632f54bf6e916024808301926020929190829003018186803b158015610d9b57600080fd5b505afa158015610daf573d6000803e3d6000fd5b505050506040513d6020811015610dc557600080fd5b5051610e025760405162461bcd60e51b81526004018080602001828103825260228152602001806116016022913960400191505060405180910390fd5b606482511115610e59576040805162461bcd60e51b815260206004820181905260248201527f6d6178696d756d206f6620746f6b656e7320746f206d696e7420697320313030604482015290519081900360640190fd5b6001600160a01b038316610eb4576040805162461bcd60e51b815260206004820181905260248201527f4552433732313a206d696e7420746f20746865207a65726f2061646472657373604482015290519081900360640190fd5b60005b82518160ff161015610eeb57610ee384848360ff1681518110610ed657fe5b60200260200101516112b2565b600101610eb7565b5060019392505050565b6001600160a01b03918216600090815260046020908152604080832093909416825291909152205460ff1690565b6000610f2f60056112ae565b905090565b610f3c6108c7565b6001600160a01b0316336001600160a01b031614610f97576040805162461bcd60e51b815260206004820152601360248201527239b2b73232b91034b9903737ba1037bbb732b960691b604482015290519081900360640190fd5b6001600160a01b038116610fea576040805162461bcd60e51b815260206004820152601560248201527406e6577206f776e65722063616e6e6f74206265203605c1b604482015290519081900360640190fd5b7f8be0079c531659141344cd1fd0a4f28419497f9722a3daafe3b4186f6b6457e06110136108c7565b604080516001600160a01b03928316815291841660208301528051918290030190a16106d58161128c565b6000818152600160205260408120546001600160a01b03168061083f5760405162461bcd60e51b81526004018080602001828103825260298152602001806115d86029913960400191505060405180910390fd5b600061109d826106d8565b6110d85760405162461bcd60e51b815260040180806020018281038252602c81526020018061154a602c913960400191505060405180910390fd5b60006110e38361103e565b9050806001600160a01b0316846001600160a01b0316148061111e5750836001600160a01b0316611113846104bf565b6001600160a01b0316145b8061112e575061112e8185610ef5565b949350505050565b826001600160a01b03166111498261103e565b6001600160a01b03161461118e5760405162461bcd60e51b815260040180806020018281038252602981526020018061164f6029913960400191505060405180910390fd5b6001600160a01b0382166111d35760405162461bcd60e51b81526004018080602001828103825260248152602001806115266024913960400191505060405180910390fd5b6111dc81611392565b6001600160a01b03831660009081526003602052604090206111fd906113cd565b6001600160a01b038216600090815260036020526040902061121e906113de565b60008181526001602052604080822080546001600160a01b0319166001600160a01b0386811691821790925591518493918716917fddf252ad1be2c89b69c2b068fc378daa952ba7f163c4a11628f55a4df523b3ef91a4505050565b6106d56112868261103e565b826113e7565b600080546001600160a01b0319166001600160a01b0392909216919091179055565b5490565b6112bb816106d8565b1561130d576040805162461bcd60e51b815260206004820152601c60248201527f4552433732313a20746f6b656e20616c7265616479206d696e74656400000000604482015290519081900360640190fd5b600081815260016020908152604080832080546001600160a01b0319166001600160a01b03871690811790915583526003909152902061134c906113de565b61135660056113de565b60405181906001600160a01b038416906000907fddf252ad1be2c89b69c2b068fc378daa952ba7f163c4a11628f55a4df523b3ef908290a45050565b6000818152600260205260409020546001600160a01b0316156106d557600090815260026020526040902080546001600160a01b0319169055565b80546113da9060016114c8565b9055565b80546001019055565b816001600160a01b03166113fa8261103e565b6001600160a01b03161461143f5760405162461bcd60e51b81526004018080602001828103825260258152602001806117166025913960400191505060405180910390fd5b61144881611392565b6001600160a01b0382166000908152600360205260409020611469906113cd565b61147360056113cd565b60008181526001602052604080822080546001600160a01b0319169055518291906001600160a01b038516907fddf252ad1be2c89b69c2b068fc378daa952ba7f163c4a11628f55a4df523b3ef908390a45050565b60008282111561151f576040805162461bcd60e51b815260206004820152601e60248201527f536166654d6174683a207375627472616374696f6e206f766572666c6f770000604482015290519081900360640190fd5b5090039056fe4552433732313a207472616e7366657220746f20746865207a65726f20616464726573734552433732313a206f70657261746f7220717565727920666f72206e6f6e6578697374656e7420746f6b656e4552433732313a20617070726f76652063616c6c6572206973206e6f74206f776e6572206e6f7220617070726f76656420666f7220616c6c4552433732313a2062616c616e636520717565727920666f7220746865207a65726f20616464726573734552433732313a206f776e657220717565727920666f72206e6f6e6578697374656e7420746f6b656e5369676e657220646f6573206e6f742062656c6f6e6720746f204d756c74697369674552433732313a20617070726f76656420717565727920666f72206e6f6e6578697374656e7420746f6b656e4552433732313a207472616e73666572206f6620746f6b656e2074686174206973206e6f74206f776e4552433732313a20617070726f76616c20746f2063757272656e74206f776e6572617373657420636f756c64206e6f742062652073746f72656420696e746f2067726f7570696e6747726f7570696e6720636f6e747261637420616464726573732063616e6e6f7420626520304552433732313a207472616e736665722063616c6c6572206973206e6f74206f776e6572206e6f7220617070726f7665644552433732313a206275726e206f6620746f6b656e2074686174206973206e6f74206f776e4552433732314275726e61626c653a2063616c6c6572206973206e6f74206f776e6572206e6f7220617070726f766564a26469706673582212201f85e498ca27295f758a44522257e262dea57e76db1792dbfd3489f9e491b10964736f6c63430007000033",
  "immutableReferences": {},
  "source": "// SPDX-License-Identifier: MIT\n\npragma solidity >=0.7.0 <0.8.0;\n\nimport \"../V1_0/ERC721BeefLedgerV1_0.sol\";\nimport \"../Grouping.sol\";\n\ncontract ERC721BeefLedgerV1_1 is ERC721BeefLedgerV1_0 {\n\n    //In the form of uid -> groupingContractAddress\n    mapping(uint256 => address) internal _groupedUids;\n\n     //upgradability\n    bool internal _initializedV11;\n\n    function initializeV11() public {\n        require(!_initializedV11, \"contract already upgraded\");\n        _initializedV11 = true;\n    }\n\n    function addAssetsToGrouping(uint256[] memory _assets, address _groupingAddress) onlyMultisigV1_0 virtual external {\n        require(_groupingAddress != address(0), \"Grouping contract address cannot be 0\");\n        require(_assets.length <= 100, \"maximum of tokens to add is 100\");\n        Grouping grouping = Grouping(_groupingAddress);\n        for(uint8 i = 0; i < _assets.length; i++) {\n            uint256 asset = _assets[i];\n            require(exists(asset), \"asset does not exist\");\n            require(grouping.addAsset(asset), \"asset could not be stored into grouping\");\n            _groupedUids[asset] = _groupingAddress;\n        }\n    }\n\n    function getGroupingAddress(uint256 _asset) virtual external view returns(address) {\n        return _groupedUids[_asset];\n    }\n}",
  "sourcePath": "/home/santiago/projects/beefledger/erc20_asset_grouping/src/ethereum/contracts/V1_1/ERC721BeefLedgerV1_1.sol",
  "compiler": {
    "name": "solc",
    "version": "0.7.0+commit.9e61f92b.Emscripten.clang"
  },
  "schemaVersion": "3.3.2",
  "updatedAt": "2021-02-22T18:55:44.955Z",
  "devdoc": {
    "kind": "dev",
    "methods": {
      "approve(address,uint256)": {
        "details": "Approves another address to transfer the given token ID The zero address indicates there is no approved address. There can only be one approved address per token at a given time. Can only be called by the token owner or an approved operator.",
        "params": {
          "to": "address to be approved for the given token ID",
          "tokenId": "uint256 ID of the token to be approved"
        }
      },
      "balanceOf(address)": {
        "details": "Gets the balance of the specified address.",
        "params": {
          "owner": "address to query the balance of return uint256 representing the amount owned by the passed address"
        }
      },
      "burn(uint256)": {
        "details": "Burns a specific ERC721 token.",
        "params": {
          "tokenId": "uint256 id of the ERC721 token to be burned."
        }
      },
      "exists(uint256)": {
        "details": "Returns whether the specified token exists.",
        "params": {
          "tokenId": "uint256 ID of the token to query the existence of return bool whether the token exists"
        }
      },
      "getApproved(uint256)": {
        "details": "Gets the approved address for a token ID, or zero if no address set Reverts if the token ID does not exist.",
        "params": {
          "tokenId": "uint256 ID of the token to query the approval of return address currently approved for the given token ID"
        }
      },
      "isApprovedForAll(address,address)": {
        "details": "Tells whether an operator is approved by a given owner.",
        "params": {
          "operator": "operator address which you want to query the approval of return bool whether the given operator is approved by the given owner",
          "owner": "owner address which you want to query the approval of"
        }
      },
      "owner()": {
        "details": "Tells the address of the owner return the address of the owner"
      },
      "setApprovalForAll(address,bool)": {
        "details": "Sets or unsets the approval of a given operator An operator is allowed to transfer all tokens of the sender on their behalf.",
        "params": {
          "approved": "representing the status of the approval to be set",
          "to": "operator address to set the approval"
        }
      },
      "transferFrom(address,address,uint256)": {
        "details": "Transfers the ownership of a given token ID to another address. Usage of this method is discouraged, use {safeTransferFrom} whenever possible. Requires the msg.sender to be the owner, approved, or operator.",
        "params": {
          "from": "current owner of the token",
          "to": "address to receive the ownership of the given token ID",
          "tokenId": "uint256 ID of the token to be transferred"
        }
      },
      "transferOwnership(address)": {
        "details": "Allows the current owner to transfer control of the contract to a newOwner.",
        "params": {
          "newOwner": "The address to transfer ownership to."
        }
      }
    },
    "version": 1
  },
  "userdoc": {
    "kind": "user",
    "methods": {},
    "version": 1
  }
}