{
  "contractName": "ERC721BeefLedgerV1_0",
  "abi": [
    {
      "anonymous": false,
      "inputs": [
        {
          "indexed": true,
          "internalType": "address",
          "name": "owner",
          "type": "address"
        },
        {
          "indexed": true,
          "internalType": "address",
          "name": "approved",
          "type": "address"
        },
        {
          "indexed": true,
          "internalType": "uint256",
          "name": "tokenId",
          "type": "uint256"
        }
      ],
      "name": "Approval",
      "type": "event"
    },
    {
      "anonymous": false,
      "inputs": [
        {
          "indexed": true,
          "internalType": "address",
          "name": "owner",
          "type": "address"
        },
        {
          "indexed": true,
          "internalType": "address",
          "name": "operator",
          "type": "address"
        },
        {
          "indexed": false,
          "internalType": "bool",
          "name": "approved",
          "type": "bool"
        }
      ],
      "name": "ApprovalForAll",
      "type": "event"
    },
    {
      "anonymous": false,
      "inputs": [
        {
          "indexed": false,
          "internalType": "address",
          "name": "previousOwner",
          "type": "address"
        },
        {
          "indexed": false,
          "internalType": "address",
          "name": "newOwner",
          "type": "address"
        }
      ],
      "name": "OwnershipTransferred",
      "type": "event"
    },
    {
      "anonymous": false,
      "inputs": [
        {
          "indexed": true,
          "internalType": "address",
          "name": "from",
          "type": "address"
        },
        {
          "indexed": true,
          "internalType": "address",
          "name": "to",
          "type": "address"
        },
        {
          "indexed": true,
          "internalType": "uint256",
          "name": "tokenId",
          "type": "uint256"
        }
      ],
      "name": "Transfer",
      "type": "event"
    },
    {
      "inputs": [],
      "name": "owner",
      "outputs": [
        {
          "internalType": "address",
          "name": "",
          "type": "address"
        }
      ],
      "stateMutability": "view",
      "type": "function"
    },
    {
      "inputs": [
        {
          "internalType": "address",
          "name": "newOwner",
          "type": "address"
        }
      ],
      "name": "transferOwnership",
      "outputs": [],
      "stateMutability": "nonpayable",
      "type": "function"
    },
    {
      "inputs": [
        {
          "internalType": "address payable",
          "name": "_owner",
          "type": "address"
        }
      ],
      "name": "initialize",
      "outputs": [],
      "stateMutability": "nonpayable",
      "type": "function"
    },
    {
      "inputs": [
        {
          "internalType": "address payable",
          "name": "multisig",
          "type": "address"
        }
      ],
      "name": "setMultisigWallet",
      "outputs": [],
      "stateMutability": "nonpayable",
      "type": "function"
    },
    {
      "inputs": [
        {
          "internalType": "address",
          "name": "owner",
          "type": "address"
        }
      ],
      "name": "balanceOf",
      "outputs": [
        {
          "internalType": "uint256",
          "name": "",
          "type": "uint256"
        }
      ],
      "stateMutability": "view",
      "type": "function"
    },
    {
      "inputs": [
        {
          "internalType": "address",
          "name": "to",
          "type": "address"
        },
        {
          "internalType": "uint256",
          "name": "tokenId",
          "type": "uint256"
        }
      ],
      "name": "approve",
      "outputs": [],
      "stateMutability": "nonpayable",
      "type": "function"
    },
    {
      "inputs": [
        {
          "internalType": "uint256",
          "name": "tokenId",
          "type": "uint256"
        }
      ],
      "name": "getApproved",
      "outputs": [
        {
          "internalType": "address",
          "name": "",
          "type": "address"
        }
      ],
      "stateMutability": "view",
      "type": "function"
    },
    {
      "inputs": [
        {
          "internalType": "address",
          "name": "to",
          "type": "address"
        },
        {
          "internalType": "bool",
          "name": "approved",
          "type": "bool"
        }
      ],
      "name": "setApprovalForAll",
      "outputs": [],
      "stateMutability": "nonpayable",
      "type": "function"
    },
    {
      "inputs": [
        {
          "internalType": "address",
          "name": "owner",
          "type": "address"
        },
        {
          "internalType": "address",
          "name": "operator",
          "type": "address"
        }
      ],
      "name": "isApprovedForAll",
      "outputs": [
        {
          "internalType": "bool",
          "name": "",
          "type": "bool"
        }
      ],
      "stateMutability": "view",
      "type": "function"
    },
    {
      "inputs": [
        {
          "internalType": "address",
          "name": "from",
          "type": "address"
        },
        {
          "internalType": "address",
          "name": "to",
          "type": "address"
        },
        {
          "internalType": "uint256",
          "name": "tokenId",
          "type": "uint256"
        }
      ],
      "name": "transferFrom",
      "outputs": [],
      "stateMutability": "nonpayable",
      "type": "function"
    },
    {
      "inputs": [
        {
          "internalType": "uint256",
          "name": "tokenId",
          "type": "uint256"
        }
      ],
      "name": "exists",
      "outputs": [
        {
          "internalType": "bool",
          "name": "",
          "type": "bool"
        }
      ],
      "stateMutability": "view",
      "type": "function"
    },
    {
      "inputs": [
        {
          "internalType": "address",
          "name": "to",
          "type": "address"
        },
        {
          "internalType": "uint256[]",
          "name": "tokenIds",
          "type": "uint256[]"
        }
      ],
      "name": "mint",
      "outputs": [
        {
          "internalType": "bool",
          "name": "",
          "type": "bool"
        }
      ],
      "stateMutability": "nonpayable",
      "type": "function"
    },
    {
      "inputs": [
        {
          "internalType": "uint256",
          "name": "tokenId",
          "type": "uint256"
        }
      ],
      "name": "burn",
      "outputs": [],
      "stateMutability": "nonpayable",
      "type": "function"
    },
    {
      "inputs": [],
      "name": "getTotalTokens",
      "outputs": [
        {
          "internalType": "uint256",
          "name": "",
          "type": "uint256"
        }
      ],
      "stateMutability": "view",
      "type": "function"
    },
    {
      "inputs": [
        {
          "internalType": "uint256",
          "name": "tokenId",
          "type": "uint256"
        }
      ],
      "name": "getOwner",
      "outputs": [
        {
          "internalType": "address",
          "name": "",
          "type": "address"
        }
      ],
      "stateMutability": "view",
      "type": "function"
    }
  ],
  "bytecode": "0x608060405234801561001057600080fd5b5061001a3361001f565b610041565b600080546001600160a01b0319166001600160a01b0392909216919091179055565b6113b5806100506000396000f3fe608060405234801561001057600080fd5b50600436106100f55760003560e01c80638da5cb5b11610097578063de836ebd11610066578063de836ebd146102bc578063e985e9c51461036f578063f08b82e61461039d578063f2fde38b146103a5576100f5565b80638da5cb5b14610243578063a22cb4651461024b578063c41a360a14610279578063c4d66de814610296576100f5565b806342966c68116100d357806342966c68146101975780634f558e79146101b457806364913477146101e557806370a082311461020b576100f5565b8063081812fc146100fa578063095ea7b31461013357806323b872dd14610161575b600080fd5b6101176004803603602081101561011057600080fd5b50356103cb565b604080516001600160a01b039092168252519081900360200190f35b61015f6004803603604081101561014957600080fd5b506001600160a01b03813516906020013561042d565b005b61015f6004803603606081101561017757600080fd5b506001600160a01b0381358116916020810135909116906040013561053e565b61015f600480360360208110156101ad57600080fd5b5035610593565b6101d1600480360360208110156101ca57600080fd5b50356105e4565b604080519115158252519081900360200190f35b61015f600480360360208110156101fb57600080fd5b50356001600160a01b0316610601565b6102316004803603602081101561022157600080fd5b50356001600160a01b03166106e3565b60408051918252519081900360200190f35b610117610751565b61015f6004803603604081101561026157600080fd5b506001600160a01b0381351690602001351515610760565b6101176004803603602081101561028f57600080fd5b503561082c565b61015f600480360360208110156102ac57600080fd5b50356001600160a01b0316610847565b6101d1600480360360408110156102d257600080fd5b6001600160a01b0382351691908101906040810160208201356401000000008111156102fd57600080fd5b82018360208201111561030f57600080fd5b8035906020019184602083028401116401000000008311171561033157600080fd5b91908080602002602001604051908101604052809392919081815260200183836020028082843760009201919091525092955061092e945050505050565b6101d16004803603604081101561038557600080fd5b506001600160a01b0381358116916020013516610ad3565b610231610b01565b61015f600480360360208110156103bb57600080fd5b50356001600160a01b0316610b12565b60006103d6826105e4565b6104115760405162461bcd60e51b815260040180806020018281038252602c815260200180611284602c913960400191505060405180910390fd5b506000908152600260205260409020546001600160a01b031690565b600061043882610c1c565b9050806001600160a01b0316836001600160a01b0316141561048b5760405162461bcd60e51b81526004018080602001828103825260218152602001806112d96021913960400191505060405180910390fd5b336001600160a01b03821614806104a757506104a78133610ad3565b6104e25760405162461bcd60e51b81526004018080602001828103825260388152602001806111d76038913960400191505060405180910390fd5b60008281526002602052604080822080546001600160a01b0319166001600160a01b0387811691821790925591518593918516917f8c5be1e5ebec7d5bd14f71427d1e84f3dd0314c0f7b2291e5b200ac8c7c3b92591a4505050565b6105483382610c70565b6105835760405162461bcd60e51b81526004018080602001828103825260318152602001806112fa6031913960400191505060405180910390fd5b61058e838383610d14565b505050565b61059d3382610c70565b6105d85760405162461bcd60e51b81526004018080602001828103825260308152602001806113506030913960400191505060405180910390fd5b6105e181610e58565b50565b6000908152600160205260409020546001600160a01b0316151590565b610609610751565b6001600160a01b0316336001600160a01b031614610664576040805162461bcd60e51b815260206004820152601360248201527239b2b73232b91034b9903737ba1037bbb732b960691b604482015290519081900360640190fd5b6001600160a01b0381166106bf576040805162461bcd60e51b815260206004820152601c60248201527f4d756c746973696720416464726573732063616e6e6f74206265203000000000604482015290519081900360640190fd5b600680546001600160a01b0319166001600160a01b0383161790556105e181610e6a565b60006001600160a01b03821661072a5760405162461bcd60e51b815260040180806020018281038252602a81526020018061120f602a913960400191505060405180910390fd5b6001600160a01b038216600090815260036020526040902061074b90610e8c565b92915050565b6000546001600160a01b031690565b6001600160a01b0382163314156107be576040805162461bcd60e51b815260206004820152601960248201527f4552433732313a20617070726f766520746f2063616c6c657200000000000000604482015290519081900360640190fd5b3360008181526004602090815260408083206001600160a01b03871680855290835292819020805460ff1916861515908117909155815190815290519293927f17307eab39ab6107e8899845ad3d59bd9653f200f220920489ca2b5937696c31929181900390910190a35050565b6000908152600160205260409020546001600160a01b031690565b600654600160a01b900460ff16156108a6576040805162461bcd60e51b815260206004820152601c60248201527f436f6e747261637420616c726561647920696e697469616c697a656400000000604482015290519081900360640190fd5b6001600160a01b0381166108f5576040805162461bcd60e51b815260206004820152601160248201527004f776e65722063616e6e6f74206265203607c1b604482015290519081900360640190fd5b6108fe81610e6a565b6006805460ff60a01b196001600160a01b039093166001600160a01b03199091161791909116600160a01b179055565b600654604080516317aa5fb760e11b815233600482015290516000926001600160a01b031691632f54bf6e916024808301926020929190829003018186803b15801561097957600080fd5b505afa15801561098d573d6000803e3d6000fd5b505050506040513d60208110156109a357600080fd5b50516109e05760405162461bcd60e51b81526004018080602001828103825260228152602001806112626022913960400191505060405180910390fd5b606482511115610a37576040805162461bcd60e51b815260206004820181905260248201527f6d6178696d756d206f6620746f6b656e7320746f206d696e7420697320313030604482015290519081900360640190fd5b6001600160a01b038316610a92576040805162461bcd60e51b815260206004820181905260248201527f4552433732313a206d696e7420746f20746865207a65726f2061646472657373604482015290519081900360640190fd5b60005b82518160ff161015610ac957610ac184848360ff1681518110610ab457fe5b6020026020010151610e90565b600101610a95565b5060019392505050565b6001600160a01b03918216600090815260046020908152604080832093909416825291909152205460ff1690565b6000610b0d6005610e8c565b905090565b610b1a610751565b6001600160a01b0316336001600160a01b031614610b75576040805162461bcd60e51b815260206004820152601360248201527239b2b73232b91034b9903737ba1037bbb732b960691b604482015290519081900360640190fd5b6001600160a01b038116610bc8576040805162461bcd60e51b815260206004820152601560248201527406e6577206f776e65722063616e6e6f74206265203605c1b604482015290519081900360640190fd5b7f8be0079c531659141344cd1fd0a4f28419497f9722a3daafe3b4186f6b6457e0610bf1610751565b604080516001600160a01b03928316815291841660208301528051918290030190a16105e181610e6a565b6000818152600160205260408120546001600160a01b03168061074b5760405162461bcd60e51b81526004018080602001828103825260298152602001806112396029913960400191505060405180910390fd5b6000610c7b826105e4565b610cb65760405162461bcd60e51b815260040180806020018281038252602c8152602001806111ab602c913960400191505060405180910390fd5b6000610cc183610c1c565b9050806001600160a01b0316846001600160a01b03161480610cfc5750836001600160a01b0316610cf1846103cb565b6001600160a01b0316145b80610d0c5750610d0c8185610ad3565b949350505050565b826001600160a01b0316610d2782610c1c565b6001600160a01b031614610d6c5760405162461bcd60e51b81526004018080602001828103825260298152602001806112b06029913960400191505060405180910390fd5b6001600160a01b038216610db15760405162461bcd60e51b81526004018080602001828103825260248152602001806111876024913960400191505060405180910390fd5b610dba81610f70565b6001600160a01b0383166000908152600360205260409020610ddb90610fab565b6001600160a01b0382166000908152600360205260409020610dfc90610fbc565b60008181526001602052604080822080546001600160a01b0319166001600160a01b0386811691821790925591518493918716917fddf252ad1be2c89b69c2b068fc378daa952ba7f163c4a11628f55a4df523b3ef91a4505050565b6105e1610e6482610c1c565b82610fc5565b600080546001600160a01b0319166001600160a01b0392909216919091179055565b5490565b610e99816105e4565b15610eeb576040805162461bcd60e51b815260206004820152601c60248201527f4552433732313a20746f6b656e20616c7265616479206d696e74656400000000604482015290519081900360640190fd5b600081815260016020908152604080832080546001600160a01b0319166001600160a01b038716908117909155835260039091529020610f2a90610fbc565b610f346005610fbc565b60405181906001600160a01b038416906000907fddf252ad1be2c89b69c2b068fc378daa952ba7f163c4a11628f55a4df523b3ef908290a45050565b6000818152600260205260409020546001600160a01b0316156105e157600090815260026020526040902080546001600160a01b0319169055565b8054610fb89060016110a6565b9055565b80546001019055565b816001600160a01b0316610fd882610c1c565b6001600160a01b03161461101d5760405162461bcd60e51b815260040180806020018281038252602581526020018061132b6025913960400191505060405180910390fd5b61102681610f70565b6001600160a01b038216600090815260036020526040902061104790610fab565b6110516005610fab565b60008181526001602052604080822080546001600160a01b0319169055518291906001600160a01b038516907fddf252ad1be2c89b69c2b068fc378daa952ba7f163c4a11628f55a4df523b3ef908390a45050565b60006110e883836040518060400160405280601e81526020017f536166654d6174683a207375627472616374696f6e206f766572666c6f7700008152506110ef565b9392505050565b6000818484111561117e5760405162461bcd60e51b81526004018080602001828103825283818151815260200191508051906020019080838360005b8381101561114357818101518382015260200161112b565b50505050905090810190601f1680156111705780820380516001836020036101000a031916815260200191505b509250505060405180910390fd5b50505090039056fe4552433732313a207472616e7366657220746f20746865207a65726f20616464726573734552433732313a206f70657261746f7220717565727920666f72206e6f6e6578697374656e7420746f6b656e4552433732313a20617070726f76652063616c6c6572206973206e6f74206f776e6572206e6f7220617070726f76656420666f7220616c6c4552433732313a2062616c616e636520717565727920666f7220746865207a65726f20616464726573734552433732313a206f776e657220717565727920666f72206e6f6e6578697374656e7420746f6b656e5369676e657220646f6573206e6f742062656c6f6e6720746f204d756c74697369674552433732313a20617070726f76656420717565727920666f72206e6f6e6578697374656e7420746f6b656e4552433732313a207472616e73666572206f6620746f6b656e2074686174206973206e6f74206f776e4552433732313a20617070726f76616c20746f2063757272656e74206f776e65724552433732313a207472616e736665722063616c6c6572206973206e6f74206f776e6572206e6f7220617070726f7665644552433732313a206275726e206f6620746f6b656e2074686174206973206e6f74206f776e4552433732314275726e61626c653a2063616c6c6572206973206e6f74206f776e6572206e6f7220617070726f766564a26469706673582212209fdf91d1439cf8b821b560dda361d24975520389e40504619f0e52126dc5444464736f6c63430007000033",
  "immutableReferences": {},
  "source": "// SPDX-License-Identifier: MIT\n\npragma solidity >=0.7.0 <0.8.0;\n\nimport \"@openzeppelin/contracts/math/SafeMath.sol\";\n\nimport \"@openzeppelin/contracts/utils/Counters.sol\";\nimport \"../Ownable.sol\";\nimport \"./MultisigWalletV1_0.sol\";\n\n/**\n * @title ERC721 Non-Fungible Token Standard basic implementation\n * @dev see https://eips.ethereum.org/EIPS/eip-721\n */\ncontract ERC721BeefLedgerV1_0 is Ownable {\n\n    event Transfer(address indexed from, address indexed to, uint256 indexed tokenId);\n    event Approval(address indexed owner, address indexed approved, uint256 indexed tokenId);\n    event ApprovalForAll(address indexed owner, address indexed operator, bool approved);\n\n    using SafeMath for uint256;\n    using Counters for Counters.Counter;\n\n\n    // Mapping from token ID to owner\n    mapping (uint256 => address) internal _tokenOwner;\n\n    // Mapping from token ID to approved address\n    mapping (uint256 => address) internal _tokenApprovals;\n\n    // Mapping from owner to number of owned token\n    mapping (address => Counters.Counter) internal _ownedTokensCount;\n\n    // Mapping from owner to operator approvals\n    mapping (address => mapping (address => bool)) internal _operatorApprovals;\n\n    Counters.Counter internal totalTokens;\n    MultisigWalletV1_0 internal multisigWalletV1_0;\n\n    //upgradability\n    bool internal _initialized;\n\n    function initialize(address payable _owner) public {\n        require(!_initialized, \"Contract already initialized\");\n        require(_owner != address(0), \"Owner cannot be 0\");\n        setOwner(_owner);\n        multisigWalletV1_0 = MultisigWalletV1_0(_owner);\n        _initialized = true;\n    }\n\n    modifier onlyMultisigV1_0 {\n        require(multisigWalletV1_0.isOwner(msg.sender), \"Signer does not belong to Multisig\");\n        _;\n    }\n\n    function setMultisigWallet(address payable multisig) virtual public onlyOwner {\n        require(multisig != address(0), \"Multisig Address cannot be 0\");\n        multisigWalletV1_0 = MultisigWalletV1_0(multisig);\n        setOwner(multisig);\n    }\n\n    /**\n     * @dev Gets the balance of the specified address.\n     * @param owner address to query the balance of\n     * return uint256 representing the amount owned by the passed address\n     */\n    function balanceOf(address owner) virtual public view returns (uint256) {\n        require(owner != address(0), \"ERC721: balance query for the zero address\");\n        return _ownedTokensCount[owner].current();\n    }\n\n    /**\n     * @dev Gets the owner of the specified token ID.\n     * @param tokenId uint256 ID of the token to query the owner of\n     * return address currently marked as the owner of the given token ID\n     */\n    function ownerOf(uint256 tokenId) internal view returns (address) {\n        address owner = _tokenOwner[tokenId];\n        require(owner != address(0), \"ERC721: owner query for nonexistent token\");\n\n        return owner;\n    }\n\n    /**\n     * @dev Approves another address to transfer the given token ID\n     * The zero address indicates there is no approved address.\n     * There can only be one approved address per token at a given time.\n     * Can only be called by the token owner or an approved operator.\n     * @param to address to be approved for the given token ID\n     * @param tokenId uint256 ID of the token to be approved\n     */\n    function approve(address to, uint256 tokenId) virtual public {\n        address owner = ownerOf(tokenId);\n        require(to != owner, \"ERC721: approval to current owner\");\n\n        require(msg.sender == owner || isApprovedForAll(owner, msg.sender),\n            \"ERC721: approve caller is not owner nor approved for all\"\n        );\n\n        _tokenApprovals[tokenId] = to;\n        emit Approval(owner, to, tokenId);\n    }\n\n    /**\n     * @dev Gets the approved address for a token ID, or zero if no address set\n     * Reverts if the token ID does not exist.\n     * @param tokenId uint256 ID of the token to query the approval of\n     * return address currently approved for the given token ID\n     */\n    function getApproved(uint256 tokenId) virtual public view returns (address) {\n        require(exists(tokenId), \"ERC721: approved query for nonexistent token\");\n\n        return _tokenApprovals[tokenId];\n    }\n\n    /**\n     * @dev Sets or unsets the approval of a given operator\n     * An operator is allowed to transfer all tokens of the sender on their behalf.\n     * @param to operator address to set the approval\n     * @param approved representing the status of the approval to be set\n     */\n    function setApprovalForAll(address to, bool approved) virtual public {\n        require(to != msg.sender, \"ERC721: approve to caller\");\n\n        _operatorApprovals[msg.sender][to] = approved;\n        emit ApprovalForAll(msg.sender, to, approved);\n    }\n\n    /**\n     * @dev Tells whether an operator is approved by a given owner.\n     * @param owner owner address which you want to query the approval of\n     * @param operator operator address which you want to query the approval of\n     * return bool whether the given operator is approved by the given owner\n     */\n    function isApprovedForAll(address owner, address operator) virtual public view returns (bool) {\n        return _operatorApprovals[owner][operator];\n    }\n\n    /**\n     * @dev Transfers the ownership of a given token ID to another address.\n     * Usage of this method is discouraged, use {safeTransferFrom} whenever possible.\n     * Requires the msg.sender to be the owner, approved, or operator.\n     * @param from current owner of the token\n     * @param to address to receive the ownership of the given token ID\n     * @param tokenId uint256 ID of the token to be transferred\n     */\n    function transferFrom(address from, address to, uint256 tokenId) virtual public {\n        //solhint-disable-next-line max-line-length\n        require(_isApprovedOrOwner(msg.sender, tokenId), \"ERC721: transfer caller is not owner nor approved\");\n\n        _transferFrom(from, to, tokenId);\n    }\n\n    /**\n     * @dev Returns whether the specified token exists.\n     * @param tokenId uint256 ID of the token to query the existence of\n     * return bool whether the token exists\n     */\n    function exists(uint256 tokenId) virtual public view returns (bool) {\n        address owner = _tokenOwner[tokenId];\n        return owner != address(0);\n    }\n\n    /**\n     * @dev Returns whether the given spender can transfer a given token ID.\n     * @param spender address of the spender to query\n     * @param tokenId uint256 ID of the token to be transferred\n     * return bool whether the msg.sender is approved for the given token ID,\n     * is an operator of the owner, or is the owner of the token\n     */\n    function _isApprovedOrOwner(address spender, uint256 tokenId) virtual internal view returns (bool) {\n        require(exists(tokenId), \"ERC721: operator query for nonexistent token\");\n        address owner = ownerOf(tokenId);\n        return (spender == owner || getApproved(tokenId) == spender || isApprovedForAll(owner, spender));\n    }\n\n    /*\n    * @dev Function to mint tokens.\n     * @param to The address that will receive the minted token.\n     * @param tokenIds The array of token ids to mint, maximum 100 per call.\n     * return A boolean that indicates if the operation was successful.\n     */\n    function mint(address to, uint256[] memory tokenIds) virtual public onlyMultisigV1_0 returns (bool) {\n        require(tokenIds.length <= 100, \"maximum of tokens to mint is 100\");\n        require(to != address(0), \"ERC721: mint to the zero address\");\n        for(uint8 i = 0; i < tokenIds.length; i++) {\n            _mint(to, tokenIds[i]);\n        }\n        return true;\n    }\n\n    /**\n     * @dev virtual Internal function to mint a new token.\n     * Reverts if the given token ID already exists.\n     * @param to The address that will own the minted token\n     * @param tokenId uint256 ID of the token to be minted\n     */\n    function _mint(address to, uint256 tokenId) virtual internal {\n        require(!exists(tokenId), \"ERC721: token already minted\");\n        _tokenOwner[tokenId] = to;\n        _ownedTokensCount[to].increment();\n        totalTokens.increment();\n\n        emit Transfer(address(0), to, tokenId);\n    }\n\n    /**\n     * @dev Burns a specific ERC721 token.\n     * @param tokenId uint256 id of the ERC721 token to be burned.\n     */\n    function burn(uint256 tokenId) public {\n        //solhint-disable-next-line max-line-length\n        require(_isApprovedOrOwner(msg.sender, tokenId), \"ERC721Burnable: caller is not owner nor approved\");\n        _burn(tokenId);\n    }\n\n    /**\n     * @dev virtual Internal function to burn a specific token.\n     * Reverts if the token does not exist.\n     * Deprecated, use {_burn} instead.\n     * @param owner owner of the token to burn\n     * @param tokenId uint256 ID of the token being burned\n     */\n    function _burn(address owner, uint256 tokenId) virtual internal {\n        require(ownerOf(tokenId) == owner, \"ERC721: burn of token that is not own\");\n\n        _clearApproval(tokenId);\n\n        _ownedTokensCount[owner].decrement();\n        totalTokens.decrement();\n        _tokenOwner[tokenId] = address(0);\n\n        emit Transfer(owner, address(0), tokenId);\n    }\n\n    /**\n     * @dev virtual Internal function to burn a specific token.\n     * Reverts if the token does not exist.\n     * @param tokenId uint256 ID of the token being burned\n     */\n    function _burn(uint256 tokenId) virtual internal {\n        _burn(ownerOf(tokenId), tokenId);\n    }\n\n    /**\n     * @dev virtual Internal function to transfer ownership of a given token ID to another address.\n     * As opposed to {transferFrom}, this imposes no restrictions on msg.sender.\n     * @param from current owner of the token\n     * @param to address to receive the ownership of the given token ID\n     * @param tokenId uint256 ID of the token to be transferred\n     */\n    function _transferFrom(address from, address to, uint256 tokenId) virtual internal {\n        require(ownerOf(tokenId) == from, \"ERC721: transfer of token that is not own\");\n        require(to != address(0), \"ERC721: transfer to the zero address\");\n\n        _clearApproval(tokenId);\n\n        _ownedTokensCount[from].decrement();\n        _ownedTokensCount[to].increment();\n\n        _tokenOwner[tokenId] = to;\n\n        emit Transfer(from, to, tokenId);\n    }\n\n    /**\n     * @dev Private function to clear current approval of a given token ID.\n     * @param tokenId uint256 ID of the token to be transferred\n     */\n    function _clearApproval(uint256 tokenId) virtual internal {\n        if (_tokenApprovals[tokenId] != address(0)) {\n            _tokenApprovals[tokenId] = address(0);\n        }\n    }\n\n    function getTotalTokens() public view returns (uint256) {\n        return totalTokens.current();\n    }\n\n    function getOwner(uint256 tokenId) public view returns (address) {\n        address owner = _tokenOwner[tokenId];\n        return owner;\n    }\n}\n",
  "sourcePath": "/home/santiago/projects/beefledger/erc20_asset_grouping/src/ethereum/contracts/V1_0/ERC721BeefLedgerV1_0.sol",
  "compiler": {
    "name": "solc",
    "version": "0.7.0+commit.9e61f92b.Emscripten.clang"
  },
  "schemaVersion": "3.3.2",
  "updatedAt": "2021-02-08T19:42:05.976Z",
  "devdoc": {
    "details": "see https://eips.ethereum.org/EIPS/eip-721",
    "kind": "dev",
    "methods": {
      "approve(address,uint256)": {
        "details": "Approves another address to transfer the given token ID The zero address indicates there is no approved address. There can only be one approved address per token at a given time. Can only be called by the token owner or an approved operator.",
        "params": {
          "to": "address to be approved for the given token ID",
          "tokenId": "uint256 ID of the token to be approved"
        }
      },
      "balanceOf(address)": {
        "details": "Gets the balance of the specified address.",
        "params": {
          "owner": "address to query the balance of return uint256 representing the amount owned by the passed address"
        }
      },
      "burn(uint256)": {
        "details": "Burns a specific ERC721 token.",
        "params": {
          "tokenId": "uint256 id of the ERC721 token to be burned."
        }
      },
      "exists(uint256)": {
        "details": "Returns whether the specified token exists.",
        "params": {
          "tokenId": "uint256 ID of the token to query the existence of return bool whether the token exists"
        }
      },
      "getApproved(uint256)": {
        "details": "Gets the approved address for a token ID, or zero if no address set Reverts if the token ID does not exist.",
        "params": {
          "tokenId": "uint256 ID of the token to query the approval of return address currently approved for the given token ID"
        }
      },
      "isApprovedForAll(address,address)": {
        "details": "Tells whether an operator is approved by a given owner.",
        "params": {
          "operator": "operator address which you want to query the approval of return bool whether the given operator is approved by the given owner",
          "owner": "owner address which you want to query the approval of"
        }
      },
      "owner()": {
        "details": "Tells the address of the owner return the address of the owner"
      },
      "setApprovalForAll(address,bool)": {
        "details": "Sets or unsets the approval of a given operator An operator is allowed to transfer all tokens of the sender on their behalf.",
        "params": {
          "approved": "representing the status of the approval to be set",
          "to": "operator address to set the approval"
        }
      },
      "transferFrom(address,address,uint256)": {
        "details": "Transfers the ownership of a given token ID to another address. Usage of this method is discouraged, use {safeTransferFrom} whenever possible. Requires the msg.sender to be the owner, approved, or operator.",
        "params": {
          "from": "current owner of the token",
          "to": "address to receive the ownership of the given token ID",
          "tokenId": "uint256 ID of the token to be transferred"
        }
      },
      "transferOwnership(address)": {
        "details": "Allows the current owner to transfer control of the contract to a newOwner.",
        "params": {
          "newOwner": "The address to transfer ownership to."
        }
      }
    },
    "title": "ERC721 Non-Fungible Token Standard basic implementation",
    "version": 1
  },
  "userdoc": {
    "kind": "user",
    "methods": {},
    "version": 1
  }
}