{
  "contractName": "GroupingFactoryV1_0",
  "abi": [
    {
      "anonymous": false,
      "inputs": [
        {
          "indexed": true,
          "internalType": "address",
          "name": "grouping",
          "type": "address"
        },
        {
          "indexed": true,
          "internalType": "address",
          "name": "_rgToken",
          "type": "address"
        },
        {
          "indexed": true,
          "internalType": "address",
          "name": "_erc721",
          "type": "address"
        }
      ],
      "name": "DeployGrouping",
      "type": "event"
    },
    {
      "anonymous": false,
      "inputs": [
        {
          "indexed": false,
          "internalType": "address",
          "name": "previousOwner",
          "type": "address"
        },
        {
          "indexed": false,
          "internalType": "address",
          "name": "newOwner",
          "type": "address"
        }
      ],
      "name": "OwnershipTransferred",
      "type": "event"
    },
    {
      "inputs": [
        {
          "internalType": "uint256",
          "name": "",
          "type": "uint256"
        }
      ],
      "name": "deployed",
      "outputs": [
        {
          "internalType": "address",
          "name": "",
          "type": "address"
        }
      ],
      "stateMutability": "view",
      "type": "function"
    },
    {
      "inputs": [],
      "name": "owner",
      "outputs": [
        {
          "internalType": "address",
          "name": "",
          "type": "address"
        }
      ],
      "stateMutability": "view",
      "type": "function"
    },
    {
      "inputs": [
        {
          "internalType": "address",
          "name": "newOwner",
          "type": "address"
        }
      ],
      "name": "transferOwnership",
      "outputs": [],
      "stateMutability": "nonpayable",
      "type": "function"
    },
    {
      "inputs": [
        {
          "internalType": "address",
          "name": "_multisigWallet",
          "type": "address"
        }
      ],
      "name": "initialize",
      "outputs": [],
      "stateMutability": "nonpayable",
      "type": "function"
    },
    {
      "inputs": [
        {
          "internalType": "address",
          "name": "_rgToken",
          "type": "address"
        },
        {
          "internalType": "address",
          "name": "_erc721",
          "type": "address"
        }
      ],
      "name": "deployGrouping",
      "outputs": [],
      "stateMutability": "nonpayable",
      "type": "function"
    },
    {
      "inputs": [],
      "name": "getDeployed",
      "outputs": [
        {
          "internalType": "address[]",
          "name": "",
          "type": "address[]"
        }
      ],
      "stateMutability": "view",
      "type": "function"
    }
  ],
  "bytecode": "0x608060405234801561001057600080fd5b5061001a3361001f565b610041565b600080546001600160a01b0319166001600160a01b0392909216919091179055565b610a20806100506000396000f3fe608060405234801561001057600080fd5b50600436106100625760003560e01c806315b40ec01461006757806346215631146100a0578063839e9053146100d05780638da5cb5b14610128578063c4d66de814610130578063f2fde38b14610156575b600080fd5b6100846004803603602081101561007d57600080fd5b503561017c565b604080516001600160a01b039092168252519081900360200190f35b6100ce600480360360408110156100b657600080fd5b506001600160a01b03813581169160200135166101a3565b005b6100d8610386565b60408051602080825283518183015283519192839290830191858101910280838360005b838110156101145781810151838201526020016100fc565b505050509050019250505060405180910390f35b6100846103e8565b6100ce6004803603602081101561014657600080fd5b50356001600160a01b03166103f7565b6100ce6004803603602081101561016c57600080fd5b50356001600160a01b0316610468565b6001818154811061018957fe5b6000918252602090912001546001600160a01b0316905081565b6101ab6103e8565b6001600160a01b0316336001600160a01b031614610206576040805162461bcd60e51b815260206004820152601360248201527239b2b73232b91034b9903737ba1037bbb732b960691b604482015290519081900360640190fd5b6001600160a01b038216610261576040805162461bcd60e51b815260206004820152601c60248201527f524720546f6b656e20616464726573732063616e6e6f74206265203000000000604482015290519081900360640190fd5b6001600160a01b0381166102bc576040805162461bcd60e51b815260206004820152601a60248201527f45524337323120616464726573732063616e6e6f742062652030000000000000604482015290519081900360640190fd5b600082826040516102cc90610590565b6001600160a01b03928316815291166020820152604080519182900301906000f0801580156102ff573d6000803e3d6000fd5b5060018054808201825560009182527fb10e2d527612073b26eecdfd717e6a320cf44b4afac2b0732d9fcbe2b7fa0cf60180546001600160a01b0319166001600160a01b03848116918217909255604051939450858216939187169290917feaf8ebc3e12447995550bcd604928c42c64aae41119317732d8b5677cda1a75f9190a4505050565b606060018054806020026020016040519081016040528092919081815260200182805480156103de57602002820191906000526020600020905b81546001600160a01b031681526001909101906020018083116103c0575b5050505050905090565b6000546001600160a01b031690565b60025460ff161561044f576040805162461bcd60e51b815260206004820152601b60248201527f636f6e7261637420616c726561647920696e697469616c697a65640000000000604482015290519081900360640190fd5b6002805460ff191660011790556104658161056e565b50565b6104706103e8565b6001600160a01b0316336001600160a01b0316146104cb576040805162461bcd60e51b815260206004820152601360248201527239b2b73232b91034b9903737ba1037bbb732b960691b604482015290519081900360640190fd5b6001600160a01b03811661051e576040805162461bcd60e51b815260206004820152601560248201527406e6577206f776e65722063616e6e6f74206265203605c1b604482015290519081900360640190fd5b7f8be0079c531659141344cd1fd0a4f28419497f9722a3daafe3b4186f6b6457e06105476103e8565b604080516001600160a01b03928316815291841660208301528051918290030190a1610465815b600080546001600160a01b0319166001600160a01b0392909216919091179055565b61044d8061059e8339019056fe608060405234801561001057600080fd5b5060405161044d38038061044d8339818101604052604081101561003357600080fd5b5080516020909101516001600160a01b038216610097576040805162461bcd60e51b815260206004820152601c60248201527f524720546f6b656e20616464726573732063616e6e6f74206265203000000000604482015290519081900360640190fd5b6001600160a01b0381166100f2576040805162461bcd60e51b815260206004820152601a60248201527f45524337323120616464726573732063616e6e6f742062652030000000000000604482015290519081900360640190fd5b600080546001600160a01b039384166001600160a01b031991821617909155600480549290931691161790556103208061012d6000396000f3fe608060405234801561001057600080fd5b50600436106100615760003560e01c80627ffb78146100665780630b71d2561461008a57806367e4ac2c146100bb57806392206ff514610113578063f110a60e1461011b578063fa3fa5f014610123575b600080fd5b61006e610140565b604080516001600160a01b039092168252519081900360200190f35b6100a7600480360360208110156100a057600080fd5b503561014f565b604080519115158252519081900360200190f35b6100c361025f565b60408051602080825283518183015283519192839290830191858101910280838360005b838110156100ff5781810151838201526020016100e7565b505050509050019250505060405180910390f35b61006e6102b7565b61006e6102c6565b6100a76004803603602081101561013957600080fd5b50356102d5565b6004546001600160a01b031690565b6004546000906001600160a01b031633146101b1576040805162461bcd60e51b815260206004820152601860248201527f6f70657261746f72206973206e6f7420617070726f7665640000000000000000604482015290519081900360640190fd5b60008281526002602052604090205460ff161561020b576040805162461bcd60e51b8152602060048201526013602482015272105cdcd95d08185b1c9958591e481859191959606a1b604482015290519081900360640190fd5b506000818152600260205260408120805460ff1916600190811790915580548082018255918190527fb10e2d527612073b26eecdfd717e6a320cf44b4afac2b0732d9fcbe2b7fa0cf6909101829055919050565b606060018054806020026020016040519081016040528092919081815260200182805480156102ad57602002820191906000526020600020905b815481526020019060010190808311610299575b5050505050905090565b6000546001600160a01b031690565b6000546001600160a01b031681565b60009081526002602052604090205460ff169056fea2646970667358221220a7ce047b907f03f97562d7966d4303b7cd1b0624c5a7e8ec70e67980f2f7c2fc64736f6c63430007000033a26469706673582212200a850a7c51c0e36bbe94b3a18cd11d7e65aa82774b8020f98fa964acfbc4a70964736f6c63430007000033",
  "immutableReferences": {},
  "source": "// SPDX-License-Identifier: MIT\n\npragma solidity >=0.7.0 <0.8.0;\n\nimport \"../Ownable.sol\";\nimport \"../Grouping.sol\";\n\ncontract GroupingFactoryV1_0 is Ownable {\n\n    /*\n     *  Events\n     */\n    event DeployGrouping(address indexed grouping, address indexed _rgToken, address indexed _erc721);\n\n    address[] public deployed;\n\n    //upgradability\n    bool internal _initialized;\n\n    function initialize(address _multisigWallet) public {\n        require(!_initialized, \"conract already initialized\");\n        _initialized = true;\n        setOwner(_multisigWallet);\n    }\n\n    function deployGrouping(address _rgToken, address _erc721) external onlyOwner {\n        require(_rgToken != address(0), \"RG Token address cannot be 0\");\n        require(_erc721 != address(0), \"ERC721 address cannot be 0\");\n        Grouping grouping = new Grouping(_rgToken, _erc721);\n        deployed.push(address(grouping));\n        emit DeployGrouping(address(grouping), _rgToken, _erc721);\n    }\n\n    function getDeployed() external view returns(address[] memory) {\n        return deployed;\n    }\n}",
  "sourcePath": "/home/santiago/projects/beefledger/erc20_asset_grouping/src/ethereum/contracts/V1_0/GroupingFactoryV1_0.sol",
  "compiler": {
    "name": "solc",
    "version": "0.7.0+commit.9e61f92b.Emscripten.clang"
  },
  "schemaVersion": "3.3.2",
  "updatedAt": "2021-03-03T03:58:58.958Z",
  "devdoc": {
    "kind": "dev",
    "methods": {
      "owner()": {
        "details": "Tells the address of the owner return the address of the owner"
      },
      "transferOwnership(address)": {
        "details": "Allows the current owner to transfer control of the contract to a newOwner.",
        "params": {
          "newOwner": "The address to transfer ownership to."
        }
      }
    },
    "version": 1
  },
  "userdoc": {
    "kind": "user",
    "methods": {},
    "version": 1
  }
}