{
  "contractName": "Grouping",
  "abi": [
    {
      "inputs": [
        {
          "internalType": "address",
          "name": "_rgToken",
          "type": "address"
        },
        {
          "internalType": "address",
          "name": "_erc721",
          "type": "address"
        }
      ],
      "stateMutability": "nonpayable",
      "type": "constructor"
    },
    {
      "inputs": [],
      "name": "rgToken",
      "outputs": [
        {
          "internalType": "address",
          "name": "",
          "type": "address"
        }
      ],
      "stateMutability": "view",
      "type": "function"
    },
    {
      "inputs": [
        {
          "internalType": "uint256",
          "name": "_asset",
          "type": "uint256"
        }
      ],
      "name": "addAsset",
      "outputs": [
        {
          "internalType": "bool",
          "name": "",
          "type": "bool"
        }
      ],
      "stateMutability": "nonpayable",
      "type": "function"
    },
    {
      "inputs": [
        {
          "internalType": "uint256",
          "name": "_asset",
          "type": "uint256"
        }
      ],
      "name": "isAssetAdded",
      "outputs": [
        {
          "internalType": "bool",
          "name": "",
          "type": "bool"
        }
      ],
      "stateMutability": "view",
      "type": "function"
    },
    {
      "inputs": [],
      "name": "getAssets",
      "outputs": [
        {
          "internalType": "uint256[]",
          "name": "",
          "type": "uint256[]"
        }
      ],
      "stateMutability": "view",
      "type": "function"
    },
    {
      "inputs": [],
      "name": "getRGToken",
      "outputs": [
        {
          "internalType": "address",
          "name": "",
          "type": "address"
        }
      ],
      "stateMutability": "view",
      "type": "function"
    },
    {
      "inputs": [],
      "name": "getERC721Address",
      "outputs": [
        {
          "internalType": "address",
          "name": "",
          "type": "address"
        }
      ],
      "stateMutability": "view",
      "type": "function"
    }
  ],
  "bytecode": "0x608060405234801561001057600080fd5b5060405161044d38038061044d8339818101604052604081101561003357600080fd5b5080516020909101516001600160a01b038216610097576040805162461bcd60e51b815260206004820152601c60248201527f524720546f6b656e20616464726573732063616e6e6f74206265203000000000604482015290519081900360640190fd5b6001600160a01b0381166100f2576040805162461bcd60e51b815260206004820152601a60248201527f45524337323120616464726573732063616e6e6f742062652030000000000000604482015290519081900360640190fd5b600080546001600160a01b039384166001600160a01b031991821617909155600480549290931691161790556103208061012d6000396000f3fe608060405234801561001057600080fd5b50600436106100615760003560e01c80627ffb78146100665780630b71d2561461008a57806367e4ac2c146100bb57806392206ff514610113578063f110a60e1461011b578063fa3fa5f014610123575b600080fd5b61006e610140565b604080516001600160a01b039092168252519081900360200190f35b6100a7600480360360208110156100a057600080fd5b503561014f565b604080519115158252519081900360200190f35b6100c361025f565b60408051602080825283518183015283519192839290830191858101910280838360005b838110156100ff5781810151838201526020016100e7565b505050509050019250505060405180910390f35b61006e6102b7565b61006e6102c6565b6100a76004803603602081101561013957600080fd5b50356102d5565b6004546001600160a01b031690565b6004546000906001600160a01b031633146101b1576040805162461bcd60e51b815260206004820152601860248201527f6f70657261746f72206973206e6f7420617070726f7665640000000000000000604482015290519081900360640190fd5b60008281526002602052604090205460ff161561020b576040805162461bcd60e51b8152602060048201526013602482015272105cdcd95d08185b1c9958591e481859191959606a1b604482015290519081900360640190fd5b506000818152600260205260408120805460ff1916600190811790915580548082018255918190527fb10e2d527612073b26eecdfd717e6a320cf44b4afac2b0732d9fcbe2b7fa0cf6909101829055919050565b606060018054806020026020016040519081016040528092919081815260200182805480156102ad57602002820191906000526020600020905b815481526020019060010190808311610299575b5050505050905090565b6000546001600160a01b031690565b6000546001600160a01b031681565b60009081526002602052604090205460ff169056fea2646970667358221220e48c71273a2d1f9d58a883311134c2fccc2661027ffb781e0c32426ca1aa12ee64736f6c63430007000033",
  "immutableReferences": {},
  "source": "// SPDX-License-Identifier: MIT\n\npragma solidity >=0.7.0 <0.8.0;\n\nimport \"./V1_1/ERC721BeefLedgerV1_1.sol\";\n\ncontract Grouping {\n\n    address public rgToken;\n    uint256[] private _assets;\n\n    mapping (uint256 => bool) internal _isAddedAsset;\n    mapping (address => bool) internal _isOperator;\n\n    ERC721BeefLedgerV1_1 internal _erc721V1_1;\n\n    modifier onlyERC721() {\n        require(address(_erc721V1_1) == msg.sender, \"operator is not approved\");\n        _;\n    }\n\n    constructor(address _rgToken, address _erc721) {\n        require(_rgToken != address(0), \"RG Token address cannot be 0\");\n        require(_erc721 != address(0), \"ERC721 address cannot be 0\");\n        rgToken = _rgToken;\n        _erc721V1_1 = ERC721BeefLedgerV1_1(_erc721);\n    }\n\n    function addAsset(uint256 _asset) external onlyERC721 returns(bool) {\n        require(!_isAddedAsset[_asset], \"Asset already added\");\n        _isAddedAsset[_asset] = true;\n        _assets.push(_asset);\n        return true;\n    }\n\n    function isAssetAdded(uint256 _asset) public view returns(bool) {\n        return(_isAddedAsset[_asset]);\n    }\n\n    function getAssets() public view returns(uint256[] memory) {\n        return _assets;\n    }\n\n    function getRGToken() public view returns(address) {\n        return rgToken;\n    }\n\n    function getERC721Address() public view returns(address) {\n        return address(_erc721V1_1);\n    }\n}",
  "sourcePath": "/home/santiago/projects/beefledger/erc20_asset_grouping/src/ethereum/contracts/Grouping.sol",
  "compiler": {
    "name": "solc",
    "version": "0.7.0+commit.9e61f92b.Emscripten.clang"
  },
  "schemaVersion": "3.3.2",
  "updatedAt": "2021-02-18T17:05:49.685Z",
  "devdoc": {
    "kind": "dev",
    "methods": {},
    "version": 1
  },
  "userdoc": {
    "kind": "user",
    "methods": {},
    "version": 1
  }
}