{
  "contractName": "Grouping",
  "abi": [
    {
      "inputs": [
        {
          "internalType": "address",
          "name": "_rgToken",
          "type": "address"
        },
        {
          "internalType": "address",
          "name": "_erc721",
          "type": "address"
        }
      ],
      "stateMutability": "nonpayable",
      "type": "constructor"
    },
    {
      "anonymous": false,
      "inputs": [
        {
          "indexed": false,
          "internalType": "address",
          "name": "previousOwner",
          "type": "address"
        },
        {
          "indexed": false,
          "internalType": "address",
          "name": "newOwner",
          "type": "address"
        }
      ],
      "name": "OwnershipTransferred",
      "type": "event"
    },
    {
      "inputs": [
        {
          "internalType": "uint256",
          "name": "",
          "type": "uint256"
        }
      ],
      "name": "assets",
      "outputs": [
        {
          "internalType": "uint256",
          "name": "",
          "type": "uint256"
        }
      ],
      "stateMutability": "view",
      "type": "function"
    },
    {
      "inputs": [
        {
          "internalType": "uint256",
          "name": "",
          "type": "uint256"
        }
      ],
      "name": "operators",
      "outputs": [
        {
          "internalType": "address",
          "name": "",
          "type": "address"
        }
      ],
      "stateMutability": "view",
      "type": "function"
    },
    {
      "inputs": [],
      "name": "owner",
      "outputs": [
        {
          "internalType": "address",
          "name": "",
          "type": "address"
        }
      ],
      "stateMutability": "view",
      "type": "function"
    },
    {
      "inputs": [],
      "name": "rgToken",
      "outputs": [
        {
          "internalType": "address",
          "name": "",
          "type": "address"
        }
      ],
      "stateMutability": "view",
      "type": "function"
    },
    {
      "inputs": [
        {
          "internalType": "address",
          "name": "newOwner",
          "type": "address"
        }
      ],
      "name": "transferOwnership",
      "outputs": [],
      "stateMutability": "nonpayable",
      "type": "function"
    },
    {
      "inputs": [
        {
          "internalType": "address",
          "name": "_operator",
          "type": "address"
        }
      ],
      "name": "approveOperator",
      "outputs": [],
      "stateMutability": "nonpayable",
      "type": "function"
    },
    {
      "inputs": [
        {
          "internalType": "address",
          "name": "_operator",
          "type": "address"
        }
      ],
      "name": "isOperatorApproved",
      "outputs": [
        {
          "internalType": "bool",
          "name": "",
          "type": "bool"
        }
      ],
      "stateMutability": "view",
      "type": "function"
    },
    {
      "inputs": [
        {
          "internalType": "uint256",
          "name": "_asset",
          "type": "uint256"
        }
      ],
      "name": "addAsset",
      "outputs": [
        {
          "internalType": "bool",
          "name": "",
          "type": "bool"
        }
      ],
      "stateMutability": "nonpayable",
      "type": "function"
    },
    {
      "inputs": [
        {
          "internalType": "uint256",
          "name": "_asset",
          "type": "uint256"
        }
      ],
      "name": "isAssetAdded",
      "outputs": [
        {
          "internalType": "bool",
          "name": "",
          "type": "bool"
        }
      ],
      "stateMutability": "view",
      "type": "function"
    }
  ],
  "bytecode": "0x608060405234801561001057600080fd5b506040516107c53803806107c58339818101604052604081101561003357600080fd5b5080516020909101516100453361012c565b6001600160a01b0382166100a0576040805162461bcd60e51b815260206004820152601c60248201527f524720546f6b656e20616464726573732063616e6e6f74206265203000000000604482015290519081900360640190fd5b6001600160a01b0381166100fb576040805162461bcd60e51b815260206004820152601a60248201527f45524337323120616464726573732063616e6e6f742062652030000000000000604482015290519081900360640190fd5b600180546001600160a01b039384166001600160a01b0319918216179091556006805492909316911617905561014e565b600080546001600160a01b0319166001600160a01b0392909216919091179055565b6106688061015d6000396000f3fe608060405234801561001057600080fd5b50600436106100935760003560e01c8063cf35bdd011610066578063cf35bdd01461013b578063e28d49061461016a578063f110a60e14610187578063f2fde38b1461018f578063fa3fa5f0146101b557610093565b80630b71d25614610098578063242cae9f146100c957806381a5fcfe146100f15780638da5cb5b14610117575b600080fd5b6100b5600480360360208110156100ae57600080fd5b50356101d2565b604080519115158252519081900360200190f35b6100ef600480360360208110156100df57600080fd5b50356001600160a01b03166102e2565b005b6100b56004803603602081101561010757600080fd5b50356001600160a01b031661046d565b61011f61048b565b604080516001600160a01b039092168252519081900360200190f35b6101586004803603602081101561015157600080fd5b503561049a565b60408051918252519081900360200190f35b61011f6004803603602081101561018057600080fd5b50356104b8565b61011f6104df565b6100ef600480360360208110156101a557600080fd5b50356001600160a01b03166104ee565b6100b5600480360360208110156101cb57600080fd5b50356105fb565b6006546000906001600160a01b03163314610234576040805162461bcd60e51b815260206004820152601860248201527f6f70657261746f72206973206e6f7420617070726f7665640000000000000000604482015290519081900360640190fd5b60008281526004602052604090205460ff161561028e576040805162461bcd60e51b8152602060048201526013602482015272105cdcd95d08185b1c9958591e481859191959606a1b604482015290519081900360640190fd5b506000818152600460205260408120805460ff1916600190811790915560028054808301825592527f405787fa12a823e0f2b7631cc41b3ba8828b3321ca811111fa75cd3aa3bb5ace909101829055919050565b6102ea61048b565b6001600160a01b0316336001600160a01b031614610345576040805162461bcd60e51b815260206004820152601360248201527239b2b73232b91034b9903737ba1037bbb732b960691b604482015290519081900360640190fd5b6001600160a01b0381166103a0576040805162461bcd60e51b815260206004820152601c60248201527f4f70657261746f7220616464726573732063616e6e6f74206265203000000000604482015290519081900360640190fd5b6001600160a01b03811660009081526005602052604090205460ff1615610407576040805162461bcd60e51b815260206004820152601660248201527513dc195c985d1bdc88185b1c9958591e48185919195960521b604482015290519081900360640190fd5b6001600160a01b03166000818152600560205260408120805460ff191660019081179091556003805491820181559091527fc2575a0e9e593c00f959f8c92f12db2869c3395a3b0502d05e2516446f71f85b0180546001600160a01b0319169091179055565b6001600160a01b031660009081526005602052604090205460ff1690565b6000546001600160a01b031690565b600281815481106104a757fe5b600091825260209091200154905081565b600381815481106104c557fe5b6000918252602090912001546001600160a01b0316905081565b6001546001600160a01b031681565b6104f661048b565b6001600160a01b0316336001600160a01b031614610551576040805162461bcd60e51b815260206004820152601360248201527239b2b73232b91034b9903737ba1037bbb732b960691b604482015290519081900360640190fd5b6001600160a01b0381166105a4576040805162461bcd60e51b815260206004820152601560248201527406e6577206f776e65722063616e6e6f74206265203605c1b604482015290519081900360640190fd5b7f8be0079c531659141344cd1fd0a4f28419497f9722a3daafe3b4186f6b6457e06105cd61048b565b604080516001600160a01b03928316815291841660208301528051918290030190a16105f881610610565b50565b60009081526004602052604090205460ff1690565b600080546001600160a01b0319166001600160a01b039290921691909117905556fea2646970667358221220329ded9b591b3add36648790dd63a21590a7d1af49044d17ecfe6ec2ed906e9d64736f6c63430007000033",
  "immutableReferences": {},
  "source": "// SPDX-License-Identifier: MIT\n\npragma solidity >=0.7.0 <0.8.0;\n\nimport \"./Ownable.sol\";\nimport \"./V1_1/ERC721BeefLedgerV1_1.sol\";\n\ncontract Grouping is Ownable {\n\n    address public rgToken;\n    uint256[] public assets;\n\n    /// operators are the erc721 owners that have been approved in this \n    address[] public operators;\n\n    mapping (uint256 => bool) internal _isAsset;\n    mapping (address => bool) internal _isOperator;\n\n    ERC721BeefLedgerV1_1 internal _erc721V1_1;\n\n    modifier onlyERC721() {\n        require(address(_erc721V1_1) == msg.sender, \"operator is not approved\");\n        _;\n    }\n\n    constructor(address _rgToken, address _erc721) {\n        require(_rgToken != address(0), \"RG Token address cannot be 0\");\n        require(_erc721 != address(0), \"ERC721 address cannot be 0\");\n        rgToken = _rgToken;\n        _erc721V1_1 = ERC721BeefLedgerV1_1(_erc721);\n    }\n\n    /* Allows a ERC721 Owner to add assets to the grouping contract */\n    function approveOperator(address _operator) external onlyOwner {\n        require(_operator != address(0), \"Operator address cannot be 0\");\n        require(!_isOperator[_operator], \"Operator already added\");\n        _isOperator[_operator] = true;\n        operators.push(_operator);\n    }\n\n    function isOperatorApproved(address _operator) public view returns(bool) {\n        return(_isOperator[_operator]);\n    }\n\n    function addAsset(uint256 _asset) external onlyERC721 returns(bool) {\n        require(!_isAsset[_asset], \"Asset already added\");\n        _isAsset[_asset] = true;\n        assets.push(_asset);\n        return true;\n    }\n\n    function isAssetAdded(uint256 _asset) public view returns(bool) {\n        return(_isAsset[_asset]);\n    }\n}",
  "sourcePath": "/home/santiago/projects/beefledger/erc20_asset_grouping/src/ethereum/contracts/Grouping.sol",
  "compiler": {
    "name": "solc",
    "version": "0.7.0+commit.9e61f92b.Emscripten.clang"
  },
  "schemaVersion": "3.3.2",
  "updatedAt": "2021-02-08T19:42:05.951Z",
  "devdoc": {
    "kind": "dev",
    "methods": {
      "owner()": {
        "details": "Tells the address of the owner return the address of the owner"
      },
      "transferOwnership(address)": {
        "details": "Allows the current owner to transfer control of the contract to a newOwner.",
        "params": {
          "newOwner": "The address to transfer ownership to."
        }
      }
    },
    "version": 1
  },
  "userdoc": {
    "kind": "user",
    "methods": {
      "operators(uint256)": {
        "notice": "operators are the erc721 owners that have been approved in this "
      }
    },
    "version": 1
  }
}