{
  "contractName": "MultiSigHashed",
  "abi": [
    {
      "inputs": [
        {
          "internalType": "address[]",
          "name": "_owners",
          "type": "address[]"
        },
        {
          "internalType": "uint256",
          "name": "_required",
          "type": "uint256"
        }
      ],
      "stateMutability": "nonpayable",
      "type": "constructor"
    },
    {
      "anonymous": false,
      "inputs": [
        {
          "indexed": true,
          "internalType": "address",
          "name": "sender",
          "type": "address"
        },
        {
          "indexed": true,
          "internalType": "bytes32",
          "name": "hash",
          "type": "bytes32"
        }
      ],
      "name": "Confirmation",
      "type": "event"
    },
    {
      "anonymous": false,
      "inputs": [
        {
          "indexed": true,
          "internalType": "address",
          "name": "sender",
          "type": "address"
        },
        {
          "indexed": false,
          "internalType": "uint256",
          "name": "value",
          "type": "uint256"
        }
      ],
      "name": "Deposit",
      "type": "event"
    },
    {
      "anonymous": false,
      "inputs": [
        {
          "indexed": true,
          "internalType": "bytes32",
          "name": "hash",
          "type": "bytes32"
        }
      ],
      "name": "Execution",
      "type": "event"
    },
    {
      "anonymous": false,
      "inputs": [
        {
          "indexed": true,
          "internalType": "bytes32",
          "name": "hash",
          "type": "bytes32"
        }
      ],
      "name": "ExecutionFailure",
      "type": "event"
    },
    {
      "anonymous": false,
      "inputs": [
        {
          "indexed": true,
          "internalType": "address",
          "name": "owner",
          "type": "address"
        }
      ],
      "name": "OwnerAddition",
      "type": "event"
    },
    {
      "anonymous": false,
      "inputs": [
        {
          "indexed": true,
          "internalType": "address",
          "name": "owner",
          "type": "address"
        }
      ],
      "name": "OwnerRemoval",
      "type": "event"
    },
    {
      "anonymous": false,
      "inputs": [
        {
          "indexed": false,
          "internalType": "uint256",
          "name": "required",
          "type": "uint256"
        }
      ],
      "name": "RequirementChange",
      "type": "event"
    },
    {
      "anonymous": false,
      "inputs": [
        {
          "indexed": true,
          "internalType": "address",
          "name": "sender",
          "type": "address"
        },
        {
          "indexed": true,
          "internalType": "bytes32",
          "name": "hash",
          "type": "bytes32"
        }
      ],
      "name": "Revocation",
      "type": "event"
    },
    {
      "anonymous": false,
      "inputs": [
        {
          "indexed": true,
          "internalType": "bytes32",
          "name": "hash",
          "type": "bytes32"
        }
      ],
      "name": "Submission",
      "type": "event"
    },
    {
      "stateMutability": "payable",
      "type": "fallback"
    },
    {
      "inputs": [],
      "name": "MAX_OWNER_COUNT",
      "outputs": [
        {
          "internalType": "uint256",
          "name": "",
          "type": "uint256"
        }
      ],
      "stateMutability": "view",
      "type": "function"
    },
    {
      "inputs": [
        {
          "internalType": "bytes32",
          "name": "",
          "type": "bytes32"
        },
        {
          "internalType": "address",
          "name": "",
          "type": "address"
        }
      ],
      "name": "confirmations",
      "outputs": [
        {
          "internalType": "bool",
          "name": "",
          "type": "bool"
        }
      ],
      "stateMutability": "view",
      "type": "function"
    },
    {
      "inputs": [
        {
          "internalType": "uint256",
          "name": "",
          "type": "uint256"
        }
      ],
      "name": "hashes",
      "outputs": [
        {
          "internalType": "bytes32",
          "name": "",
          "type": "bytes32"
        }
      ],
      "stateMutability": "view",
      "type": "function"
    },
    {
      "inputs": [
        {
          "internalType": "address",
          "name": "",
          "type": "address"
        }
      ],
      "name": "isOwner",
      "outputs": [
        {
          "internalType": "bool",
          "name": "",
          "type": "bool"
        }
      ],
      "stateMutability": "view",
      "type": "function"
    },
    {
      "inputs": [
        {
          "internalType": "uint256",
          "name": "",
          "type": "uint256"
        }
      ],
      "name": "owners",
      "outputs": [
        {
          "internalType": "address",
          "name": "",
          "type": "address"
        }
      ],
      "stateMutability": "view",
      "type": "function"
    },
    {
      "inputs": [],
      "name": "required",
      "outputs": [
        {
          "internalType": "uint256",
          "name": "",
          "type": "uint256"
        }
      ],
      "stateMutability": "view",
      "type": "function"
    },
    {
      "inputs": [],
      "name": "transactionCount",
      "outputs": [
        {
          "internalType": "uint256",
          "name": "",
          "type": "uint256"
        }
      ],
      "stateMutability": "view",
      "type": "function"
    },
    {
      "inputs": [
        {
          "internalType": "bytes32",
          "name": "",
          "type": "bytes32"
        }
      ],
      "name": "transactions",
      "outputs": [
        {
          "internalType": "address",
          "name": "destination",
          "type": "address"
        },
        {
          "internalType": "uint256",
          "name": "value",
          "type": "uint256"
        },
        {
          "internalType": "bytes",
          "name": "data",
          "type": "bytes"
        },
        {
          "internalType": "bool",
          "name": "executed",
          "type": "bool"
        },
        {
          "internalType": "uint256",
          "name": "timestamp",
          "type": "uint256"
        },
        {
          "internalType": "bytes32",
          "name": "hash",
          "type": "bytes32"
        }
      ],
      "stateMutability": "view",
      "type": "function"
    },
    {
      "stateMutability": "payable",
      "type": "receive"
    },
    {
      "inputs": [
        {
          "internalType": "bytes32",
          "name": "hash",
          "type": "bytes32"
        },
        {
          "internalType": "address",
          "name": "owner",
          "type": "address"
        }
      ],
      "name": "ownerHasConfirmed",
      "outputs": [
        {
          "internalType": "bool",
          "name": "",
          "type": "bool"
        }
      ],
      "stateMutability": "view",
      "type": "function"
    },
    {
      "inputs": [
        {
          "internalType": "address",
          "name": "owner",
          "type": "address"
        }
      ],
      "name": "addOwner",
      "outputs": [],
      "stateMutability": "nonpayable",
      "type": "function"
    },
    {
      "inputs": [
        {
          "internalType": "address",
          "name": "owner",
          "type": "address"
        }
      ],
      "name": "removeOwner",
      "outputs": [],
      "stateMutability": "nonpayable",
      "type": "function"
    },
    {
      "inputs": [
        {
          "internalType": "address",
          "name": "owner",
          "type": "address"
        },
        {
          "internalType": "address",
          "name": "newOwner",
          "type": "address"
        }
      ],
      "name": "replaceOwner",
      "outputs": [],
      "stateMutability": "nonpayable",
      "type": "function"
    },
    {
      "inputs": [
        {
          "internalType": "uint256",
          "name": "_required",
          "type": "uint256"
        }
      ],
      "name": "changeRequirement",
      "outputs": [],
      "stateMutability": "nonpayable",
      "type": "function"
    },
    {
      "inputs": [
        {
          "internalType": "address",
          "name": "destination",
          "type": "address"
        },
        {
          "internalType": "uint256",
          "name": "value",
          "type": "uint256"
        },
        {
          "internalType": "bytes",
          "name": "data",
          "type": "bytes"
        }
      ],
      "name": "submitTransaction",
      "outputs": [
        {
          "internalType": "bytes32",
          "name": "hash",
          "type": "bytes32"
        }
      ],
      "stateMutability": "nonpayable",
      "type": "function"
    },
    {
      "inputs": [
        {
          "internalType": "bytes32",
          "name": "hash",
          "type": "bytes32"
        }
      ],
      "name": "confirmTransaction",
      "outputs": [],
      "stateMutability": "nonpayable",
      "type": "function"
    },
    {
      "inputs": [
        {
          "internalType": "bytes32",
          "name": "hash",
          "type": "bytes32"
        }
      ],
      "name": "revokeConfirmation",
      "outputs": [],
      "stateMutability": "nonpayable",
      "type": "function"
    },
    {
      "inputs": [
        {
          "internalType": "bytes32",
          "name": "hash",
          "type": "bytes32"
        }
      ],
      "name": "executeTransaction",
      "outputs": [],
      "stateMutability": "nonpayable",
      "type": "function"
    },
    {
      "inputs": [
        {
          "internalType": "bytes32",
          "name": "hash",
          "type": "bytes32"
        }
      ],
      "name": "isConfirmed",
      "outputs": [
        {
          "internalType": "bool",
          "name": "",
          "type": "bool"
        }
      ],
      "stateMutability": "view",
      "type": "function"
    },
    {
      "inputs": [
        {
          "internalType": "address",
          "name": "destination",
          "type": "address"
        },
        {
          "internalType": "uint256",
          "name": "value",
          "type": "uint256"
        },
        {
          "internalType": "bytes",
          "name": "data",
          "type": "bytes"
        }
      ],
      "name": "makeHash",
      "outputs": [
        {
          "internalType": "bytes32",
          "name": "hash",
          "type": "bytes32"
        }
      ],
      "stateMutability": "pure",
      "type": "function"
    },
    {
      "inputs": [
        {
          "internalType": "bytes32",
          "name": "hash",
          "type": "bytes32"
        }
      ],
      "name": "getConfirmationCount",
      "outputs": [
        {
          "internalType": "uint256",
          "name": "count",
          "type": "uint256"
        }
      ],
      "stateMutability": "view",
      "type": "function"
    },
    {
      "inputs": [],
      "name": "getOwners",
      "outputs": [
        {
          "internalType": "address[]",
          "name": "",
          "type": "address[]"
        }
      ],
      "stateMutability": "view",
      "type": "function"
    },
    {
      "inputs": [
        {
          "internalType": "bytes32",
          "name": "hash",
          "type": "bytes32"
        }
      ],
      "name": "getConfirmations",
      "outputs": [
        {
          "internalType": "address[]",
          "name": "_confirmations",
          "type": "address[]"
        }
      ],
      "stateMutability": "view",
      "type": "function"
    },
    {
      "inputs": [
        {
          "internalType": "bytes32",
          "name": "hash",
          "type": "bytes32"
        }
      ],
      "name": "getTransaction",
      "outputs": [
        {
          "components": [
            {
              "internalType": "address",
              "name": "destination",
              "type": "address"
            },
            {
              "internalType": "uint256",
              "name": "value",
              "type": "uint256"
            },
            {
              "internalType": "bytes",
              "name": "data",
              "type": "bytes"
            },
            {
              "internalType": "bool",
              "name": "executed",
              "type": "bool"
            },
            {
              "internalType": "uint256",
              "name": "timestamp",
              "type": "uint256"
            },
            {
              "internalType": "bytes32",
              "name": "hash",
              "type": "bytes32"
            }
          ],
          "internalType": "struct MultiSigHashed.Transaction",
          "name": "",
          "type": "tuple"
        }
      ],
      "stateMutability": "view",
      "type": "function"
    },
    {
      "inputs": [
        {
          "internalType": "uint256",
          "name": "idx",
          "type": "uint256"
        }
      ],
      "name": "getTransactionByIdx",
      "outputs": [
        {
          "components": [
            {
              "internalType": "address",
              "name": "destination",
              "type": "address"
            },
            {
              "internalType": "uint256",
              "name": "value",
              "type": "uint256"
            },
            {
              "internalType": "bytes",
              "name": "data",
              "type": "bytes"
            },
            {
              "internalType": "bool",
              "name": "executed",
              "type": "bool"
            },
            {
              "internalType": "uint256",
              "name": "timestamp",
              "type": "uint256"
            },
            {
              "internalType": "bytes32",
              "name": "hash",
              "type": "bytes32"
            }
          ],
          "internalType": "struct MultiSigHashed.Transaction",
          "name": "",
          "type": "tuple"
        }
      ],
      "stateMutability": "view",
      "type": "function"
    }
  ],
  "bytecode": "0x60806040523480156200001157600080fd5b506040516200200c3803806200200c833981016040819052620000349162000252565b81518160328211158015620000495750818111155b80156200005557508015155b80156200006157508115155b620000895760405162461bcd60e51b815260040162000080906200030f565b60405180910390fd5b60005b8451811015620001865760026000868381518110620000a757fe5b6020908102919091018101516001600160a01b031682528101919091526040016000205460ff1615620000ee5760405162461bcd60e51b8152600401620000809062000346565b60006001600160a01b03168582815181106200010657fe5b60200260200101516001600160a01b03161415620001385760405162461bcd60e51b8152600401620000809062000370565b6001600260008784815181106200014b57fe5b6020908102919091018101516001600160a01b03168252810191909152604001600020805460ff19169115159190911790556001016200008c565b5083516200019c906004906020870190620001a9565b50505060055550620003c0565b82805482825590600052602060002090810192821562000201579160200282015b828111156200020157825182546001600160a01b0319166001600160a01b03909116178255602090920191600190910190620001ca565b506200020f92915062000213565b5090565b5b808211156200020f5780546001600160a01b031916815560010162000214565b80516001600160a01b03811681146200024c57600080fd5b92915050565b6000806040838503121562000265578182fd5b82516001600160401b03808211156200027c578384fd5b818501915085601f83011262000290578384fd5b8151818111156200029f578485fd5b60209150818102620002b383820162000399565b8281528381019085850183870186018b1015620002ce578889fd5b8896505b84871015620002fc57620002e78b8262000234565b835260019690960195918501918501620002d2565b5097909301519698969750505050505050565b60208082526013908201527f696e76616c696420726571756972656d656e7400000000000000000000000000604082015260600190565b60208082526010908201526f34b99030b63932b0b23c9037bbb732b960811b604082015260600190565b6020808252600f908201526e6973206e756c6c206164647265737360881b604082015260600190565b6040518181016001600160401b0381118282101715620003b857600080fd5b604052919050565b611c3c80620003d06000396000f3fe60806040526004361061014f5760003560e01c8063969f8a83116100b6578063c64274741161006f578063c642747414610463578063c69ed5f214610483578063d74f8edd146104a3578063dc8452cd146104b8578063e20056e6146104cd578063f3fc536d146104ed5761019e565b8063969f8a83146103ac578063a0e67e2b146103d9578063a96bf00c146103ee578063b77bf6001461040e578063ba51a6df14610423578063bdfd2793146104435761019e565b8063501895ae11610108578063501895ae146102da578063642f2eaf146102fa5780636486aa511461032c5780637065cb481461034c57806379716e431461036c578063915c219e1461038c5761019e565b8063025e7c27146101dd5780630c4ecab414610213578063113642e514610240578063173825d91461026d5780632f54bf6e1461028d5780634aae13ca146102ad5761019e565b3661019e57341561019c57336001600160a01b03167fe1fffcc4923d04b559f4d29a8bfc6cda04eb5b0d3c460751c2402c5c5cc9109c34604051610193919061199b565b60405180910390a25b005b341561019c57336001600160a01b03167fe1fffcc4923d04b559f4d29a8bfc6cda04eb5b0d3c460751c2402c5c5cc9109c34604051610193919061199b565b3480156101e957600080fd5b506101fd6101f8366004611838565b61050d565b60405161020a91906118ea565b60405180910390f35b34801561021f57600080fd5b5061023361022e366004611850565b610534565b60405161020a9190611990565b34801561024c57600080fd5b5061026061025b366004611838565b610554565b60405161020a919061199b565b34801561027957600080fd5b5061019c610288366004611738565b6105c3565b34801561029957600080fd5b506102336102a8366004611738565b610777565b3480156102b957600080fd5b506102cd6102c8366004611838565b61078c565b60405161020a9190611b27565b3480156102e657600080fd5b506102606102f5366004611838565b610884565b34801561030657600080fd5b5061031a610315366004611838565b610896565b60405161020a969594939291906118fe565b34801561033857600080fd5b50610233610347366004611838565b610963565b34801561035857600080fd5b5061019c610367366004611738565b6109e9565b34801561037857600080fd5b5061019c610387366004611838565b610b49565b34801561039857600080fd5b506102606103a736600461178e565b610c39565b3480156103b857600080fd5b506103cc6103c7366004611838565b610c4e565b60405161020a9190611943565b3480156103e557600080fd5b506103cc610df2565b3480156103fa57600080fd5b50610233610409366004611850565b610e54565b34801561041a57600080fd5b50610260610e81565b34801561042f57600080fd5b5061019c61043e366004611838565b610e87565b34801561044f57600080fd5b506102cd61045e366004611838565b610f2f565b34801561046f57600080fd5b5061026061047e36600461178e565b610fd2565b34801561048f57600080fd5b5061019c61049e366004611838565b610fdf565b3480156104af57600080fd5b506102606111cf565b3480156104c457600080fd5b506102606111d4565b3480156104d957600080fd5b5061019c6104e836600461175a565b6111da565b3480156104f957600080fd5b5061019c610508366004611838565b611390565b6004818154811061051a57fe5b6000918252602090912001546001600160a01b0316905081565b600160209081526000928352604080842090915290825290205460ff1681565b6000805b6004548110156105bd576000838152600160205260408120600480549192918490811061058157fe5b60009182526020808320909101546001600160a01b0316835282019290925260400190205460ff16156105b5576001820191505b600101610558565b50919050565b3330146105eb5760405162461bcd60e51b81526004016105e290611ad2565b60405180910390fd5b6001600160a01b038116600090815260026020526040902054819060ff166106255760405162461bcd60e51b81526004016105e290611aa4565b6001600160a01b0382166000908152600260205260408120805460ff191690555b600454600019018110156106f957826001600160a01b03166004828154811061066b57fe5b6000918252602090912001546001600160a01b031614156106f15760048054600019810190811061069857fe5b600091825260209091200154600480546001600160a01b0390921691839081106106be57fe5b9060005260206000200160006101000a8154816001600160a01b0302191690836001600160a01b031602179055506106f9565b600101610646565b50600480548061070557fe5b600082815260209020810160001990810180546001600160a01b0319169055019055600454600554111561073f5760045461073f90610e87565b6040516001600160a01b038316907f8001553a916ef2f495d26a907cc54d96ed840d7bda71e73194bf5a9df7a76b9090600090a25050565b60026020526000908152604090205460ff1681565b61079461164a565b60008281526020818152604091829020825160c08101845281546001600160a01b03168152600180830154828501526002808401805487516101009482161594909402600019011691909104601f8101869004860283018601875280835292959394938601939192909183018282801561084f5780601f106108245761010080835404028352916020019161084f565b820191906000526020600020905b81548152906001019060200180831161083257829003601f168201915b5050509183525050600382015460ff16151560208201526004820154604082015260059091015460609091015290505b919050565b60036020526000908152604090205481565b6000602081815291815260409081902080546001808301546002808501805487516101009582161595909502600019011691909104601f81018890048802840188019096528583526001600160a01b03909316959094919291908301828280156109415780601f1061091657610100808354040283529160200191610941565b820191906000526020600020905b81548152906001019060200180831161092457829003601f168201915b5050505060038301546004840154600590940154929360ff9091169290915086565b600080805b6004548110156109e2576000848152600160205260408120600480549192918490811061099157fe5b60009182526020808320909101546001600160a01b0316835282019290925260400190205460ff16156109c5576001820191505b6005548214156109da5760019250505061087f565b600101610968565b5050919050565b333014610a085760405162461bcd60e51b81526004016105e290611ad2565b6001600160a01b038116600090815260026020526040902054819060ff1615610a435760405162461bcd60e51b81526004016105e290611a00565b816001600160a01b038116610a6a5760405162461bcd60e51b81526004016105e290611a4f565b60048054905060010160055460328211158015610a875750818111155b8015610a9257508015155b8015610a9d57508115155b610ab95760405162461bcd60e51b81526004016105e2906119a4565b6001600160a01b038516600081815260026020526040808220805460ff1916600190811790915560048054918201815583527f8a35acfbc15ff81a39ae7d344fd709f28e8600b4aa8c65c6b64bfe7fe36bd19b0180546001600160a01b03191684179055517ff39e6e1eb0edcf53c221607b54b00cd28f3196fed0a24994dc308b8f611b682d9190a25050505050565b3360008181526002602052604090205460ff16610b785760405162461bcd60e51b81526004016105e290611aa4565b81610b828161147f565b610b9e5760405162461bcd60e51b81526004016105e290611a7a565b60008381526001602090815260408083203380855292529091205484919060ff1615610bdc5760405162461bcd60e51b81526004016105e290611af7565b6000858152600160208181526040808420338086529252808420805460ff1916909317909255905187927fe1c52dc63b719ade82e8bea94cc41a0d5d28e4aaf536adb5e9cccc9ff8c1aeda91a3610c3285610fdf565b5050505050565b6000610c4684848461149c565b949350505050565b600454606090819067ffffffffffffffff81118015610c6c57600080fd5b50604051908082528060200260200182016040528015610c96578160200160208202803683370190505b5090506000805b600454811015610d595760008581526001602052604081206004805491929184908110610cc657fe5b60009182526020808320909101546001600160a01b0316835282019290925260400190205460ff1615610d515760048181548110610d0057fe5b9060005260206000200160009054906101000a90046001600160a01b0316838381518110610d2a57fe5b60200260200101906001600160a01b031690816001600160a01b0316815250506001820191505b600101610c9d565b8167ffffffffffffffff81118015610d7057600080fd5b50604051908082528060200260200182016040528015610d9a578160200160208202803683370190505b509350600090505b81811015610dea57828181518110610db657fe5b6020026020010151848281518110610dca57fe5b6001600160a01b0390921660209283029190910190910152600101610da2565b505050919050565b60606004805480602002602001604051908101604052809291908181526020018280548015610e4a57602002820191906000526020600020905b81546001600160a01b03168152600190910190602001808311610e2c575b5050505050905090565b60008281526001602090815260408083206001600160a01b038516845290915290205460ff165b92915050565b60065481565b333014610ea65760405162461bcd60e51b81526004016105e290611ad2565b6004548160328211801590610ebb5750818111155b8015610ec657508015155b8015610ed157508115155b610eed5760405162461bcd60e51b81526004016105e2906119a4565b60058390556040517fa3f1ee9126a074d9326c682f561767f710e927faa811f7a99829d49dc421797a90610f2290859061199b565b60405180910390a1505050565b610f3761164a565b600082815260036020908152604080832054835282825291829020825160c08101845281546001600160a01b03168152600180830154828501526002808401805487516101009482161594909402600019011691909104601f8101869004860283018601875280835292959394938601939192909183018282801561084f5780601f106108245761010080835404028352916020019161084f565b6000610c468484846114d2565b3360008181526002602052604090205460ff1661100e5760405162461bcd60e51b81526004016105e290611aa4565b60008281526001602090815260408083203380855292529091205483919060ff1661104b5760405162461bcd60e51b81526004016105e290611a26565b600084815260208190526040902060030154849060ff161561107f5760405162461bcd60e51b81526004016105e2906119d1565b61108885610963565b15610c32576000858152602081815260409182902060038101805460ff19166001908117909155815481830154600280850180548851601f60001997831615610100029790970190911692909204948501879004870282018701909752838152939561115a956001600160a01b039093169491939283908301828280156111505780601f1061112557610100808354040283529160200191611150565b820191906000526020600020905b81548152906001019060200180831161113357829003601f168201915b5050505050611627565b1561118f5760405186907f7e9e1cb65db4927b1815f498cbaa226a15c277816f7df407573682110522c9b190600090a26111c7565b60405186907fdbe42d02a4e07d7eeff2874efe172540c93b297d206f6d691c9782a257323e3290600090a260038101805460ff191690555b505050505050565b603281565b60055481565b3330146111f95760405162461bcd60e51b81526004016105e290611ad2565b6001600160a01b038216600090815260026020526040902054829060ff166112335760405162461bcd60e51b81526004016105e290611aa4565b6001600160a01b038216600090815260026020526040902054829060ff161561126e5760405162461bcd60e51b81526004016105e290611a00565b60005b6004548110156112f657846001600160a01b03166004828154811061129257fe5b6000918252602090912001546001600160a01b031614156112ee5783600482815481106112bb57fe5b9060005260206000200160006101000a8154816001600160a01b0302191690836001600160a01b031602179055506112f6565b600101611271565b506001600160a01b03808516600081815260026020526040808220805460ff1990811690915593871682528082208054909416600117909355915190917f8001553a916ef2f495d26a907cc54d96ed840d7bda71e73194bf5a9df7a76b9091a26040516001600160a01b038416907ff39e6e1eb0edcf53c221607b54b00cd28f3196fed0a24994dc308b8f611b682d90600090a250505050565b3360008181526002602052604090205460ff166113bf5760405162461bcd60e51b81526004016105e290611aa4565b60008281526001602090815260408083203380855292529091205483919060ff166113fc5760405162461bcd60e51b81526004016105e290611a26565b600084815260208190526040902060030154849060ff16156114305760405162461bcd60e51b81526004016105e2906119d1565b6000858152600160209081526040808320338085529252808320805460ff191690555187927f9aec1a62b961581534d37fd62d35e3648f05a17b1f986eda1d1a9d97b147840691a35050505050565b6000908152602081905260409020546001600160a01b0316151590565b60008383836040516020016114b3939291906118ab565b6040516020818303038152906040528051906020012090509392505050565b6000836001600160a01b0381166114fb5760405162461bcd60e51b81526004016105e290611a4f565b61150685858561149c565b91506115118261147f565b611616576040805160c0810182526001600160a01b038781168252602080830188815283850188815260006060860181905242608087015260a0860189905288815280845295909520845181546001600160a01b0319169416939093178355516001830155925180519293919261158e926002850192019061168e565b5060608201516003828101805460ff1916921515929092179091556080830151600483015560a0909201516005909101556006805460009081526020929092526040909120839055805460010190556115e682610b49565b60405182907f1b15da2a2b1f440c8fb970f04466e7ccd3a8215634645d232bbc23c75785b5bb90600090a261161f565b61161f82610b49565b509392505050565b6000806040516020840160008287838a8c6187965a03f198975050505050505050565b6040518060c0016040528060006001600160a01b03168152602001600081526020016060815260200160001515815260200160008152602001600080191681525090565b828054600181600116156101000203166002900490600052602060002090601f016020900481019282601f106116cf57805160ff19168380011785556116fc565b828001600101855582156116fc579182015b828111156116fc5782518255916020019190600101906116e1565b5061170892915061170c565b5090565b5b80821115611708576000815560010161170d565b80356001600160a01b0381168114610e7b57600080fd5b600060208284031215611749578081fd5b6117538383611721565b9392505050565b6000806040838503121561176c578081fd5b6117768484611721565b91506117858460208501611721565b90509250929050565b6000806000606084860312156117a2578081fd5b83356117ad81611bee565b925060208401359150604084013567ffffffffffffffff808211156117d0578283fd5b818601915086601f8301126117e3578283fd5b8135818111156117f1578384fd5b611804601f8201601f1916602001611b8b565b915080825287602082850101111561181a578384fd5b61182b816020840160208601611bb2565b5080925050509250925092565b600060208284031215611849578081fd5b5035919050565b60008060408385031215611862578182fd5b82359150602083013561187481611bee565b809150509250929050565b60008151808452611897816020860160208601611bbe565b601f01601f19169290920160200192915050565b60006bffffffffffffffffffffffff198560601b16825283601483015282516118db816034850160208701611bbe565b91909101603401949350505050565b6001600160a01b0391909116815260200190565b600060018060a01b038816825286602083015260c0604083015261192560c083018761187f565b941515606083015250608081019290925260a0909101529392505050565b6020808252825182820181905260009190848201906040850190845b818110156119845783516001600160a01b03168352928401929184019160010161195f565b50909695505050505050565b901515815260200190565b90815260200190565b6020808252601390820152721a5b9d985b1a59081c995c5d5a5c995b595b9d606a1b604082015260600190565b6020808252601590820152740e881d1e08185b1c9958591e48195e1958dd5d1959605a1b604082015260600190565b6020808252600c908201526b4f776e65722065786973747360a01b604082015260600190565b6020808252600f908201526e0e881b9bdd0818dbdb999a5c9b5959608a1b604082015260600190565b6020808252601190820152700e881859191c995cdcc81a5cc81b9d5b1b607a1b604082015260600190565b60208082526010908201526f151e08191bd95cdb89dd08195e1a5cdd60821b604082015260600190565b60208082526014908201527313dddb995c88191bd95cc81b9bdd08195e1a5cdd60621b604082015260600190565b6020808252600b908201526a13db9b1e481dd85b1b195d60aa1b604082015260600190565b6020808252601690820152750e881a5cc8185b1c9958591e4818dbdb999a5c9b595960521b604082015260600190565b60006020825260018060a01b03835116602083015260208301516040830152604083015160c06060840152611b5f60e084018261187f565b9050606084015115156080840152608084015160a084015260a084015160c08401528091505092915050565b60405181810167ffffffffffffffff81118282101715611baa57600080fd5b604052919050565b82818337506000910152565b60005b83811015611bd9578181015183820152602001611bc1565b83811115611be8576000848401525b50505050565b6001600160a01b0381168114611c0357600080fd5b5056fea2646970667358221220d27ccb8685cad5370df36a6126d01c1291552628f58dba6c4d581ecbbf82c13464736f6c63430007000033",
  "immutableReferences": {},
  "source": "// SPDX-License-Identifier: MIT\n\npragma solidity >=0.7.0 <0.8.0;\n\npragma experimental ABIEncoderV2;\n\n/// @title Multisignature wallet - Allows multiple parties to agree on transactions before execution.\n/// @author Stefan George - <stefan.george@consensys.net>\ncontract MultiSigHashed {\n\n    /*\n     *  Events\n     */\n    event Confirmation(address indexed sender, bytes32 indexed hash);\n    event Revocation(address indexed sender, bytes32 indexed hash);\n    event Submission(bytes32 indexed hash);\n    event Execution(bytes32 indexed hash);\n    event ExecutionFailure(bytes32 indexed hash);\n    event Deposit(address indexed sender, uint256 value);\n    event OwnerAddition(address indexed owner);\n    event OwnerRemoval(address indexed owner);\n    event RequirementChange(uint256 required);\n\n    /*\n     *  Constants\n     */\n    uint256 constant public MAX_OWNER_COUNT = 50;\n\n    /*\n     *  Storage\n     */\n    mapping (bytes32 => Transaction) public transactions;\n    mapping (bytes32 => mapping (address => bool)) public confirmations;\n    mapping (address => bool) public isOwner;\n    mapping (uint256 => bytes32) public hashes;\n    address[] public owners;\n    uint256 public required;\n    uint256 public transactionCount;\n\n    struct Transaction {\n        address destination;\n        uint256 value;\n        bytes data;\n        bool executed;\n        uint256 timestamp;\n        bytes32 hash;\n    }\n\n    /*\n     *  Modifiers\n     */\n    modifier onlyWallet() {\n        require(msg.sender == address(this), \"Only wallet\");\n        _;\n    }\n\n    modifier ownerDoesNotExist(address owner) {\n        require(!isOwner[owner], \"Owner exists\");\n        _;\n    }\n\n    modifier ownerExists(address owner) {\n        require(isOwner[owner], \"Owner does not exist\");\n        _;\n    }\n\n    modifier transactionExists(bytes32 hash) {\n        require(_transactionExists(hash), \"Tx doesn't exist\");\n        _;\n    }\n\n    modifier confirmed(bytes32 hash, address owner) {\n        require(confirmations[hash][owner], \": not confirmed\");\n        _;\n    }\n\n    modifier notConfirmed(bytes32 hash, address owner) {\n        require(!confirmations[hash][owner], \": is already confirmed\");\n        _;\n    }\n\n    function ownerHasConfirmed(bytes32 hash, address owner) public view returns (bool) {\n        return confirmations[hash][owner];\n    }\n\n    modifier notExecuted(bytes32 hash) {\n        require(!transactions[hash].executed, \": tx already executed\");\n        _;\n    }\n\n    modifier notNull(address _address) {\n        require(_address != address(0), \": address is null\");\n        _;\n    }\n\n    modifier validRequirement(uint256 ownerCount, uint256 _required) {\n        require(ownerCount <= MAX_OWNER_COUNT && _required <= ownerCount && _required != 0 && ownerCount != 0, \"invalid requirement\");\n        _;\n    }\n\n    /// @dev Fallback function allows to deposit ether.\n    fallback() external payable {\n        if (msg.value > 0)\n            emit Deposit(msg.sender, msg.value);\n    }\n\n    // @dev Explicitly defined function for receiving ether.\n    receive() external payable {\n        if (msg.value > 0)\n            emit Deposit(msg.sender, msg.value);\n    }\n\n    /*\n     * Public functions\n     */\n    /// @dev Contract constructor sets initial owners and required number of confirmations.\n    /// @param _owners List of initial owners.\n    /// @param _required Number of required confirmations.\n    constructor(address[] memory _owners, uint256 _required) validRequirement(_owners.length, _required) {\n        for (uint256 i = 0; i < _owners.length; i++) {\n            require(!isOwner[_owners[i]], \"is already owner\");\n            require(_owners[i] != address(0), \"is null address\");\n            isOwner[_owners[i]] = true;\n        }\n        owners = _owners;\n        required = _required;\n    }\n\n    /// @dev Allows to add a new owner. Transaction has to be sent by wallet.\n    /// @param owner Address of new owner to add.\n    function addOwner(address owner)  public\n        onlyWallet\n        ownerDoesNotExist(owner)\n        notNull(owner)\n        validRequirement(owners.length + 1, required)\n    {\n        isOwner[owner] = true;\n        owners.push(owner);\n        emit OwnerAddition(owner);\n    }\n\n    /// @dev Allows to remove an owner. Transaction has to be sent by wallet.\n    /// @param owner Address of owner to remove.\n    function removeOwner(address owner) public onlyWallet ownerExists(owner) {\n        isOwner[owner] = false;\n        for (uint256 i = 0; i < owners.length - 1; i++){\n            if (owners[i] == owner) {\n                owners[i] = owners[owners.length - 1];\n                break;\n            }\n        }\n        owners.pop();\n        if (required > owners.length)\n            changeRequirement(owners.length);\n        emit OwnerRemoval(owner);\n    }\n\n    /// @dev Allows to replace an owner with a new owner. Transaction has to be sent by wallet.\n    /// @param owner Address of owner to be replaced.\n    /// @param newOwner Address of new owner.\n    function replaceOwner(address owner, address newOwner) public onlyWallet ownerExists(owner) ownerDoesNotExist(newOwner) {\n        for(uint256 i = 0; i < owners.length; i++) {\n            if (owners[i] == owner) {\n                owners[i] = newOwner;\n                break;\n            }\n        }\n        isOwner[owner] = false;\n        isOwner[newOwner] = true;\n        emit OwnerRemoval(owner);\n        emit OwnerAddition(newOwner);\n    }\n\n    /// @dev Allows to change the number of required confirmations. Transaction has to be sent by wallet.\n    /// @param _required Number of required confirmations.\n    function changeRequirement(uint256 _required) public onlyWallet validRequirement(owners.length, _required) {\n        required = _required;\n        emit RequirementChange(_required);\n    }\n\n    /// @dev Allows an owner to submit and confirm a transaction.\n    /// @param destination Transaction target address.\n    /// @param value Transaction ether value.\n    /// @param data Transaction data payload.\n    /// @return hash representing transaction ID.\n    function submitTransaction(address destination, uint256 value, bytes memory data) public returns (bytes32 hash) {\n        return addTransaction(destination, value, data);\n        //confirmTransaction(hash);\n    }\n\n    /// @dev Allows an owner to confirm a transaction.\n    /// @param hash Transaction ID.\n    function confirmTransaction(bytes32 hash) public\n        ownerExists(msg.sender)\n        transactionExists(hash)\n        notConfirmed(hash, msg.sender)\n    {\n        confirmations[hash][msg.sender] = true;\n        emit Confirmation(msg.sender, hash);\n        executeTransaction(hash);\n    }\n\n    /// @dev Allows an owner to revoke a confirmation for a transaction.\n    /// @param hash Transaction ID.\n    function revokeConfirmation(bytes32 hash) public\n        ownerExists(msg.sender)\n        confirmed(hash, msg.sender)\n        notExecuted(hash)\n    {\n        confirmations[hash][msg.sender] = false;\n        emit Revocation(msg.sender, hash);\n    }\n\n    /// @dev Allows anyone to execute a confirmed transaction.\n    /// @param hash Transaction ID.\n    function executeTransaction(bytes32 hash) public\n        ownerExists(msg.sender)\n        confirmed(hash, msg.sender)\n        notExecuted(hash)\n    {\n        if (isConfirmed(hash)) {\n            Transaction storage txn = transactions[hash];\n            txn.executed = true;\n            if (external_call(txn.destination, txn.value, txn.data.length, txn.data))\n                emit Execution(hash);\n            else {\n                emit ExecutionFailure(hash);\n                txn.executed = false;\n            }\n        }\n    }\n\n    // call has been separated into its own function in order to take advantage\n    // of the Solidity's code generator to produce a loop that copies tx.data into memory.\n    function external_call(address destination, uint256 value, uint256 dataLength, bytes memory data) internal returns (bool) {\n        bool result;\n        assembly {\n            let x := mload(0x40)   // \"Allocate\" memory for output (0x40 is where \"free memory\" pointer is stored by convention)\n            let d := add(data, 32) // First 32 bytes are the padded length of data, so exclude that\n            result := call(sub(gas(), 34710),   // 34710 is the value that solidity is currently emitting\n                                   // It includes callGas (700) + callVeryLow (3, to pay for SUB) + callValueTransferGas (9000) +\n                                   // callNewAccountGas (25000, in case the destination address does not exist and needs creating)\n                destination,\n                value,\n                d,\n                dataLength,        // Size of the input (in bytes) - this is what fixes the padding problem\n                x,\n                0                  // Output is ignored, therefore the output size is zero\n            )\n        }\n        return result;\n    }\n\n    /// @dev Returns the confirmation status of a transaction.\n    /// @param hash Transaction ID.\n    /// @return Confirmation status.\n    function isConfirmed(bytes32 hash) public view returns (bool) {\n        uint256 count = 0;\n        for (uint256 i = 0; i < owners.length; i++) {\n            if (confirmations[hash][owners[i]])\n                count += 1;\n            if (count == required)\n                return true;\n        }\n    }\n\n    /*\n     * Internal functions\n     */\n    /// @dev Adds a new transaction to the transaction mapping, if transaction does not exist yet.\n    /// @param destination Transaction target address.\n    /// @param value Transaction ether value.\n    /// @param data Transaction data payload.\n    function addTransaction(address destination, uint256 value, bytes memory data) internal\n        notNull(destination) returns (bytes32 hash) {\n        hash = _toHash(destination, value, data);\n        if (!_transactionExists(hash)) {\n            transactions[hash] = Transaction({\n                hash: hash,\n                destination: destination,\n                value: value,\n                data: data,\n                executed: false,\n                timestamp: block.timestamp\n            });\n            hashes[transactionCount] = hash;\n            transactionCount += 1;\n            confirmTransaction(hash);\n            emit Submission(hash);\n        } else {\n            confirmTransaction(hash);\n        }\n    }\n\n    function makeHash(address destination, uint256 value, bytes memory data) public pure returns (bytes32 hash) {\n        return _toHash(destination, value, data);\n    }\n\n    /*\n     * Web3 call functions\n     */\n    /// @dev Returns number of confirmations of a transaction.\n    /// @param hash Transaction ID.\n    /// @return count of confirmations.\n    function getConfirmationCount(bytes32 hash) public view returns (uint256 count) {\n        for (uint256 i = 0; i < owners.length; i++) {\n            if (confirmations[hash][owners[i]])  count += 1;\n        }\n    }\n\n    /// @dev Returns list of owners.\n    /// @return address list of owner addresses.\n    function getOwners() public view returns (address[] memory) {\n        return owners;\n    }\n\n    /// @dev Returns array with owner addresses, which confirmed transaction.\n    /// @param hash Transaction ID.\n    function getConfirmations(bytes32 hash) public view returns (address[] memory _confirmations) {\n        address[] memory confirmationsTemp = new address[](owners.length);\n        uint256 count = 0;\n        uint256 i;\n        for (i = 0; i < owners.length; i++) {\n            if (confirmations[hash][owners[i]]) {\n                confirmationsTemp[count] = owners[i];\n                count += 1;\n            }\n        }\n        _confirmations = new address[](count);\n        for (i = 0; i < count; i++) {\n            _confirmations[i] = confirmationsTemp[i];\n        }\n    }\n\n    function getTransaction(bytes32 hash) public view returns (Transaction memory) {\n        return transactions[hash];\n    }\n\n    function getTransactionByIdx(uint256 idx) public view returns (Transaction memory)  {\n        return transactions[hashes[idx]];\n    }\n\n    function _toHash(address destination, uint256 value, bytes memory data) internal pure returns (bytes32) {\n        return keccak256(abi.encodePacked(destination, value, data));\n    }\n\n    function _transactionExists(bytes32 hash) internal view returns (bool) {\n        return (transactions[hash].destination != address(0));\n    }\n\n    \n}\n",
  "sourcePath": "/home/santiago/projects/beefledger/erc20_asset_grouping/src/ethereum/contracts/MultiSigHashed.sol",
  "compiler": {
    "name": "solc",
    "version": "0.7.0+commit.9e61f92b.Emscripten.clang"
  },
  "schemaVersion": "3.3.2",
  "updatedAt": "2021-03-03T03:58:58.908Z",
  "devdoc": {
    "author": "Stefan George - <stefan.george@consensys.net>",
    "kind": "dev",
    "methods": {
      "addOwner(address)": {
        "details": "Allows to add a new owner. Transaction has to be sent by wallet.",
        "params": {
          "owner": "Address of new owner to add."
        }
      },
      "changeRequirement(uint256)": {
        "details": "Allows to change the number of required confirmations. Transaction has to be sent by wallet.",
        "params": {
          "_required": "Number of required confirmations."
        }
      },
      "confirmTransaction(bytes32)": {
        "details": "Allows an owner to confirm a transaction.",
        "params": {
          "hash": "Transaction ID."
        }
      },
      "constructor": {
        "details": "Contract constructor sets initial owners and required number of confirmations.",
        "params": {
          "_owners": "List of initial owners.",
          "_required": "Number of required confirmations."
        }
      },
      "executeTransaction(bytes32)": {
        "details": "Allows anyone to execute a confirmed transaction.",
        "params": {
          "hash": "Transaction ID."
        }
      },
      "getConfirmationCount(bytes32)": {
        "details": "Returns number of confirmations of a transaction.",
        "params": {
          "hash": "Transaction ID."
        },
        "returns": {
          "count": "of confirmations."
        }
      },
      "getConfirmations(bytes32)": {
        "details": "Returns array with owner addresses, which confirmed transaction.",
        "params": {
          "hash": "Transaction ID."
        }
      },
      "getOwners()": {
        "details": "Returns list of owners.",
        "returns": {
          "_0": "address list of owner addresses."
        }
      },
      "isConfirmed(bytes32)": {
        "details": "Returns the confirmation status of a transaction.",
        "params": {
          "hash": "Transaction ID."
        },
        "returns": {
          "_0": "Confirmation status."
        }
      },
      "removeOwner(address)": {
        "details": "Allows to remove an owner. Transaction has to be sent by wallet.",
        "params": {
          "owner": "Address of owner to remove."
        }
      },
      "replaceOwner(address,address)": {
        "details": "Allows to replace an owner with a new owner. Transaction has to be sent by wallet.",
        "params": {
          "newOwner": "Address of new owner.",
          "owner": "Address of owner to be replaced."
        }
      },
      "revokeConfirmation(bytes32)": {
        "details": "Allows an owner to revoke a confirmation for a transaction.",
        "params": {
          "hash": "Transaction ID."
        }
      },
      "submitTransaction(address,uint256,bytes)": {
        "details": "Allows an owner to submit and confirm a transaction.",
        "params": {
          "data": "Transaction data payload.",
          "destination": "Transaction target address.",
          "value": "Transaction ether value."
        },
        "returns": {
          "hash": "representing transaction ID."
        }
      }
    },
    "title": "Multisignature wallet - Allows multiple parties to agree on transactions before execution.",
    "version": 1
  },
  "userdoc": {
    "kind": "user",
    "methods": {},
    "version": 1
  }
}