{
  "contractName": "MultisigWalletV1_0",
  "abi": [
    {
      "anonymous": false,
      "inputs": [
        {
          "indexed": true,
          "internalType": "address",
          "name": "sender",
          "type": "address"
        },
        {
          "indexed": true,
          "internalType": "uint256",
          "name": "transactionId",
          "type": "uint256"
        }
      ],
      "name": "Confirmation",
      "type": "event"
    },
    {
      "anonymous": false,
      "inputs": [
        {
          "indexed": true,
          "internalType": "address",
          "name": "sender",
          "type": "address"
        },
        {
          "indexed": false,
          "internalType": "uint256",
          "name": "value",
          "type": "uint256"
        }
      ],
      "name": "Deposit",
      "type": "event"
    },
    {
      "anonymous": false,
      "inputs": [
        {
          "indexed": true,
          "internalType": "uint256",
          "name": "transactionId",
          "type": "uint256"
        }
      ],
      "name": "Execution",
      "type": "event"
    },
    {
      "anonymous": false,
      "inputs": [
        {
          "indexed": true,
          "internalType": "uint256",
          "name": "transactionId",
          "type": "uint256"
        }
      ],
      "name": "ExecutionFailure",
      "type": "event"
    },
    {
      "anonymous": false,
      "inputs": [
        {
          "indexed": true,
          "internalType": "address",
          "name": "owner",
          "type": "address"
        }
      ],
      "name": "OwnerAddition",
      "type": "event"
    },
    {
      "anonymous": false,
      "inputs": [
        {
          "indexed": true,
          "internalType": "address",
          "name": "owner",
          "type": "address"
        }
      ],
      "name": "OwnerRemoval",
      "type": "event"
    },
    {
      "anonymous": false,
      "inputs": [
        {
          "indexed": false,
          "internalType": "uint256",
          "name": "required",
          "type": "uint256"
        }
      ],
      "name": "RequirementChange",
      "type": "event"
    },
    {
      "anonymous": false,
      "inputs": [
        {
          "indexed": true,
          "internalType": "address",
          "name": "sender",
          "type": "address"
        },
        {
          "indexed": true,
          "internalType": "uint256",
          "name": "transactionId",
          "type": "uint256"
        }
      ],
      "name": "Revocation",
      "type": "event"
    },
    {
      "anonymous": false,
      "inputs": [
        {
          "indexed": true,
          "internalType": "uint256",
          "name": "transactionId",
          "type": "uint256"
        }
      ],
      "name": "Submission",
      "type": "event"
    },
    {
      "stateMutability": "payable",
      "type": "fallback"
    },
    {
      "inputs": [],
      "name": "MAX_OWNER_COUNT",
      "outputs": [
        {
          "internalType": "uint256",
          "name": "",
          "type": "uint256"
        }
      ],
      "stateMutability": "view",
      "type": "function"
    },
    {
      "inputs": [
        {
          "internalType": "uint256",
          "name": "",
          "type": "uint256"
        },
        {
          "internalType": "address",
          "name": "",
          "type": "address"
        }
      ],
      "name": "confirmations",
      "outputs": [
        {
          "internalType": "bool",
          "name": "",
          "type": "bool"
        }
      ],
      "stateMutability": "view",
      "type": "function"
    },
    {
      "inputs": [
        {
          "internalType": "address",
          "name": "",
          "type": "address"
        }
      ],
      "name": "isOwner",
      "outputs": [
        {
          "internalType": "bool",
          "name": "",
          "type": "bool"
        }
      ],
      "stateMutability": "view",
      "type": "function"
    },
    {
      "inputs": [
        {
          "internalType": "uint256",
          "name": "",
          "type": "uint256"
        }
      ],
      "name": "owners",
      "outputs": [
        {
          "internalType": "address",
          "name": "",
          "type": "address"
        }
      ],
      "stateMutability": "view",
      "type": "function"
    },
    {
      "inputs": [],
      "name": "required",
      "outputs": [
        {
          "internalType": "uint256",
          "name": "",
          "type": "uint256"
        }
      ],
      "stateMutability": "view",
      "type": "function"
    },
    {
      "inputs": [],
      "name": "transactionCount",
      "outputs": [
        {
          "internalType": "uint256",
          "name": "",
          "type": "uint256"
        }
      ],
      "stateMutability": "view",
      "type": "function"
    },
    {
      "inputs": [
        {
          "internalType": "uint256",
          "name": "",
          "type": "uint256"
        }
      ],
      "name": "transactions",
      "outputs": [
        {
          "internalType": "address",
          "name": "destination",
          "type": "address"
        },
        {
          "internalType": "uint256",
          "name": "value",
          "type": "uint256"
        },
        {
          "internalType": "bytes",
          "name": "data",
          "type": "bytes"
        },
        {
          "internalType": "bool",
          "name": "executed",
          "type": "bool"
        },
        {
          "internalType": "uint256",
          "name": "timestamp",
          "type": "uint256"
        }
      ],
      "stateMutability": "view",
      "type": "function"
    },
    {
      "stateMutability": "payable",
      "type": "receive"
    },
    {
      "inputs": [
        {
          "internalType": "address[]",
          "name": "_owners",
          "type": "address[]"
        },
        {
          "internalType": "uint256",
          "name": "_required",
          "type": "uint256"
        }
      ],
      "name": "initialize",
      "outputs": [],
      "stateMutability": "nonpayable",
      "type": "function"
    },
    {
      "inputs": [
        {
          "internalType": "address",
          "name": "_resourceActions",
          "type": "address"
        }
      ],
      "name": "setResourceActionsContract",
      "outputs": [],
      "stateMutability": "nonpayable",
      "type": "function"
    },
    {
      "inputs": [
        {
          "internalType": "address",
          "name": "owner",
          "type": "address"
        }
      ],
      "name": "addOwner",
      "outputs": [],
      "stateMutability": "nonpayable",
      "type": "function"
    },
    {
      "inputs": [
        {
          "internalType": "address",
          "name": "owner",
          "type": "address"
        }
      ],
      "name": "removeOwner",
      "outputs": [],
      "stateMutability": "nonpayable",
      "type": "function"
    },
    {
      "inputs": [
        {
          "internalType": "address",
          "name": "owner",
          "type": "address"
        },
        {
          "internalType": "address",
          "name": "newOwner",
          "type": "address"
        }
      ],
      "name": "replaceOwner",
      "outputs": [],
      "stateMutability": "nonpayable",
      "type": "function"
    },
    {
      "inputs": [
        {
          "internalType": "uint256",
          "name": "_required",
          "type": "uint256"
        }
      ],
      "name": "changeRequirement",
      "outputs": [],
      "stateMutability": "nonpayable",
      "type": "function"
    },
    {
      "inputs": [
        {
          "internalType": "address",
          "name": "destination",
          "type": "address"
        },
        {
          "internalType": "uint256",
          "name": "value",
          "type": "uint256"
        },
        {
          "internalType": "bytes",
          "name": "data",
          "type": "bytes"
        }
      ],
      "name": "submitTransaction",
      "outputs": [
        {
          "internalType": "uint256",
          "name": "transactionId",
          "type": "uint256"
        }
      ],
      "stateMutability": "nonpayable",
      "type": "function"
    },
    {
      "inputs": [
        {
          "internalType": "uint256",
          "name": "transactionId",
          "type": "uint256"
        }
      ],
      "name": "confirmTransaction",
      "outputs": [],
      "stateMutability": "nonpayable",
      "type": "function"
    },
    {
      "inputs": [
        {
          "internalType": "uint256",
          "name": "transactionId",
          "type": "uint256"
        }
      ],
      "name": "revokeConfirmation",
      "outputs": [],
      "stateMutability": "nonpayable",
      "type": "function"
    },
    {
      "inputs": [
        {
          "internalType": "uint256",
          "name": "transactionId",
          "type": "uint256"
        }
      ],
      "name": "executeTransaction",
      "outputs": [],
      "stateMutability": "nonpayable",
      "type": "function"
    },
    {
      "inputs": [
        {
          "internalType": "uint256",
          "name": "transactionId",
          "type": "uint256"
        }
      ],
      "name": "isConfirmed",
      "outputs": [
        {
          "internalType": "bool",
          "name": "",
          "type": "bool"
        }
      ],
      "stateMutability": "view",
      "type": "function"
    },
    {
      "inputs": [
        {
          "internalType": "uint256",
          "name": "transactionId",
          "type": "uint256"
        }
      ],
      "name": "getConfirmationCount",
      "outputs": [
        {
          "internalType": "uint256",
          "name": "count",
          "type": "uint256"
        }
      ],
      "stateMutability": "view",
      "type": "function"
    },
    {
      "inputs": [
        {
          "internalType": "bool",
          "name": "pending",
          "type": "bool"
        },
        {
          "internalType": "bool",
          "name": "executed",
          "type": "bool"
        }
      ],
      "name": "getTransactionCount",
      "outputs": [
        {
          "internalType": "uint256",
          "name": "count",
          "type": "uint256"
        }
      ],
      "stateMutability": "view",
      "type": "function"
    },
    {
      "inputs": [
        {
          "internalType": "uint256",
          "name": "transactionId",
          "type": "uint256"
        }
      ],
      "name": "getConfirmations",
      "outputs": [
        {
          "internalType": "address[]",
          "name": "_confirmations",
          "type": "address[]"
        }
      ],
      "stateMutability": "view",
      "type": "function"
    },
    {
      "inputs": [
        {
          "internalType": "uint256",
          "name": "from",
          "type": "uint256"
        },
        {
          "internalType": "uint256",
          "name": "to",
          "type": "uint256"
        },
        {
          "internalType": "bool",
          "name": "pending",
          "type": "bool"
        },
        {
          "internalType": "bool",
          "name": "executed",
          "type": "bool"
        }
      ],
      "name": "getTransactionIds",
      "outputs": [
        {
          "internalType": "uint256[]",
          "name": "_transactionIds",
          "type": "uint256[]"
        }
      ],
      "stateMutability": "view",
      "type": "function"
    },
    {
      "inputs": [],
      "name": "getOwners",
      "outputs": [
        {
          "internalType": "address[]",
          "name": "",
          "type": "address[]"
        }
      ],
      "stateMutability": "view",
      "type": "function"
    },
    {
      "inputs": [
        {
          "internalType": "uint256",
          "name": "transactionId",
          "type": "uint256"
        }
      ],
      "name": "getTransaction",
      "outputs": [
        {
          "internalType": "bytes",
          "name": "",
          "type": "bytes"
        },
        {
          "internalType": "address",
          "name": "",
          "type": "address"
        },
        {
          "internalType": "bool",
          "name": "",
          "type": "bool"
        },
        {
          "internalType": "uint256",
          "name": "",
          "type": "uint256"
        }
      ],
      "stateMutability": "view",
      "type": "function"
    },
    {
      "inputs": [],
      "name": "getResourceActionsContract",
      "outputs": [
        {
          "internalType": "address",
          "name": "",
          "type": "address"
        }
      ],
      "stateMutability": "view",
      "type": "function"
    }
  ],
  "bytecode": "0x608060405234801561001057600080fd5b506122c1806100206000396000f3fe60806040526004361061016a5760003560e01c80639ace38c2116100d1578063c01a8c841161008a578063d74f8edd11610064578063d74f8edd14610861578063dc8452cd14610876578063e20056e61461088b578063ee22610b146108c6576101ae565b8063c01a8c841461075a578063c642747414610784578063c98f81ab1461084c576101ae565b80639ace38c214610583578063a0e67e2b1461064c578063a8abe69a146106b1578063b5dc40c3146106f1578063b77bf6001461071b578063ba51a6df14610730576101ae565b80633411c81c116101235780633411c81c146103cb578063547415251461040457806360b5bb3f1461044a5780637065cb48146104fc578063784547a71461052f5780638b51d13f14610559576101ae565b8063025e7c27146101ec578063173825d91461023257806320ea8d86146102655780632f54bf6e1461028f57806331ee488b146102d657806333ea3dc814610309576101ae565b366101ae5734156101ac5760408051348152905133917fe1fffcc4923d04b559f4d29a8bfc6cda04eb5b0d3c460751c2402c5c5cc9109c919081900360200190a25b005b34156101ac5760408051348152905133917fe1fffcc4923d04b559f4d29a8bfc6cda04eb5b0d3c460751c2402c5c5cc9109c919081900360200190a2005b3480156101f857600080fd5b506102166004803603602081101561020f57600080fd5b50356108f0565b604080516001600160a01b039092168252519081900360200190f35b34801561023e57600080fd5b506101ac6004803603602081101561025557600080fd5b50356001600160a01b0316610917565b34801561027157600080fd5b506101ac6004803603602081101561028857600080fd5b5035610aa5565b34801561029b57600080fd5b506102c2600480360360208110156102b257600080fd5b50356001600160a01b0316610c11565b604080519115158252519081900360200190f35b3480156102e257600080fd5b506101ac600480360360208110156102f957600080fd5b50356001600160a01b0316610c26565b34801561031557600080fd5b506103336004803603602081101561032c57600080fd5b5035610d7e565b6040518080602001856001600160a01b031681526020018415158152602001838152602001828103825286818151815260200191508051906020019080838360005b8381101561038d578181015183820152602001610375565b50505050905090810190601f1680156103ba5780820380516001836020036101000a031916815260200191505b509550505050505060405180910390f35b3480156103d757600080fd5b506102c2600480360360408110156103ee57600080fd5b50803590602001356001600160a01b0316610e8b565b34801561041057600080fd5b506104386004803603604081101561042757600080fd5b508035151590602001351515610eab565b60408051918252519081900360200190f35b34801561045657600080fd5b506101ac6004803603604081101561046d57600080fd5b81019060208101813564010000000081111561048857600080fd5b82018360208201111561049a57600080fd5b803590602001918460208302840111640100000000831117156104bc57600080fd5b9190808060200260200160405190810160405280939291908181526020018383602002808284376000920191909152509295505091359250610f17915050565b34801561050857600080fd5b506101ac6004803603602081101561051f57600080fd5b50356001600160a01b031661111d565b34801561053b57600080fd5b506102c26004803603602081101561055257600080fd5b50356112d6565b34801561056557600080fd5b506104386004803603602081101561057c57600080fd5b5035611361565b34801561058f57600080fd5b506105ad600480360360208110156105a657600080fd5b50356113d0565b60405180866001600160a01b03168152602001858152602001806020018415158152602001838152602001828103825285818151815260200191508051906020019080838360005b8381101561060d5781810151838201526020016105f5565b50505050905090810190601f16801561063a5780820380516001836020036101000a031916815260200191505b50965050505050505060405180910390f35b34801561065857600080fd5b50610661611495565b60408051602080825283518183015283519192839290830191858101910280838360005b8381101561069d578181015183820152602001610685565b505050509050019250505060405180910390f35b3480156106bd57600080fd5b50610661600480360360808110156106d457600080fd5b5080359060208101359060408101351515906060013515156114f7565b3480156106fd57600080fd5b506106616004803603602081101561071457600080fd5b5035611650565b34801561072757600080fd5b506104386117f4565b34801561073c57600080fd5b506101ac6004803603602081101561075357600080fd5b50356117fa565b34801561076657600080fd5b506101ac6004803603602081101561077d57600080fd5b50356118eb565b34801561079057600080fd5b50610438600480360360608110156107a757600080fd5b6001600160a01b03823516916020810135918101906060810160408201356401000000008111156107d757600080fd5b8201836020820111156107e957600080fd5b8035906020019184600183028401116401000000008311171561080b57600080fd5b91908080601f016020809104026020016040519081016040528093929190818152602001838380828437600092019190915250929550611a6c945050505050565b34801561085857600080fd5b50610216611ae9565b34801561086d57600080fd5b50610438611af8565b34801561088257600080fd5b50610438611afd565b34801561089757600080fd5b506101ac600480360360408110156108ae57600080fd5b506001600160a01b0381358116916020013516611b03565b3480156108d257600080fd5b506101ac600480360360208110156108e957600080fd5b5035611d2d565b600381815481106108fd57fe5b6000918252602090912001546001600160a01b0316905081565b333014610959576040805162461bcd60e51b815260206004820152600b60248201526a13db9b1e481dd85b1b195d60aa1b604482015290519081900360640190fd5b6001600160a01b038116600090815260026020526040902054819060ff166109c0576040805162461bcd60e51b81526020600482015260156024820152744f776e657220646f6573206e6f742065786973747360581b604482015290519081900360640190fd5b6001600160a01b0382166000908152600260205260408120805460ff191690555b60035460001901811015610a5457826001600160a01b031660038281548110610a0657fe5b6000918252602090912001546001600160a01b03161415610a4c5760038181548110610a2e57fe5b600091825260209091200180546001600160a01b0319169055610a54565b6001016109e1565b506003546004541115610a6d57600354610a6d906117fa565b6040516001600160a01b038316907f8001553a916ef2f495d26a907cc54d96ed840d7bda71e73194bf5a9df7a76b9090600090a25050565b3360008181526002602052604090205460ff16610b01576040805162461bcd60e51b81526020600482015260156024820152744f776e657220646f6573206e6f742065786973747360581b604482015290519081900360640190fd5b60008281526001602090815260408083203380855292529091205483919060ff16610b63576040805162461bcd60e51b815260206004820152600d60248201526c1b9bdd0818dbdb999a5c9b5959609a1b604482015290519081900360640190fd5b600084815260208190526040902060030154849060ff1615610bc2576040805162461bcd60e51b81526020600482015260136024820152721d1e08185b1c9958591e48195e1958dd5d1959606a1b604482015290519081900360640190fd5b6000858152600160209081526040808320338085529252808320805460ff191690555187927ff6a317157440607f36269043eb55f1287a5a19ba2216afeab88cd46cbcfb88e991a35050505050565b60026020526000908152604090205460ff1681565b333014610c68576040805162461bcd60e51b815260206004820152600b60248201526a13db9b1e481dd85b1b195d60aa1b604482015290519081900360640190fd5b6001600160a01b038116610cad5760405162461bcd60e51b81526004018080602001828103825260258152602001806122356025913960400191505060405180910390fd5b600680546001600160a01b0319166001600160a01b03838116919091179182905560408051638da5cb5b60e01b81529051309390921691638da5cb5b91600480820192602092909190829003018186803b158015610d0a57600080fd5b505afa158015610d1e573d6000803e3d6000fd5b505050506040513d6020811015610d3457600080fd5b50516001600160a01b031614610d7b5760405162461bcd60e51b815260040180806020018281038252603281526020018061225a6032913960400191505060405180910390fd5b50565b60606000806000610d8d6120e7565b60008681526020818152604091829020825160a08101845281546001600160a01b03168152600180830154828501526002808401805487516101009482161594909402600019011691909104601f81018690048602830186018752808352929593949386019391929091830182828015610e485780601f10610e1d57610100808354040283529160200191610e48565b820191906000526020600020905b815481529060010190602001808311610e2b57829003601f168201915b5050509183525050600382015460ff1615156020820152600490910154604091820152810151815160608301516080909301519199909850919650945092505050565b600160209081526000928352604080842090915290825290205460ff1681565b6000805b600554811015610f1057838015610ed8575060008181526020819052604090206003015460ff16155b80610efc5750828015610efc575060008181526020819052604090206003015460ff165b15610f08576001820191505b600101610eaf565b5092915050565b81518160328211158015610f2b5750818111155b8015610f3657508015155b8015610f4157508115155b610f88576040805162461bcd60e51b81526020600482015260136024820152721a5b9d985b1a59081c995c5d5a5c995b595b9d606a1b604482015290519081900360640190fd5b600654600160a01b900460ff1615610fe7576040805162461bcd60e51b815260206004820152601b60248201527f636f6e7261637420616c726561647920696e697469616c697a65640000000000604482015290519081900360640190fd5b60005b84518110156110ed576002600086838151811061100357fe5b6020908102919091018101516001600160a01b031682528101919091526040016000205460ff1615801561105d575060006001600160a01b031685828151811061104957fe5b60200260200101516001600160a01b031614155b6110a1576040805162461bcd60e51b815260206004820152601060248201526f34b99030b63932b0b23c9037bbb732b960811b604482015290519081900360640190fd5b6001600260008784815181106110b357fe5b6020908102919091018101516001600160a01b03168252810191909152604001600020805460ff1916911515919091179055600101610fea565b508351611101906003906020870190612121565b505050600455506006805460ff60a01b1916600160a01b179055565b33301461115f576040805162461bcd60e51b815260206004820152600b60248201526a13db9b1e481dd85b1b195d60aa1b604482015290519081900360640190fd5b6001600160a01b038116600090815260026020526040902054819060ff16156111be576040805162461bcd60e51b815260206004820152600c60248201526b4f776e65722065786973747360a01b604482015290519081900360640190fd5b816001600160a01b03811661120c576040805162461bcd60e51b815260206004820152600f60248201526e1859191c995cdcc81a5cc81b9d5b1b608a1b604482015290519081900360640190fd5b600380549050600101600454603282111580156112295750818111155b801561123457508015155b801561123f57508115155b611286576040805162461bcd60e51b81526020600482015260136024820152721a5b9d985b1a59081c995c5d5a5c995b595b9d606a1b604482015290519081900360640190fd5b6001600160a01b038516600081815260026020526040808220805460ff19166001179055517ff39e6e1eb0edcf53c221607b54b00cd28f3196fed0a24994dc308b8f611b682d9190a25050505050565b600080805b600354811015611355576000848152600160205260408120600380549192918490811061130457fe5b60009182526020808320909101546001600160a01b0316835282019290925260400190205460ff1615611338576001820191505b60045482141561134d5760019250505061135c565b6001016112db565b5060009150505b919050565b6000805b6003548110156113ca576000838152600160205260408120600380549192918490811061138e57fe5b60009182526020808320909101546001600160a01b0316835282019290925260400190205460ff16156113c2576001820191505b600101611365565b50919050565b6000602081815291815260409081902080546001808301546002808501805487516101009582161595909502600019011691909104601f81018890048802840188019096528583526001600160a01b039093169590949192919083018282801561147b5780601f106114505761010080835404028352916020019161147b565b820191906000526020600020905b81548152906001019060200180831161145e57829003601f168201915b505050506003830154600490930154919260ff1691905085565b606060038054806020026020016040519081016040528092919081815260200182805480156114ed57602002820191906000526020600020905b81546001600160a01b031681526001909101906020018083116114cf575b5050505050905090565b60608060055467ffffffffffffffff8111801561151357600080fd5b5060405190808252806020026020018201604052801561153d578160200160208202803683370190505b5090506000805b6005548110156115be5785801561156d575060008181526020819052604090206003015460ff16155b806115915750848015611591575060008181526020819052604090206003015460ff165b156115b657808383815181106115a357fe5b6020026020010181815250506001820191505b600101611544565b87870367ffffffffffffffff811180156115d757600080fd5b50604051908082528060200260200182016040528015611601578160200160208202803683370190505b5093508790505b868110156116455782818151811061161c57fe5b6020026020010151848983038151811061163257fe5b6020908102919091010152600101611608565b505050949350505050565b600354606090819067ffffffffffffffff8111801561166e57600080fd5b50604051908082528060200260200182016040528015611698578160200160208202803683370190505b5090506000805b60035481101561175b57600085815260016020526040812060038054919291849081106116c857fe5b60009182526020808320909101546001600160a01b0316835282019290925260400190205460ff1615611753576003818154811061170257fe5b9060005260206000200160009054906101000a90046001600160a01b031683838151811061172c57fe5b60200260200101906001600160a01b031690816001600160a01b0316815250506001820191505b60010161169f565b8167ffffffffffffffff8111801561177257600080fd5b5060405190808252806020026020018201604052801561179c578160200160208202803683370190505b509350600090505b818110156117ec578281815181106117b857fe5b60200260200101518482815181106117cc57fe5b6001600160a01b03909216602092830291909101909101526001016117a4565b505050919050565b60055481565b33301461183c576040805162461bcd60e51b815260206004820152600b60248201526a13db9b1e481dd85b1b195d60aa1b604482015290519081900360640190fd5b60035481603282118015906118515750818111155b801561185c57508015155b801561186757508115155b6118ae576040805162461bcd60e51b81526020600482015260136024820152721a5b9d985b1a59081c995c5d5a5c995b595b9d606a1b604482015290519081900360640190fd5b60048390556040805184815290517fa3f1ee9126a074d9326c682f561767f710e927faa811f7a99829d49dc421797a9181900360200190a1505050565b3360008181526002602052604090205460ff16611947576040805162461bcd60e51b81526020600482015260156024820152744f776e657220646f6573206e6f742065786973747360581b604482015290519081900360640190fd5b60008281526020819052604090205482906001600160a01b03166119a5576040805162461bcd60e51b815260206004820152601060248201526f151e08191bd95cdb89dd08195e1a5cdd60821b604482015290519081900360640190fd5b60008381526001602090815260408083203380855292529091205484919060ff1615611a0f576040805162461bcd60e51b81526020600482015260146024820152731a5cc8185b1c9958591e4818dbdb999a5c9b595960621b604482015290519081900360640190fd5b6000858152600160208181526040808420338086529252808420805460ff1916909317909255905187927f4a504a94899432a9846e1aa406dceb1bcfd538bb839071d49d1e5e23f5be30ef91a3611a6585611d2d565b5050505050565b3360008181526002602052604081205490919060ff16611acb576040805162461bcd60e51b81526020600482015260156024820152744f776e657220646f6573206e6f742065786973747360581b604482015290519081900360640190fd5b611ad6858585611f9a565b9150611ae1826118eb565b509392505050565b6006546001600160a01b031690565b603281565b60045481565b333014611b45576040805162461bcd60e51b815260206004820152600b60248201526a13db9b1e481dd85b1b195d60aa1b604482015290519081900360640190fd5b6001600160a01b038216600090815260026020526040902054829060ff16611bac576040805162461bcd60e51b81526020600482015260156024820152744f776e657220646f6573206e6f742065786973747360581b604482015290519081900360640190fd5b6001600160a01b038216600090815260026020526040902054829060ff1615611c0b576040805162461bcd60e51b815260206004820152600c60248201526b4f776e65722065786973747360a01b604482015290519081900360640190fd5b60005b600354811015611c9357846001600160a01b031660038281548110611c2f57fe5b6000918252602090912001546001600160a01b03161415611c8b578360038281548110611c5857fe5b9060005260206000200160006101000a8154816001600160a01b0302191690836001600160a01b03160217905550611c93565b600101611c0e565b506001600160a01b03808516600081815260026020526040808220805460ff1990811690915593871682528082208054909416600117909355915190917f8001553a916ef2f495d26a907cc54d96ed840d7bda71e73194bf5a9df7a76b9091a26040516001600160a01b038416907ff39e6e1eb0edcf53c221607b54b00cd28f3196fed0a24994dc308b8f611b682d90600090a250505050565b3360008181526002602052604090205460ff16611d89576040805162461bcd60e51b81526020600482015260156024820152744f776e657220646f6573206e6f742065786973747360581b604482015290519081900360640190fd5b60008281526001602090815260408083203380855292529091205483919060ff16611deb576040805162461bcd60e51b815260206004820152600d60248201526c1b9bdd0818dbdb999a5c9b5959609a1b604482015290519081900360640190fd5b600084815260208190526040902060030154849060ff1615611e4a576040805162461bcd60e51b81526020600482015260136024820152721d1e08185b1c9958591e48195e1958dd5d1959606a1b604482015290519081900360640190fd5b611e53856112d6565b15611a65576000858152602081815260409182902060038101805460ff19166001908117909155815481830154600280850180548851601f600019978316156101000297909701909116929092049485018790048702820187019097528381529395611f25956001600160a01b03909316949193928390830182828015611f1b5780601f10611ef057610100808354040283529160200191611f1b565b820191906000526020600020905b815481529060010190602001808311611efe57829003601f168201915b50505050506120c4565b15611f5a5760405186907f33e13ecb54c3076d8e8bb8c2881800a4d972b792045ffae98fdf46df365fed7590600090a2611f92565b60405186907f526441bb6c1aba3c9a4a6ca1d6545da9c2333c8c48343ef398eb858d72b7923690600090a260038101805460ff191690555b505050505050565b6000836001600160a01b038116611fea576040805162461bcd60e51b815260206004820152600f60248201526e1859191c995cdcc81a5cc81b9d5b1b608a1b604482015290519081900360640190fd5b6005546040805160a0810182526001600160a01b038881168252602080830189815283850189815260006060860181905242608087015287815280845295909520845181546001600160a01b03191694169390931783555160018301559251805194965091939092612063926002850192910190612186565b50606082015160038201805460ff191691151591909117905560809091015160049091015560058054600101905560405182907fc0ba8fe4b176c1714197d43b9cc6bcf797a4a7461c5fe8d0ef6e184ae7601e5190600090a2509392505050565b6000806040516020840160008287838a8c6187965a03f198975050505050505050565b6040518060a0016040528060006001600160a01b031681526020016000815260200160608152602001600015158152602001600081525090565b828054828255906000526020600020908101928215612176579160200282015b8281111561217657825182546001600160a01b0319166001600160a01b03909116178255602090920191600190910190612141565b50612182929150612200565b5090565b828054600181600116156101000203166002900490600052602060002090601f016020900481019282601f106121c757805160ff19168380011785556121f4565b828001600101855582156121f4579182015b828111156121f45782518255916020019190600101906121d9565b5061218292915061221f565b5b808211156121825780546001600160a01b0319168155600101612201565b5b80821115612182576000815560010161222056fe5265736f7572636520416374696f6e7320636f6e74726163742063616e6e6f7420626520305265736f7572636520416374696f6e7320636f6e7472616374206f776e6572206973206e6f7420746869732077616c6c6574a26469706673582212201054f5268b45f7e0d1b80bf6108da0bc836e2957c68d90e13302986a7d313a4b64736f6c63430007000033",
  "immutableReferences": {},
  "source": "// SPDX-License-Identifier: MIT\n\npragma solidity >=0.7.0 <0.8.0;\n\nimport \"./ResourceActionsV1_0.sol\";\n\n\n/// @title Multisignature wallet - Allows multiple parties to agree on transactions before execution.\n/// @author Stefan George - <stefan.george@consensys.net>\ncontract MultisigWalletV1_0  {\n\n    /*\n     *  Events\n     */\n    event Confirmation(address indexed sender, uint256 indexed transactionId);\n    event Revocation(address indexed sender, uint256 indexed transactionId);\n    event Submission(uint256 indexed transactionId);\n    event Execution(uint256 indexed transactionId);\n    event ExecutionFailure(uint256 indexed transactionId);\n    event Deposit(address indexed sender, uint256 value);\n    event OwnerAddition(address indexed owner);\n    event OwnerRemoval(address indexed owner);\n    event RequirementChange(uint256 required);\n\n    /*\n     *  Constants\n     */\n    uint256 constant public MAX_OWNER_COUNT = 50;\n\n    /*\n     *  Storage\n     */\n    mapping (uint256 => Transaction) public transactions;\n    mapping (uint256 => mapping (address => bool)) public confirmations;\n    mapping (address => bool) public isOwner;\n    address[] public owners;\n    uint256 public required;\n    uint256 public transactionCount;\n    ResourceActionsV1_0 internal resourceActionsV1_0;\n\n    struct Transaction {\n        address destination;\n        uint256 value;\n        bytes data;\n        bool executed;\n        uint256 timestamp;\n    }\n\n    //upgradability\n    bool internal _initialized;\n\n    /*\n     *  Modifiers\n     */\n    modifier onlyWallet() {\n        require(msg.sender == address(this), \"Only wallet\");\n        _;\n    }\n\n    modifier ownerDoesNotExist(address owner) {\n        require(!isOwner[owner], \"Owner exists\");\n        _;\n    }\n\n    modifier ownerExists(address owner) {\n        require(isOwner[owner], \"Owner does not exists\");\n        _;\n    }\n\n    modifier transactionExists(uint256 transactionId) {\n        require(transactions[transactionId].destination != address(0), \"Tx doesn't exist\");\n        _;\n    }\n\n    modifier confirmed(uint256 transactionId, address owner) {\n        require(confirmations[transactionId][owner], \"not confirmed\");\n        _;\n    }\n\n    modifier notConfirmed(uint256 transactionId, address owner) {\n        require(!confirmations[transactionId][owner], \"is already confirmed\");\n        _;\n    }\n\n    modifier notExecuted(uint256 transactionId) {\n        require(!transactions[transactionId].executed, \"tx already executed\");\n        _;\n    }\n\n    modifier notNull(address _address) {\n        require(_address != address(0), \"address is null\");\n        _;\n    }\n\n    modifier validRequirement(uint256 ownerCount, uint256 _required) {\n        require(ownerCount <= MAX_OWNER_COUNT && _required <= ownerCount && _required != 0 && ownerCount != 0, \"invalid requirement\");\n        _;\n    }\n\n    /// @dev Fallback function allows to deposit ether.\n    fallback() virtual external payable {\n        if (msg.value > 0)\n            emit Deposit(msg.sender, msg.value);\n    }\n\n    /// @dev Receive function allows to deposit ether.\n    receive() virtual external payable {\n        if (msg.value > 0)\n            emit Deposit(msg.sender, msg.value);\n    }\n\n    /*\n     * Public functions\n     */\n    /// @dev Contract constructor sets initial owners and required number of confirmations.\n    /// @param _owners List of initial owners.\n    /// @param _required Number of required confirmations.\n\n    function initialize(address[] memory _owners, uint256 _required) public validRequirement(_owners.length, _required) {\n        require(!_initialized, \"conract already initialized\");\n        for (uint256 i = 0; i < _owners.length; i++) {\n            require(!isOwner[_owners[i]] && _owners[i] != address(0), \"is already owner\");\n            isOwner[_owners[i]] = true;\n        }\n        owners = _owners;\n        required = _required;\n        _initialized = true;\n    }\n\n    function setResourceActionsContract(address _resourceActions) virtual public onlyWallet {\n        require(_resourceActions != address(0), \"Resource Actions contract cannot be 0\");\n        resourceActionsV1_0 = ResourceActionsV1_0(_resourceActions);\n        require(resourceActionsV1_0.owner() == address(this), \"Resource Actions contract owner is not this wallet\");\n    }\n\n    /// @dev Allows to add a new owner. Transaction has to be sent by wallet.\n    /// @param owner Address of new owner to add.\n    function addOwner(address owner)  virtual public\n        onlyWallet\n        ownerDoesNotExist(owner)\n        notNull(owner)\n        validRequirement(owners.length + 1, required)\n    {\n        isOwner[owner] = true;\n        //owners.push(owner);\n        emit OwnerAddition(owner);\n    }\n\n    /// @dev Allows to remove an owner. Transaction has to be sent by wallet.\n    /// @param owner Address of owner to remove.\n    function removeOwner(address owner) virtual public onlyWallet ownerExists(owner) {\n        isOwner[owner] = false;\n        for (uint256 i = 0; i < owners.length - 1; i++){\n            if (owners[i] == owner) {\n                delete owners[i];\n                break;\n            }\n        }\n        if (required > owners.length)\n            changeRequirement(owners.length);\n        emit OwnerRemoval(owner);\n    }\n\n    /// @dev Allows to replace an owner with a new owner. Transaction has to be sent by wallet.\n    /// @param owner Address of owner to be replaced.\n    /// @param newOwner Address of new owner.\n    function replaceOwner(address owner, address newOwner) virtual public onlyWallet ownerExists(owner) ownerDoesNotExist(newOwner) {\n        for(uint256 i = 0; i < owners.length; i++) {\n            if (owners[i] == owner) {\n                owners[i] = newOwner;\n                break;\n            }\n        }\n        isOwner[owner] = false;\n        isOwner[newOwner] = true;\n        emit OwnerRemoval(owner);\n        emit OwnerAddition(newOwner);\n    }\n\n    /// @dev Allows to change the number of required confirmations. Transaction has to be sent by wallet.\n    /// @param _required Number of required confirmations.\n    function changeRequirement(uint256 _required) virtual public onlyWallet validRequirement(owners.length, _required) {\n        required = _required;\n        emit RequirementChange(_required);\n    }\n\n    /// @dev Allows an owner to submit and confirm a transaction.\n    /// @param destination Transaction target address.\n    /// @param value Transaction ether value.\n    /// @param data Transaction data payload.\n    /// return Returns transaction ID.\n    function submitTransaction(address destination, uint256 value, bytes memory data) virtual public ownerExists(msg.sender)\n    returns (uint256 transactionId) {\n        transactionId = addTransaction(destination, value, data);\n        confirmTransaction(transactionId);\n    }\n\n    /// @dev Allows an owner to confirm a transaction.\n    /// @param transactionId Transaction ID.\n    function confirmTransaction(uint256 transactionId) virtual public\n        ownerExists(msg.sender)\n        transactionExists(transactionId)\n        notConfirmed(transactionId, msg.sender)\n    {\n        confirmations[transactionId][msg.sender] = true;\n        emit Confirmation(msg.sender, transactionId);\n        executeTransaction(transactionId);\n    }\n\n    /// @dev Allows an owner to revoke a confirmation for a transaction.\n    /// @param transactionId Transaction ID.\n    function revokeConfirmation(uint256 transactionId) virtual public\n        ownerExists(msg.sender)\n        confirmed(transactionId, msg.sender)\n        notExecuted(transactionId)\n    {\n        confirmations[transactionId][msg.sender] = false;\n        emit Revocation(msg.sender, transactionId);\n    }\n\n    /// @dev Allows anyone to execute a confirmed transaction.\n    /// @param transactionId Transaction ID.\n    function executeTransaction(uint256 transactionId) virtual public\n        ownerExists(msg.sender)\n        confirmed(transactionId, msg.sender)\n        notExecuted(transactionId)\n    {\n        if (isConfirmed(transactionId)) {\n            Transaction storage txn = transactions[transactionId];\n            txn.executed = true;\n            if (external_call(txn.destination, txn.value, txn.data.length, txn.data))\n                emit Execution(transactionId);\n            else {\n                emit ExecutionFailure(transactionId);\n                txn.executed = false;\n            }\n        }\n    }\n\n    // call has been separated into its own function in order to take advantage\n    // of the Solidity's code generator to produce a loop that copies tx.data into memory.\n    function external_call(address destination, uint256 value, uint256 dataLength, bytes memory data) virtual internal returns (bool) {\n        bool result;\n        assembly {\n            let x := mload(0x40)   // \"Allocate\" memory for output (0x40 is where \"free memory\" pointer is stored by convention)\n            let d := add(data, 32) // First 32 bytes are the padded length of data, so exclude that\n            result := call(\n                sub(gas(), 34710),   // 34710 is the value that solidity is currently emitting\n                                   // It includes callGas (700) + callVeryLow (3, to pay for SUB) + callValueTransferGas (9000) +\n                                   // callNewAccountGas (25000, in case the destination address does not exist and needs creating)\n                destination,\n                value,\n                d,\n                dataLength,        // Size of the input (in bytes) - this is what fixes the padding problem\n                x,\n                0                  // Output is ignored, therefore the output size is zero\n            )\n        }\n        return result;\n    }\n\n    /// @dev Returns the confirmation status of a transaction.\n    /// @param transactionId Transaction ID.\n    /// return Confirmation status.\n    function isConfirmed(uint256 transactionId) virtual public view returns (bool) {\n        uint256 count = 0;\n        for (uint256 i = 0; i < owners.length; i++) {\n            if (confirmations[transactionId][owners[i]])\n                count += 1;\n            if (count == required)\n                return true;\n        }\n        return false;\n    }\n\n    /*\n     * Internal functions\n     */\n    /// @dev Adds a new transaction to the transaction mapping, if transaction does not exist yet.\n    /// @param destination Transaction target address.\n    /// @param value Transaction ether value.\n    /// @param data Transaction data payload.\n    /// return Returns transaction ID.\n    function addTransaction(address destination, uint256 value, bytes memory data) virtual internal\n     notNull(destination) returns (uint256 transactionId) {\n        transactionId = transactionCount;\n        transactions[transactionId] = Transaction({\n            destination: destination,\n            value: value,\n            data: data,\n            executed: false,\n            timestamp: block.timestamp\n        });\n        transactionCount += 1;\n        emit Submission(transactionId);\n    }\n\n    /*\n     * Web3 call functions\n     */\n    /// @dev Returns number of confirmations of a transaction.\n    /// @param transactionId Transaction ID.\n    /// return Number of confirmations.\n    function getConfirmationCount(uint256 transactionId) virtual public view returns (uint256 count) {\n        for (uint256 i = 0; i < owners.length; i++) {\n            if (confirmations[transactionId][owners[i]])  count += 1;\n        }\n    }\n\n    /// @dev Returns total number of transactions after filers are applied.\n    /// @param pending Include pending transactions.\n    /// @param executed Include executed transactions.\n    /// return Total number of transactions after filters are applied.\n    function getTransactionCount(bool pending, bool executed) virtual public view returns (uint256 count) {\n        for (uint256 i = 0; i < transactionCount; i++) {\n            if ( pending && !transactions[i].executed || executed && transactions[i].executed)\n                count += 1;\n        }\n    }\n\n    /// @dev Returns array with owner addresses, which confirmed transaction.\n    /// @param transactionId Transaction ID.\n    /// return Returns array of owner addresses.\n    function getConfirmations(uint256 transactionId) virtual public view returns (address[] memory _confirmations) {\n        address[] memory confirmationsTemp = new address[](owners.length);\n        uint256 count = 0;\n        uint256 i;\n        for (i = 0; i < owners.length; i++) {\n            if (confirmations[transactionId][owners[i]]) {\n                confirmationsTemp[count] = owners[i];\n                count += 1;\n            }\n        }\n        _confirmations = new address[](count);\n        for (i = 0; i < count; i++) {\n            _confirmations[i] = confirmationsTemp[i];\n        }\n    }\n\n    /// @dev Returns list of transaction IDs in defined range.\n    /// @param from Index start position of transaction array.\n    /// @param to Index end position of transaction array.\n    /// @param pending Include pending transactions.\n    /// @param executed Include executed transactions.\n    /// return Returns array of transaction IDs.\n    function getTransactionIds(uint256 from, uint256 to, bool pending, bool executed) virtual public view returns (uint256[] memory _transactionIds) {\n        uint256[] memory transactionIdsTemp = new uint256[](transactionCount);\n        uint256 count = 0;\n        uint256 i;\n        for (i = 0; i < transactionCount; i++)\n            if (   pending && !transactions[i].executed || executed && transactions[i].executed) {\n                transactionIdsTemp[count] = i;\n                count += 1;\n            }\n        _transactionIds = new uint256[](to - from);\n        for (i = from; i < to; i++){\n            _transactionIds[i - from] = transactionIdsTemp[i];\n        }\n    }\n\n    function getOwners() virtual public view returns (address[] memory) {\n        return owners;\n    }\n\n    function getTransaction(uint256 transactionId) virtual public view returns (bytes memory, address, bool, uint256) {\n        Transaction memory txn = transactions[transactionId];\n        return (\n            txn.data,\n            txn.destination,\n            txn.executed,\n            txn.timestamp\n        );\n    }\n\n    function getResourceActionsContract() virtual public view returns (address) {\n        return address(resourceActionsV1_0);\n    }\n}",
  "sourcePath": "/home/santiago/projects/beefledger/erc20_asset_grouping/src/ethereum/contracts/V1_0/MultisigWalletV1_0.sol",
  "compiler": {
    "name": "solc",
    "version": "0.7.0+commit.9e61f92b.Emscripten.clang"
  },
  "schemaVersion": "3.3.2",
  "updatedAt": "2021-03-03T03:58:58.960Z",
  "devdoc": {
    "author": "Stefan George - <stefan.george@consensys.net>",
    "kind": "dev",
    "methods": {
      "addOwner(address)": {
        "details": "Allows to add a new owner. Transaction has to be sent by wallet.",
        "params": {
          "owner": "Address of new owner to add."
        }
      },
      "changeRequirement(uint256)": {
        "details": "Allows to change the number of required confirmations. Transaction has to be sent by wallet.",
        "params": {
          "_required": "Number of required confirmations."
        }
      },
      "confirmTransaction(uint256)": {
        "details": "Allows an owner to confirm a transaction.",
        "params": {
          "transactionId": "Transaction ID."
        }
      },
      "executeTransaction(uint256)": {
        "details": "Allows anyone to execute a confirmed transaction.",
        "params": {
          "transactionId": "Transaction ID."
        }
      },
      "getConfirmationCount(uint256)": {
        "details": "Returns number of confirmations of a transaction.",
        "params": {
          "transactionId": "Transaction ID. return Number of confirmations."
        }
      },
      "getConfirmations(uint256)": {
        "details": "Returns array with owner addresses, which confirmed transaction.",
        "params": {
          "transactionId": "Transaction ID. return Returns array of owner addresses."
        }
      },
      "getTransactionCount(bool,bool)": {
        "details": "Returns total number of transactions after filers are applied.",
        "params": {
          "executed": "Include executed transactions. return Total number of transactions after filters are applied.",
          "pending": "Include pending transactions."
        }
      },
      "getTransactionIds(uint256,uint256,bool,bool)": {
        "details": "Returns list of transaction IDs in defined range.",
        "params": {
          "executed": "Include executed transactions. return Returns array of transaction IDs.",
          "from": "Index start position of transaction array.",
          "pending": "Include pending transactions.",
          "to": "Index end position of transaction array."
        }
      },
      "initialize(address[],uint256)": {
        "details": "Contract constructor sets initial owners and required number of confirmations.",
        "params": {
          "_owners": "List of initial owners.",
          "_required": "Number of required confirmations."
        }
      },
      "isConfirmed(uint256)": {
        "details": "Returns the confirmation status of a transaction.",
        "params": {
          "transactionId": "Transaction ID. return Confirmation status."
        }
      },
      "removeOwner(address)": {
        "details": "Allows to remove an owner. Transaction has to be sent by wallet.",
        "params": {
          "owner": "Address of owner to remove."
        }
      },
      "replaceOwner(address,address)": {
        "details": "Allows to replace an owner with a new owner. Transaction has to be sent by wallet.",
        "params": {
          "newOwner": "Address of new owner.",
          "owner": "Address of owner to be replaced."
        }
      },
      "revokeConfirmation(uint256)": {
        "details": "Allows an owner to revoke a confirmation for a transaction.",
        "params": {
          "transactionId": "Transaction ID."
        }
      },
      "submitTransaction(address,uint256,bytes)": {
        "details": "Allows an owner to submit and confirm a transaction.",
        "params": {
          "data": "Transaction data payload. return Returns transaction ID.",
          "destination": "Transaction target address.",
          "value": "Transaction ether value."
        }
      }
    },
    "title": "Multisignature wallet - Allows multiple parties to agree on transactions before execution.",
    "version": 1
  },
  "userdoc": {
    "kind": "user",
    "methods": {},
    "version": 1
  }
}