{
  "contractName": "OwnedUpgradeabilityProxy",
  "abi": [
    {
      "inputs": [],
      "stateMutability": "nonpayable",
      "type": "constructor"
    },
    {
      "anonymous": false,
      "inputs": [
        {
          "indexed": false,
          "internalType": "address",
          "name": "previousOwner",
          "type": "address"
        },
        {
          "indexed": false,
          "internalType": "address",
          "name": "newOwner",
          "type": "address"
        }
      ],
      "name": "ProxyOwnershipTransferred",
      "type": "event"
    },
    {
      "anonymous": false,
      "inputs": [
        {
          "indexed": true,
          "internalType": "address",
          "name": "implementation",
          "type": "address"
        }
      ],
      "name": "Upgraded",
      "type": "event"
    },
    {
      "stateMutability": "payable",
      "type": "fallback"
    },
    {
      "inputs": [],
      "name": "implementation",
      "outputs": [
        {
          "internalType": "address",
          "name": "impl",
          "type": "address"
        }
      ],
      "stateMutability": "view",
      "type": "function"
    },
    {
      "stateMutability": "payable",
      "type": "receive"
    },
    {
      "inputs": [],
      "name": "proxyOwner",
      "outputs": [
        {
          "internalType": "address",
          "name": "owner",
          "type": "address"
        }
      ],
      "stateMutability": "view",
      "type": "function"
    },
    {
      "inputs": [
        {
          "internalType": "address",
          "name": "newOwner",
          "type": "address"
        }
      ],
      "name": "transferProxyOwnership",
      "outputs": [],
      "stateMutability": "nonpayable",
      "type": "function"
    },
    {
      "inputs": [
        {
          "internalType": "address",
          "name": "implementation",
          "type": "address"
        }
      ],
      "name": "upgradeTo",
      "outputs": [],
      "stateMutability": "nonpayable",
      "type": "function"
    },
    {
      "inputs": [
        {
          "internalType": "address",
          "name": "implementation",
          "type": "address"
        },
        {
          "internalType": "bytes",
          "name": "data",
          "type": "bytes"
        }
      ],
      "name": "upgradeToAndCall",
      "outputs": [],
      "stateMutability": "payable",
      "type": "function"
    }
  ],
  "bytecode": "0x608060405234801561001057600080fd5b5061001a3361001f565b610043565b7f7b7908d4239387d27560109f4e4d50ba8ebdf987651d565b5213ca4425d8948655565b6106b6806100526000396000f3fe60806040526004361061004e5760003560e01c8063025313a2146100e95780633659cfe61461011a5780634f1ef2861461014f5780635c60da1b14610205578063f1739cae1461021a576100df565b366100df57600061005d61024d565b90506001600160a01b0381166100ba576040805162461bcd60e51b815260206004820152601a60248201527f696d706c656d656e746174696f6e2063616e6e6f742062652030000000000000604482015290519081900360640190fd5b60405136600082376000803683855af43d806000843e8180156100db578184f35b8184fd5b600061005d61024d565b3480156100f557600080fd5b506100fe610272565b604080516001600160a01b039092168252519081900360200190f35b34801561012657600080fd5b5061014d6004803603602081101561013d57600080fd5b50356001600160a01b0316610297565b005b61014d6004803603604081101561016557600080fd5b6001600160a01b03823516919081019060408101602082013564010000000081111561019057600080fd5b8201836020820111156101a257600080fd5b803590602001918460018302840111640100000000831117156101c457600080fd5b91908080601f01602080910402602001604051908101604052809392919081815260200183838082843760009201919091525092955061030c945050505050565b34801561021157600080fd5b506100fe61024d565b34801561022657600080fd5b5061014d6004803603602081101561023d57600080fd5b50356001600160a01b0316610465565b7f8237f1a37609e816d8836dccef0c0be98ff6956ffa4035934e1d39231985e7d85490565b7f7b7908d4239387d27560109f4e4d50ba8ebdf987651d565b5213ca4425d894865490565b61029f610272565b6001600160a01b0316336001600160a01b031614610300576040805162461bcd60e51b815260206004820152601960248201527839b2b73232b91034b9903737ba10383937bc3c9037bbb732b960391b604482015290519081900360640190fd5b61030981610575565b50565b610314610272565b6001600160a01b0316336001600160a01b031614610375576040805162461bcd60e51b815260206004820152601960248201527839b2b73232b91034b9903737ba10383937bc3c9037bbb732b960391b604482015290519081900360640190fd5b61037e82610297565b6000306001600160a01b031634836040518082805190602001908083835b602083106103bb5780518252601f19909201916020918201910161039c565b6001836020036101000a03801982511681845116808217855250505050505090500191505060006040518083038185875af1925050503d806000811461041d576040519150601f19603f3d011682016040523d82523d6000602084013e610422565b606091505b5050905080610460576040805162461bcd60e51b815260206004820152600560248201526432b93937b960d91b604482015290519081900360640190fd5b505050565b61046d610272565b6001600160a01b0316336001600160a01b0316146104ce576040805162461bcd60e51b815260206004820152601960248201527839b2b73232b91034b9903737ba10383937bc3c9037bbb732b960391b604482015290519081900360640190fd5b6001600160a01b038116610521576040805162461bcd60e51b815260206004820152601560248201527406e6577206f776e65722063616e6e6f74206265203605c1b604482015290519081900360640190fd5b7f5a3e66efaa1e445ebd894728a69d6959842ea1e97bd79b892797106e270efcd961054a610272565b604080516001600160a01b03928316815291841660208301528051918290030190a161030981610613565b600061057f61024d565b9050816001600160a01b0316816001600160a01b031614156105d25760405162461bcd60e51b815260040180806020018281038252602581526020018061065c6025913960400191505060405180910390fd5b6105db82610637565b6040516001600160a01b038316907fbc7cd75a20ee27fd9adebab32041f755214dbc6bffa90cc0225b39da2e5c2d3b90600090a25050565b7f7b7908d4239387d27560109f4e4d50ba8ebdf987651d565b5213ca4425d8948655565b7f8237f1a37609e816d8836dccef0c0be98ff6956ffa4035934e1d39231985e7d85556fe6e657720696d706c656d656e746174696f6e2063616e6e6f74206265207468652073616d65a2646970667358221220d682fa3134c6557d0790849f5c2cd40508b5efacd772f72d83e21dac8865e4ad64736f6c63430007000033",
  "immutableReferences": {},
  "source": "// SPDX-License-Identifier: MIT\n\npragma solidity >=0.7.0 <0.8.0;\n\nimport './UpgradeabilityProxy.sol';\n\n/**\n * @title OwnedUpgradeabilityProxy\n * @dev This contract combines an upgradeability proxy with basic authorization control functionalities\n */\ncontract OwnedUpgradeabilityProxy is UpgradeabilityProxy {\n  /**\n  * @dev Event to show ownership has been transferred\n  * @param previousOwner representing the address of the previous owner\n  * @param newOwner representing the address of the new owner\n  */\n  event ProxyOwnershipTransferred(address previousOwner, address newOwner);\n\n  // Storage position of the owner of the contract\n  bytes32 private constant proxyOwnerPosition = keccak256(\"org.beefledger.proxy.owner\");\n\n  /**\n  * @dev the constructor sets the original owner of the contract to the sender account.\n  */\n  constructor() {\n    setUpgradeabilityOwner(msg.sender);\n  }\n\n  /**\n  * @dev Throws if called by any account other than the owner.\n  */\n  modifier onlyProxyOwner() {\n    require(msg.sender == proxyOwner(), \"sender is not proxy owner\");\n    _;\n  }\n\n  /**\n   * @dev Tells the address of the owner\n   * return the address of the owner\n   */\n  function proxyOwner() public view returns (address owner) {\n    bytes32 position = proxyOwnerPosition;\n    assembly {\n      owner := sload(position)\n    }\n  }\n\n  /**\n   * @dev Sets the address of the owner\n   */\n  function setUpgradeabilityOwner(address newProxyOwner) internal {\n    bytes32 position = proxyOwnerPosition;\n    assembly {\n      sstore(position, newProxyOwner)\n    }\n  }\n\n  /**\n   * @dev Allows the current owner to transfer control of the contract to a newOwner.\n   * @param newOwner The address to transfer ownership to.\n   */\n  function transferProxyOwnership(address newOwner) public onlyProxyOwner {\n    require(newOwner != address(0), \"new owner cannot be 0\");\n    emit ProxyOwnershipTransferred(proxyOwner(), newOwner);\n    setUpgradeabilityOwner(newOwner);\n  }\n\n  /**\n   * @dev Allows the proxy owner to upgrade the current version of the proxy.\n   * @param implementation representing the address of the new implementation to be set.\n   */\n  function upgradeTo(address implementation) public onlyProxyOwner {\n    _upgradeTo(implementation);\n  }\n\n  /**\n   * @dev Allows the proxy owner to upgrade the current version of the proxy and call the new implementation\n   * to initialize whatever is needed through a low level call.\n   * @param implementation representing the address of the new implementation to be set.\n   * @param data represents the msg.data to bet sent in the low level call. This parameter may include the function\n   * signature of the implementation to be called with the needed payload\n   */\n  function upgradeToAndCall(address implementation, bytes memory data) payable public onlyProxyOwner {\n    upgradeTo(implementation);\n    (bool success,  ) = address(this).call{value: msg.value}(data);\n    require(success, \"error\");\n  }\n}\n",
  "sourcePath": "/home/santiago/projects/beefledger/erc20_asset_grouping/src/ethereum/contracts/upgradability/OwnedUpgradeabilityProxy.sol",
  "compiler": {
    "name": "solc",
    "version": "0.7.0+commit.9e61f92b.Emscripten.clang"
  },
  "schemaVersion": "3.3.2",
  "updatedAt": "2021-02-04T16:57:01.467Z",
  "devdoc": {
    "details": "This contract combines an upgradeability proxy with basic authorization control functionalities",
    "events": {
      "ProxyOwnershipTransferred(address,address)": {
        "details": "Event to show ownership has been transferred",
        "params": {
          "newOwner": "representing the address of the new owner",
          "previousOwner": "representing the address of the previous owner"
        }
      }
    },
    "kind": "dev",
    "methods": {
      "constructor": {
        "details": "the constructor sets the original owner of the contract to the sender account."
      },
      "implementation()": {
        "details": "Tells the address of the current implementation return address of the current implementation"
      },
      "proxyOwner()": {
        "details": "Tells the address of the owner return the address of the owner"
      },
      "transferProxyOwnership(address)": {
        "details": "Allows the current owner to transfer control of the contract to a newOwner.",
        "params": {
          "newOwner": "The address to transfer ownership to."
        }
      },
      "upgradeTo(address)": {
        "details": "Allows the proxy owner to upgrade the current version of the proxy.",
        "params": {
          "implementation": "representing the address of the new implementation to be set."
        }
      },
      "upgradeToAndCall(address,bytes)": {
        "details": "Allows the proxy owner to upgrade the current version of the proxy and call the new implementation to initialize whatever is needed through a low level call.",
        "params": {
          "data": "represents the msg.data to bet sent in the low level call. This parameter may include the function signature of the implementation to be called with the needed payload",
          "implementation": "representing the address of the new implementation to be set."
        }
      }
    },
    "title": "OwnedUpgradeabilityProxy",
    "version": 1
  },
  "userdoc": {
    "kind": "user",
    "methods": {},
    "version": 1
  }
}