{
  "contractName": "UpgradeabilityProxy",
  "abi": [
    {
      "anonymous": false,
      "inputs": [
        {
          "indexed": true,
          "internalType": "address",
          "name": "implementation",
          "type": "address"
        }
      ],
      "name": "Upgraded",
      "type": "event"
    },
    {
      "stateMutability": "payable",
      "type": "fallback"
    },
    {
      "stateMutability": "payable",
      "type": "receive"
    },
    {
      "inputs": [],
      "name": "implementation",
      "outputs": [
        {
          "internalType": "address",
          "name": "impl",
          "type": "address"
        }
      ],
      "stateMutability": "view",
      "type": "function"
    }
  ],
  "bytecode": "0x608060405234801561001057600080fd5b50610151806100206000396000f3fe6080604052600436106100225760003560e01c80635c60da1b1461003957610031565b366100315761002f61006a565b005b61002f61006a565b34801561004557600080fd5b5061004e6100f6565b604080516001600160a01b039092168252519081900360200190f35b60006100746100f6565b90506001600160a01b0381166100d1576040805162461bcd60e51b815260206004820152601a60248201527f696d706c656d656e746174696f6e2063616e6e6f742062652030000000000000604482015290519081900360640190fd5b60405136600082376000803683855af43d806000843e8180156100f2578184f35b8184fd5b7f8237f1a37609e816d8836dccef0c0be98ff6956ffa4035934e1d39231985e7d8549056fea26469706673582212200ec37d4c9d41f24cffe9e6654f15e3653b1611f7c6ef81ec77514e77e222d60d64736f6c63430007000033",
  "immutableReferences": {},
  "source": "// SPDX-License-Identifier: MIT\n\npragma solidity >=0.7.0 <0.8.0;\n\nimport './Proxy.sol';\n\n/**\n * @title UpgradeabilityProxy\n * @dev This contract represents a proxy where the implementation address to which it will delegate can be upgraded\n */\ncontract UpgradeabilityProxy is Proxy {\n  /**\n   * @dev This event will be emitted every time the implementation gets upgraded\n   * @param implementation representing the address of the upgraded implementation\n   */\n  event Upgraded(address indexed implementation);\n\n  // Storage position of the address of the current implementation\n  bytes32 private constant implementationPosition = keccak256(\"org.beefledger.proxy.implementation\");\n\n  /**\n   * @dev Tells the address of the current implementation\n   * return address of the current implementation\n   */\n  function implementation() override public view returns (address impl) {\n    bytes32 position = implementationPosition;\n    assembly {\n      impl := sload(position)\n    }\n  }\n\n  /**\n   * @dev Sets the address of the current implementation\n   * @param newImplementation address representing the new implementation to be set\n   */\n  function setImplementation(address newImplementation) internal {\n    bytes32 position = implementationPosition;\n    assembly {\n      sstore(position, newImplementation)\n    }\n  }\n\n  /**\n   * @dev Upgrades the implementation address\n   * @param newImplementation representing the address of the new implementation to be set\n   */\n  function _upgradeTo(address newImplementation) internal {\n    address currentImplementation = implementation();\n    require(currentImplementation != newImplementation, \"new implementation cannot be the same\");\n    setImplementation(newImplementation);\n    emit Upgraded(newImplementation);\n  }\n}\n",
  "sourcePath": "/home/santiago/projects/std/erc20_asset_grouping/src/ethereum/contracts/upgradability/UpgradeabilityProxy.sol",
  "compiler": {
    "name": "solc",
    "version": "0.7.0+commit.9e61f92b.Emscripten.clang"
  },
  "schemaVersion": "3.4.2",
  "updatedAt": "2021-08-17T01:50:19.048Z",
  "devdoc": {
    "details": "This contract represents a proxy where the implementation address to which it will delegate can be upgraded",
    "events": {
      "Upgraded(address)": {
        "details": "This event will be emitted every time the implementation gets upgraded",
        "params": {
          "implementation": "representing the address of the upgraded implementation"
        }
      }
    },
    "kind": "dev",
    "methods": {
      "implementation()": {
        "details": "Tells the address of the current implementation return address of the current implementation"
      }
    },
    "title": "UpgradeabilityProxy",
    "version": 1
  },
  "userdoc": {
    "kind": "user",
    "methods": {},
    "version": 1
  }
}